
Camera_Test.elf:     file format elf32-littlearm

Sections:
Idx Name          Size      VMA       LMA       File off  Algn
  0 .isr_vector   000001ac  08000000  08000000  00010000  2**0
                  CONTENTS, ALLOC, LOAD, READONLY, DATA
  1 .text         00003ca4  080001b0  080001b0  000101b0  2**4
                  CONTENTS, ALLOC, LOAD, READONLY, CODE
  2 .rodata       000003e0  08003e54  08003e54  00013e54  2**2
                  CONTENTS, ALLOC, LOAD, READONLY, DATA
  3 .ARM          00000008  08004234  08004234  00014234  2**2
                  CONTENTS, ALLOC, LOAD, READONLY, DATA
  4 .init_array   00000004  0800423c  0800423c  0001423c  2**2
                  CONTENTS, ALLOC, LOAD, DATA
  5 .fini_array   00000004  08004240  08004240  00014240  2**2
                  CONTENTS, ALLOC, LOAD, DATA
  6 .data         00000070  20000000  08004244  00020000  2**2
                  CONTENTS, ALLOC, LOAD, DATA
  7 .bss          00002770  20000070  080042b4  00020070  2**2
                  ALLOC
  8 ._user_heap_stack 00000600  200027e0  080042b4  000227e0  2**0
                  ALLOC
  9 .ARM.attributes 00000030  00000000  00000000  00020070  2**0
                  CONTENTS, READONLY
 10 .debug_info   00014b98  00000000  00000000  000200a0  2**0
                  CONTENTS, READONLY, DEBUGGING
 11 .debug_abbrev 00002a88  00000000  00000000  00034c38  2**0
                  CONTENTS, READONLY, DEBUGGING
 12 .debug_loc    00008fa1  00000000  00000000  000376c0  2**0
                  CONTENTS, READONLY, DEBUGGING
 13 .debug_aranges 00000c80  00000000  00000000  00040668  2**3
                  CONTENTS, READONLY, DEBUGGING
 14 .debug_ranges 00000f10  00000000  00000000  000412e8  2**3
                  CONTENTS, READONLY, DEBUGGING
 15 .debug_line   00006f24  00000000  00000000  000421f8  2**0
                  CONTENTS, READONLY, DEBUGGING
 16 .debug_str    00004ca2  00000000  00000000  0004911c  2**0
                  CONTENTS, READONLY, DEBUGGING
 17 .comment      0000007c  00000000  00000000  0004ddbe  2**0
                  CONTENTS, READONLY
 18 .debug_frame  000026b8  00000000  00000000  0004de3c  2**2
                  CONTENTS, READONLY, DEBUGGING

Disassembly of section .text:

080001b0 <__do_global_dtors_aux>:
 80001b0:	b510      	push	{r4, lr}
 80001b2:	4c05      	ldr	r4, [pc, #20]	; (80001c8 <__do_global_dtors_aux+0x18>)
 80001b4:	7823      	ldrb	r3, [r4, #0]
 80001b6:	b933      	cbnz	r3, 80001c6 <__do_global_dtors_aux+0x16>
 80001b8:	4b04      	ldr	r3, [pc, #16]	; (80001cc <__do_global_dtors_aux+0x1c>)
 80001ba:	b113      	cbz	r3, 80001c2 <__do_global_dtors_aux+0x12>
 80001bc:	4804      	ldr	r0, [pc, #16]	; (80001d0 <__do_global_dtors_aux+0x20>)
 80001be:	f3af 8000 	nop.w
 80001c2:	2301      	movs	r3, #1
 80001c4:	7023      	strb	r3, [r4, #0]
 80001c6:	bd10      	pop	{r4, pc}
 80001c8:	20000070 	.word	0x20000070
 80001cc:	00000000 	.word	0x00000000
 80001d0:	08003e3c 	.word	0x08003e3c

080001d4 <frame_dummy>:
 80001d4:	b508      	push	{r3, lr}
 80001d6:	4b03      	ldr	r3, [pc, #12]	; (80001e4 <frame_dummy+0x10>)
 80001d8:	b11b      	cbz	r3, 80001e2 <frame_dummy+0xe>
 80001da:	4903      	ldr	r1, [pc, #12]	; (80001e8 <frame_dummy+0x14>)
 80001dc:	4803      	ldr	r0, [pc, #12]	; (80001ec <frame_dummy+0x18>)
 80001de:	f3af 8000 	nop.w
 80001e2:	bd08      	pop	{r3, pc}
 80001e4:	00000000 	.word	0x00000000
 80001e8:	20000074 	.word	0x20000074
 80001ec:	08003e3c 	.word	0x08003e3c

080001f0 <strlen>:
 80001f0:	4603      	mov	r3, r0
 80001f2:	f813 2b01 	ldrb.w	r2, [r3], #1
 80001f6:	2a00      	cmp	r2, #0
 80001f8:	d1fb      	bne.n	80001f2 <strlen+0x2>
 80001fa:	1a18      	subs	r0, r3, r0
 80001fc:	3801      	subs	r0, #1
 80001fe:	4770      	bx	lr

08000200 <memchr>:
 8000200:	f001 01ff 	and.w	r1, r1, #255	; 0xff
 8000204:	2a10      	cmp	r2, #16
 8000206:	db2b      	blt.n	8000260 <memchr+0x60>
 8000208:	f010 0f07 	tst.w	r0, #7
 800020c:	d008      	beq.n	8000220 <memchr+0x20>
 800020e:	f810 3b01 	ldrb.w	r3, [r0], #1
 8000212:	3a01      	subs	r2, #1
 8000214:	428b      	cmp	r3, r1
 8000216:	d02d      	beq.n	8000274 <memchr+0x74>
 8000218:	f010 0f07 	tst.w	r0, #7
 800021c:	b342      	cbz	r2, 8000270 <memchr+0x70>
 800021e:	d1f6      	bne.n	800020e <memchr+0xe>
 8000220:	b4f0      	push	{r4, r5, r6, r7}
 8000222:	ea41 2101 	orr.w	r1, r1, r1, lsl #8
 8000226:	ea41 4101 	orr.w	r1, r1, r1, lsl #16
 800022a:	f022 0407 	bic.w	r4, r2, #7
 800022e:	f07f 0700 	mvns.w	r7, #0
 8000232:	2300      	movs	r3, #0
 8000234:	e8f0 5602 	ldrd	r5, r6, [r0], #8
 8000238:	3c08      	subs	r4, #8
 800023a:	ea85 0501 	eor.w	r5, r5, r1
 800023e:	ea86 0601 	eor.w	r6, r6, r1
 8000242:	fa85 f547 	uadd8	r5, r5, r7
 8000246:	faa3 f587 	sel	r5, r3, r7
 800024a:	fa86 f647 	uadd8	r6, r6, r7
 800024e:	faa5 f687 	sel	r6, r5, r7
 8000252:	b98e      	cbnz	r6, 8000278 <memchr+0x78>
 8000254:	d1ee      	bne.n	8000234 <memchr+0x34>
 8000256:	bcf0      	pop	{r4, r5, r6, r7}
 8000258:	f001 01ff 	and.w	r1, r1, #255	; 0xff
 800025c:	f002 0207 	and.w	r2, r2, #7
 8000260:	b132      	cbz	r2, 8000270 <memchr+0x70>
 8000262:	f810 3b01 	ldrb.w	r3, [r0], #1
 8000266:	3a01      	subs	r2, #1
 8000268:	ea83 0301 	eor.w	r3, r3, r1
 800026c:	b113      	cbz	r3, 8000274 <memchr+0x74>
 800026e:	d1f8      	bne.n	8000262 <memchr+0x62>
 8000270:	2000      	movs	r0, #0
 8000272:	4770      	bx	lr
 8000274:	3801      	subs	r0, #1
 8000276:	4770      	bx	lr
 8000278:	2d00      	cmp	r5, #0
 800027a:	bf06      	itte	eq
 800027c:	4635      	moveq	r5, r6
 800027e:	3803      	subeq	r0, #3
 8000280:	3807      	subne	r0, #7
 8000282:	f015 0f01 	tst.w	r5, #1
 8000286:	d107      	bne.n	8000298 <memchr+0x98>
 8000288:	3001      	adds	r0, #1
 800028a:	f415 7f80 	tst.w	r5, #256	; 0x100
 800028e:	bf02      	ittt	eq
 8000290:	3001      	addeq	r0, #1
 8000292:	f415 3fc0 	tsteq.w	r5, #98304	; 0x18000
 8000296:	3001      	addeq	r0, #1
 8000298:	bcf0      	pop	{r4, r5, r6, r7}
 800029a:	3801      	subs	r0, #1
 800029c:	4770      	bx	lr
 800029e:	bf00      	nop

080002a0 <__aeabi_uldivmod>:
 80002a0:	b953      	cbnz	r3, 80002b8 <__aeabi_uldivmod+0x18>
 80002a2:	b94a      	cbnz	r2, 80002b8 <__aeabi_uldivmod+0x18>
 80002a4:	2900      	cmp	r1, #0
 80002a6:	bf08      	it	eq
 80002a8:	2800      	cmpeq	r0, #0
 80002aa:	bf1c      	itt	ne
 80002ac:	f04f 31ff 	movne.w	r1, #4294967295
 80002b0:	f04f 30ff 	movne.w	r0, #4294967295
 80002b4:	f000 b97a 	b.w	80005ac <__aeabi_idiv0>
 80002b8:	f1ad 0c08 	sub.w	ip, sp, #8
 80002bc:	e96d ce04 	strd	ip, lr, [sp, #-16]!
 80002c0:	f000 f806 	bl	80002d0 <__udivmoddi4>
 80002c4:	f8dd e004 	ldr.w	lr, [sp, #4]
 80002c8:	e9dd 2302 	ldrd	r2, r3, [sp, #8]
 80002cc:	b004      	add	sp, #16
 80002ce:	4770      	bx	lr

080002d0 <__udivmoddi4>:
 80002d0:	e92d 47f0 	stmdb	sp!, {r4, r5, r6, r7, r8, r9, sl, lr}
 80002d4:	468c      	mov	ip, r1
 80002d6:	460d      	mov	r5, r1
 80002d8:	4604      	mov	r4, r0
 80002da:	9e08      	ldr	r6, [sp, #32]
 80002dc:	2b00      	cmp	r3, #0
 80002de:	d151      	bne.n	8000384 <__udivmoddi4+0xb4>
 80002e0:	428a      	cmp	r2, r1
 80002e2:	4617      	mov	r7, r2
 80002e4:	d96d      	bls.n	80003c2 <__udivmoddi4+0xf2>
 80002e6:	fab2 fe82 	clz	lr, r2
 80002ea:	f1be 0f00 	cmp.w	lr, #0
 80002ee:	d00b      	beq.n	8000308 <__udivmoddi4+0x38>
 80002f0:	f1ce 0c20 	rsb	ip, lr, #32
 80002f4:	fa01 f50e 	lsl.w	r5, r1, lr
 80002f8:	fa20 fc0c 	lsr.w	ip, r0, ip
 80002fc:	fa02 f70e 	lsl.w	r7, r2, lr
 8000300:	ea4c 0c05 	orr.w	ip, ip, r5
 8000304:	fa00 f40e 	lsl.w	r4, r0, lr
 8000308:	ea4f 4a17 	mov.w	sl, r7, lsr #16
 800030c:	0c25      	lsrs	r5, r4, #16
 800030e:	fbbc f8fa 	udiv	r8, ip, sl
 8000312:	fa1f f987 	uxth.w	r9, r7
 8000316:	fb0a cc18 	mls	ip, sl, r8, ip
 800031a:	ea45 450c 	orr.w	r5, r5, ip, lsl #16
 800031e:	fb08 f309 	mul.w	r3, r8, r9
 8000322:	42ab      	cmp	r3, r5
 8000324:	d90a      	bls.n	800033c <__udivmoddi4+0x6c>
 8000326:	19ed      	adds	r5, r5, r7
 8000328:	f108 32ff 	add.w	r2, r8, #4294967295
 800032c:	f080 8123 	bcs.w	8000576 <__udivmoddi4+0x2a6>
 8000330:	42ab      	cmp	r3, r5
 8000332:	f240 8120 	bls.w	8000576 <__udivmoddi4+0x2a6>
 8000336:	f1a8 0802 	sub.w	r8, r8, #2
 800033a:	443d      	add	r5, r7
 800033c:	1aed      	subs	r5, r5, r3
 800033e:	b2a4      	uxth	r4, r4
 8000340:	fbb5 f0fa 	udiv	r0, r5, sl
 8000344:	fb0a 5510 	mls	r5, sl, r0, r5
 8000348:	ea44 4405 	orr.w	r4, r4, r5, lsl #16
 800034c:	fb00 f909 	mul.w	r9, r0, r9
 8000350:	45a1      	cmp	r9, r4
 8000352:	d909      	bls.n	8000368 <__udivmoddi4+0x98>
 8000354:	19e4      	adds	r4, r4, r7
 8000356:	f100 33ff 	add.w	r3, r0, #4294967295
 800035a:	f080 810a 	bcs.w	8000572 <__udivmoddi4+0x2a2>
 800035e:	45a1      	cmp	r9, r4
 8000360:	f240 8107 	bls.w	8000572 <__udivmoddi4+0x2a2>
 8000364:	3802      	subs	r0, #2
 8000366:	443c      	add	r4, r7
 8000368:	eba4 0409 	sub.w	r4, r4, r9
 800036c:	ea40 4008 	orr.w	r0, r0, r8, lsl #16
 8000370:	2100      	movs	r1, #0
 8000372:	2e00      	cmp	r6, #0
 8000374:	d061      	beq.n	800043a <__udivmoddi4+0x16a>
 8000376:	fa24 f40e 	lsr.w	r4, r4, lr
 800037a:	2300      	movs	r3, #0
 800037c:	6034      	str	r4, [r6, #0]
 800037e:	6073      	str	r3, [r6, #4]
 8000380:	e8bd 87f0 	ldmia.w	sp!, {r4, r5, r6, r7, r8, r9, sl, pc}
 8000384:	428b      	cmp	r3, r1
 8000386:	d907      	bls.n	8000398 <__udivmoddi4+0xc8>
 8000388:	2e00      	cmp	r6, #0
 800038a:	d054      	beq.n	8000436 <__udivmoddi4+0x166>
 800038c:	2100      	movs	r1, #0
 800038e:	e886 0021 	stmia.w	r6, {r0, r5}
 8000392:	4608      	mov	r0, r1
 8000394:	e8bd 87f0 	ldmia.w	sp!, {r4, r5, r6, r7, r8, r9, sl, pc}
 8000398:	fab3 f183 	clz	r1, r3
 800039c:	2900      	cmp	r1, #0
 800039e:	f040 808e 	bne.w	80004be <__udivmoddi4+0x1ee>
 80003a2:	42ab      	cmp	r3, r5
 80003a4:	d302      	bcc.n	80003ac <__udivmoddi4+0xdc>
 80003a6:	4282      	cmp	r2, r0
 80003a8:	f200 80fa 	bhi.w	80005a0 <__udivmoddi4+0x2d0>
 80003ac:	1a84      	subs	r4, r0, r2
 80003ae:	eb65 0503 	sbc.w	r5, r5, r3
 80003b2:	2001      	movs	r0, #1
 80003b4:	46ac      	mov	ip, r5
 80003b6:	2e00      	cmp	r6, #0
 80003b8:	d03f      	beq.n	800043a <__udivmoddi4+0x16a>
 80003ba:	e886 1010 	stmia.w	r6, {r4, ip}
 80003be:	e8bd 87f0 	ldmia.w	sp!, {r4, r5, r6, r7, r8, r9, sl, pc}
 80003c2:	b912      	cbnz	r2, 80003ca <__udivmoddi4+0xfa>
 80003c4:	2701      	movs	r7, #1
 80003c6:	fbb7 f7f2 	udiv	r7, r7, r2
 80003ca:	fab7 fe87 	clz	lr, r7
 80003ce:	f1be 0f00 	cmp.w	lr, #0
 80003d2:	d134      	bne.n	800043e <__udivmoddi4+0x16e>
 80003d4:	1beb      	subs	r3, r5, r7
 80003d6:	0c3a      	lsrs	r2, r7, #16
 80003d8:	fa1f fc87 	uxth.w	ip, r7
 80003dc:	2101      	movs	r1, #1
 80003de:	fbb3 f8f2 	udiv	r8, r3, r2
 80003e2:	0c25      	lsrs	r5, r4, #16
 80003e4:	fb02 3318 	mls	r3, r2, r8, r3
 80003e8:	ea45 4503 	orr.w	r5, r5, r3, lsl #16
 80003ec:	fb0c f308 	mul.w	r3, ip, r8
 80003f0:	42ab      	cmp	r3, r5
 80003f2:	d907      	bls.n	8000404 <__udivmoddi4+0x134>
 80003f4:	19ed      	adds	r5, r5, r7
 80003f6:	f108 30ff 	add.w	r0, r8, #4294967295
 80003fa:	d202      	bcs.n	8000402 <__udivmoddi4+0x132>
 80003fc:	42ab      	cmp	r3, r5
 80003fe:	f200 80d1 	bhi.w	80005a4 <__udivmoddi4+0x2d4>
 8000402:	4680      	mov	r8, r0
 8000404:	1aed      	subs	r5, r5, r3
 8000406:	b2a3      	uxth	r3, r4
 8000408:	fbb5 f0f2 	udiv	r0, r5, r2
 800040c:	fb02 5510 	mls	r5, r2, r0, r5
 8000410:	ea43 4405 	orr.w	r4, r3, r5, lsl #16
 8000414:	fb0c fc00 	mul.w	ip, ip, r0
 8000418:	45a4      	cmp	ip, r4
 800041a:	d907      	bls.n	800042c <__udivmoddi4+0x15c>
 800041c:	19e4      	adds	r4, r4, r7
 800041e:	f100 33ff 	add.w	r3, r0, #4294967295
 8000422:	d202      	bcs.n	800042a <__udivmoddi4+0x15a>
 8000424:	45a4      	cmp	ip, r4
 8000426:	f200 80b8 	bhi.w	800059a <__udivmoddi4+0x2ca>
 800042a:	4618      	mov	r0, r3
 800042c:	eba4 040c 	sub.w	r4, r4, ip
 8000430:	ea40 4008 	orr.w	r0, r0, r8, lsl #16
 8000434:	e79d      	b.n	8000372 <__udivmoddi4+0xa2>
 8000436:	4631      	mov	r1, r6
 8000438:	4630      	mov	r0, r6
 800043a:	e8bd 87f0 	ldmia.w	sp!, {r4, r5, r6, r7, r8, r9, sl, pc}
 800043e:	f1ce 0420 	rsb	r4, lr, #32
 8000442:	fa05 f30e 	lsl.w	r3, r5, lr
 8000446:	fa07 f70e 	lsl.w	r7, r7, lr
 800044a:	fa20 f804 	lsr.w	r8, r0, r4
 800044e:	0c3a      	lsrs	r2, r7, #16
 8000450:	fa25 f404 	lsr.w	r4, r5, r4
 8000454:	ea48 0803 	orr.w	r8, r8, r3
 8000458:	fbb4 f1f2 	udiv	r1, r4, r2
 800045c:	ea4f 4518 	mov.w	r5, r8, lsr #16
 8000460:	fb02 4411 	mls	r4, r2, r1, r4
 8000464:	fa1f fc87 	uxth.w	ip, r7
 8000468:	ea45 4504 	orr.w	r5, r5, r4, lsl #16
 800046c:	fb01 f30c 	mul.w	r3, r1, ip
 8000470:	42ab      	cmp	r3, r5
 8000472:	fa00 f40e 	lsl.w	r4, r0, lr
 8000476:	d909      	bls.n	800048c <__udivmoddi4+0x1bc>
 8000478:	19ed      	adds	r5, r5, r7
 800047a:	f101 30ff 	add.w	r0, r1, #4294967295
 800047e:	f080 808a 	bcs.w	8000596 <__udivmoddi4+0x2c6>
 8000482:	42ab      	cmp	r3, r5
 8000484:	f240 8087 	bls.w	8000596 <__udivmoddi4+0x2c6>
 8000488:	3902      	subs	r1, #2
 800048a:	443d      	add	r5, r7
 800048c:	1aeb      	subs	r3, r5, r3
 800048e:	fa1f f588 	uxth.w	r5, r8
 8000492:	fbb3 f0f2 	udiv	r0, r3, r2
 8000496:	fb02 3310 	mls	r3, r2, r0, r3
 800049a:	ea45 4503 	orr.w	r5, r5, r3, lsl #16
 800049e:	fb00 f30c 	mul.w	r3, r0, ip
 80004a2:	42ab      	cmp	r3, r5
 80004a4:	d907      	bls.n	80004b6 <__udivmoddi4+0x1e6>
 80004a6:	19ed      	adds	r5, r5, r7
 80004a8:	f100 38ff 	add.w	r8, r0, #4294967295
 80004ac:	d26f      	bcs.n	800058e <__udivmoddi4+0x2be>
 80004ae:	42ab      	cmp	r3, r5
 80004b0:	d96d      	bls.n	800058e <__udivmoddi4+0x2be>
 80004b2:	3802      	subs	r0, #2
 80004b4:	443d      	add	r5, r7
 80004b6:	1aeb      	subs	r3, r5, r3
 80004b8:	ea40 4101 	orr.w	r1, r0, r1, lsl #16
 80004bc:	e78f      	b.n	80003de <__udivmoddi4+0x10e>
 80004be:	f1c1 0720 	rsb	r7, r1, #32
 80004c2:	fa22 f807 	lsr.w	r8, r2, r7
 80004c6:	408b      	lsls	r3, r1
 80004c8:	fa05 f401 	lsl.w	r4, r5, r1
 80004cc:	ea48 0303 	orr.w	r3, r8, r3
 80004d0:	fa20 fe07 	lsr.w	lr, r0, r7
 80004d4:	ea4f 4c13 	mov.w	ip, r3, lsr #16
 80004d8:	40fd      	lsrs	r5, r7
 80004da:	ea4e 0e04 	orr.w	lr, lr, r4
 80004de:	fbb5 f9fc 	udiv	r9, r5, ip
 80004e2:	ea4f 441e 	mov.w	r4, lr, lsr #16
 80004e6:	fb0c 5519 	mls	r5, ip, r9, r5
 80004ea:	fa1f f883 	uxth.w	r8, r3
 80004ee:	ea44 4505 	orr.w	r5, r4, r5, lsl #16
 80004f2:	fb09 f408 	mul.w	r4, r9, r8
 80004f6:	42ac      	cmp	r4, r5
 80004f8:	fa02 f201 	lsl.w	r2, r2, r1
 80004fc:	fa00 fa01 	lsl.w	sl, r0, r1
 8000500:	d908      	bls.n	8000514 <__udivmoddi4+0x244>
 8000502:	18ed      	adds	r5, r5, r3
 8000504:	f109 30ff 	add.w	r0, r9, #4294967295
 8000508:	d243      	bcs.n	8000592 <__udivmoddi4+0x2c2>
 800050a:	42ac      	cmp	r4, r5
 800050c:	d941      	bls.n	8000592 <__udivmoddi4+0x2c2>
 800050e:	f1a9 0902 	sub.w	r9, r9, #2
 8000512:	441d      	add	r5, r3
 8000514:	1b2d      	subs	r5, r5, r4
 8000516:	fa1f fe8e 	uxth.w	lr, lr
 800051a:	fbb5 f0fc 	udiv	r0, r5, ip
 800051e:	fb0c 5510 	mls	r5, ip, r0, r5
 8000522:	ea4e 4405 	orr.w	r4, lr, r5, lsl #16
 8000526:	fb00 f808 	mul.w	r8, r0, r8
 800052a:	45a0      	cmp	r8, r4
 800052c:	d907      	bls.n	800053e <__udivmoddi4+0x26e>
 800052e:	18e4      	adds	r4, r4, r3
 8000530:	f100 35ff 	add.w	r5, r0, #4294967295
 8000534:	d229      	bcs.n	800058a <__udivmoddi4+0x2ba>
 8000536:	45a0      	cmp	r8, r4
 8000538:	d927      	bls.n	800058a <__udivmoddi4+0x2ba>
 800053a:	3802      	subs	r0, #2
 800053c:	441c      	add	r4, r3
 800053e:	ea40 4009 	orr.w	r0, r0, r9, lsl #16
 8000542:	eba4 0408 	sub.w	r4, r4, r8
 8000546:	fba0 8902 	umull	r8, r9, r0, r2
 800054a:	454c      	cmp	r4, r9
 800054c:	46c6      	mov	lr, r8
 800054e:	464d      	mov	r5, r9
 8000550:	d315      	bcc.n	800057e <__udivmoddi4+0x2ae>
 8000552:	d012      	beq.n	800057a <__udivmoddi4+0x2aa>
 8000554:	b156      	cbz	r6, 800056c <__udivmoddi4+0x29c>
 8000556:	ebba 030e 	subs.w	r3, sl, lr
 800055a:	eb64 0405 	sbc.w	r4, r4, r5
 800055e:	fa04 f707 	lsl.w	r7, r4, r7
 8000562:	40cb      	lsrs	r3, r1
 8000564:	431f      	orrs	r7, r3
 8000566:	40cc      	lsrs	r4, r1
 8000568:	6037      	str	r7, [r6, #0]
 800056a:	6074      	str	r4, [r6, #4]
 800056c:	2100      	movs	r1, #0
 800056e:	e8bd 87f0 	ldmia.w	sp!, {r4, r5, r6, r7, r8, r9, sl, pc}
 8000572:	4618      	mov	r0, r3
 8000574:	e6f8      	b.n	8000368 <__udivmoddi4+0x98>
 8000576:	4690      	mov	r8, r2
 8000578:	e6e0      	b.n	800033c <__udivmoddi4+0x6c>
 800057a:	45c2      	cmp	sl, r8
 800057c:	d2ea      	bcs.n	8000554 <__udivmoddi4+0x284>
 800057e:	ebb8 0e02 	subs.w	lr, r8, r2
 8000582:	eb69 0503 	sbc.w	r5, r9, r3
 8000586:	3801      	subs	r0, #1
 8000588:	e7e4      	b.n	8000554 <__udivmoddi4+0x284>
 800058a:	4628      	mov	r0, r5
 800058c:	e7d7      	b.n	800053e <__udivmoddi4+0x26e>
 800058e:	4640      	mov	r0, r8
 8000590:	e791      	b.n	80004b6 <__udivmoddi4+0x1e6>
 8000592:	4681      	mov	r9, r0
 8000594:	e7be      	b.n	8000514 <__udivmoddi4+0x244>
 8000596:	4601      	mov	r1, r0
 8000598:	e778      	b.n	800048c <__udivmoddi4+0x1bc>
 800059a:	3802      	subs	r0, #2
 800059c:	443c      	add	r4, r7
 800059e:	e745      	b.n	800042c <__udivmoddi4+0x15c>
 80005a0:	4608      	mov	r0, r1
 80005a2:	e708      	b.n	80003b6 <__udivmoddi4+0xe6>
 80005a4:	f1a8 0802 	sub.w	r8, r8, #2
 80005a8:	443d      	add	r5, r7
 80005aa:	e72b      	b.n	8000404 <__udivmoddi4+0x134>

080005ac <__aeabi_idiv0>:
 80005ac:	4770      	bx	lr
 80005ae:	bf00      	nop

080005b0 <HAL_InitTick>:
  *       implementation  in user file.
  * @param TickPriority  Tick interrupt priority.
  * @retval HAL status
  */
__weak HAL_StatusTypeDef HAL_InitTick(uint32_t TickPriority)
{
 80005b0:	b538      	push	{r3, r4, r5, lr}
  HAL_StatusTypeDef  status = HAL_OK;

  if (uwTickFreq != 0U)
 80005b2:	4b0f      	ldr	r3, [pc, #60]	; (80005f0 <HAL_InitTick+0x40>)
{
 80005b4:	4605      	mov	r5, r0
  if (uwTickFreq != 0U)
 80005b6:	6818      	ldr	r0, [r3, #0]
 80005b8:	b908      	cbnz	r0, 80005be <HAL_InitTick+0xe>
      status = HAL_ERROR;
    }
  }
  else
  {
    status = HAL_ERROR;
 80005ba:	2001      	movs	r0, #1
 80005bc:	bd38      	pop	{r3, r4, r5, pc}
    if (HAL_SYSTICK_Config(SystemCoreClock / (1000U / uwTickFreq)) == 0U)
 80005be:	4a0d      	ldr	r2, [pc, #52]	; (80005f4 <HAL_InitTick+0x44>)
 80005c0:	f44f 737a 	mov.w	r3, #1000	; 0x3e8
 80005c4:	fbb3 f3f0 	udiv	r3, r3, r0
 80005c8:	6810      	ldr	r0, [r2, #0]
 80005ca:	fbb0 f0f3 	udiv	r0, r0, r3
 80005ce:	f000 f89f 	bl	8000710 <HAL_SYSTICK_Config>
 80005d2:	4604      	mov	r4, r0
 80005d4:	2800      	cmp	r0, #0
 80005d6:	d1f0      	bne.n	80005ba <HAL_InitTick+0xa>
      if (TickPriority < (1UL << __NVIC_PRIO_BITS))
 80005d8:	2d0f      	cmp	r5, #15
 80005da:	d8ee      	bhi.n	80005ba <HAL_InitTick+0xa>
        HAL_NVIC_SetPriority(SysTick_IRQn, TickPriority, 0U);
 80005dc:	4602      	mov	r2, r0
 80005de:	4629      	mov	r1, r5
 80005e0:	f04f 30ff 	mov.w	r0, #4294967295
 80005e4:	f000 f852 	bl	800068c <HAL_NVIC_SetPriority>
        uwTickPrio = TickPriority;
 80005e8:	4b03      	ldr	r3, [pc, #12]	; (80005f8 <HAL_InitTick+0x48>)
 80005ea:	4620      	mov	r0, r4
 80005ec:	601d      	str	r5, [r3, #0]
  }

  /* Return function status */
  return status;
}
 80005ee:	bd38      	pop	{r3, r4, r5, pc}
 80005f0:	20000000 	.word	0x20000000
 80005f4:	20000008 	.word	0x20000008
 80005f8:	20000004 	.word	0x20000004

080005fc <HAL_Init>:
{
 80005fc:	b510      	push	{r4, lr}
  HAL_NVIC_SetPriorityGrouping(NVIC_PRIORITYGROUP_4);
 80005fe:	2003      	movs	r0, #3
 8000600:	f000 f832 	bl	8000668 <HAL_NVIC_SetPriorityGrouping>
  if (HAL_InitTick(TICK_INT_PRIORITY) != HAL_OK)
 8000604:	2000      	movs	r0, #0
 8000606:	f7ff ffd3 	bl	80005b0 <HAL_InitTick>
 800060a:	4604      	mov	r4, r0
 800060c:	b918      	cbnz	r0, 8000616 <HAL_Init+0x1a>
    HAL_MspInit();
 800060e:	f002 fe15 	bl	800323c <HAL_MspInit>
}
 8000612:	4620      	mov	r0, r4
 8000614:	bd10      	pop	{r4, pc}
    status = HAL_ERROR;
 8000616:	2401      	movs	r4, #1
 8000618:	e7fb      	b.n	8000612 <HAL_Init+0x16>
	...

0800061c <HAL_IncTick>:
  *      implementations in user file.
  * @retval None
  */
__weak void HAL_IncTick(void)
{
  uwTick += uwTickFreq;
 800061c:	4a03      	ldr	r2, [pc, #12]	; (800062c <HAL_IncTick+0x10>)
 800061e:	4904      	ldr	r1, [pc, #16]	; (8000630 <HAL_IncTick+0x14>)
 8000620:	6813      	ldr	r3, [r2, #0]
 8000622:	6809      	ldr	r1, [r1, #0]
 8000624:	440b      	add	r3, r1
 8000626:	6013      	str	r3, [r2, #0]
 8000628:	4770      	bx	lr
 800062a:	bf00      	nop
 800062c:	20002618 	.word	0x20002618
 8000630:	20000000 	.word	0x20000000

08000634 <HAL_GetTick>:
  *       implementations in user file.
  * @retval tick value
  */
__weak uint32_t HAL_GetTick(void)
{
  return uwTick;
 8000634:	4b01      	ldr	r3, [pc, #4]	; (800063c <HAL_GetTick+0x8>)
 8000636:	6818      	ldr	r0, [r3, #0]
}
 8000638:	4770      	bx	lr
 800063a:	bf00      	nop
 800063c:	20002618 	.word	0x20002618

08000640 <HAL_Delay>:
  *       implementations in user file.
  * @param Delay  specifies the delay time length, in milliseconds.
  * @retval None
  */
__weak void HAL_Delay(uint32_t Delay)
{
 8000640:	b538      	push	{r3, r4, r5, lr}
 8000642:	4604      	mov	r4, r0
  uint32_t tickstart = HAL_GetTick();
 8000644:	f7ff fff6 	bl	8000634 <HAL_GetTick>
  uint32_t wait = Delay;

  /* Add a period to guaranty minimum wait */
  if (wait < HAL_MAX_DELAY)
 8000648:	1c63      	adds	r3, r4, #1
  {
    wait += (uint32_t)(uwTickFreq);
 800064a:	bf1c      	itt	ne
 800064c:	4b05      	ldrne	r3, [pc, #20]	; (8000664 <HAL_Delay+0x24>)
 800064e:	681b      	ldrne	r3, [r3, #0]
  uint32_t tickstart = HAL_GetTick();
 8000650:	4605      	mov	r5, r0
    wait += (uint32_t)(uwTickFreq);
 8000652:	bf18      	it	ne
 8000654:	18e4      	addne	r4, r4, r3
  }

  while((HAL_GetTick() - tickstart) < wait)
 8000656:	f7ff ffed 	bl	8000634 <HAL_GetTick>
 800065a:	1b40      	subs	r0, r0, r5
 800065c:	4284      	cmp	r4, r0
 800065e:	d8fa      	bhi.n	8000656 <HAL_Delay+0x16>
  {
  }
}
 8000660:	bd38      	pop	{r3, r4, r5, pc}
 8000662:	bf00      	nop
 8000664:	20000000 	.word	0x20000000

08000668 <HAL_NVIC_SetPriorityGrouping>:
__STATIC_INLINE void __NVIC_SetPriorityGrouping(uint32_t PriorityGroup)
{
  uint32_t reg_value;
  uint32_t PriorityGroupTmp = (PriorityGroup & (uint32_t)0x07UL);             /* only values 0..7 are used          */

  reg_value  =  SCB->AIRCR;                                                   /* read old register configuration    */
 8000668:	4a07      	ldr	r2, [pc, #28]	; (8000688 <HAL_NVIC_SetPriorityGrouping+0x20>)
 800066a:	68d3      	ldr	r3, [r2, #12]
  reg_value &= ~((uint32_t)(SCB_AIRCR_VECTKEY_Msk | SCB_AIRCR_PRIGROUP_Msk)); /* clear bits to change               */
 800066c:	f423 63e0 	bic.w	r3, r3, #1792	; 0x700
 8000670:	041b      	lsls	r3, r3, #16
 8000672:	0c1b      	lsrs	r3, r3, #16
 8000674:	f043 63bf 	orr.w	r3, r3, #100139008	; 0x5f80000
  reg_value  =  (reg_value                                   |
                ((uint32_t)0x5FAUL << SCB_AIRCR_VECTKEY_Pos) |
                (PriorityGroupTmp << SCB_AIRCR_PRIGROUP_Pos)  );              /* Insert write key and priority group */
 8000678:	0200      	lsls	r0, r0, #8
 800067a:	f443 3300 	orr.w	r3, r3, #131072	; 0x20000
 800067e:	f400 60e0 	and.w	r0, r0, #1792	; 0x700
  reg_value  =  (reg_value                                   |
 8000682:	4303      	orrs	r3, r0
  SCB->AIRCR =  reg_value;
 8000684:	60d3      	str	r3, [r2, #12]
 8000686:	4770      	bx	lr
 8000688:	e000ed00 	.word	0xe000ed00

0800068c <HAL_NVIC_SetPriority>:
  \details Reads the priority grouping field from the NVIC Interrupt Controller.
  \return                Priority grouping field (SCB->AIRCR [10:8] PRIGROUP field).
 */
__STATIC_INLINE uint32_t __NVIC_GetPriorityGrouping(void)
{
  return ((uint32_t)((SCB->AIRCR & SCB_AIRCR_PRIGROUP_Msk) >> SCB_AIRCR_PRIGROUP_Pos));
 800068c:	4b17      	ldr	r3, [pc, #92]	; (80006ec <HAL_NVIC_SetPriority+0x60>)
  *         This parameter can be a value between 0 and 15
  *         A lower priority value indicates a higher priority.
  * @retval None
  */
void HAL_NVIC_SetPriority(IRQn_Type IRQn, uint32_t PreemptPriority, uint32_t SubPriority)
{
 800068e:	b530      	push	{r4, r5, lr}
 8000690:	68dc      	ldr	r4, [r3, #12]
 8000692:	f3c4 2402 	ubfx	r4, r4, #8, #3
{
  uint32_t PriorityGroupTmp = (PriorityGroup & (uint32_t)0x07UL);   /* only values 0..7 are used          */
  uint32_t PreemptPriorityBits;
  uint32_t SubPriorityBits;

  PreemptPriorityBits = ((7UL - PriorityGroupTmp) > (uint32_t)(__NVIC_PRIO_BITS)) ? (uint32_t)(__NVIC_PRIO_BITS) : (uint32_t)(7UL - PriorityGroupTmp);
 8000696:	f1c4 0307 	rsb	r3, r4, #7
  SubPriorityBits     = ((PriorityGroupTmp + (uint32_t)(__NVIC_PRIO_BITS)) < (uint32_t)7UL) ? (uint32_t)0UL : (uint32_t)((PriorityGroupTmp - 7UL) + (uint32_t)(__NVIC_PRIO_BITS));
 800069a:	1d25      	adds	r5, r4, #4
  PreemptPriorityBits = ((7UL - PriorityGroupTmp) > (uint32_t)(__NVIC_PRIO_BITS)) ? (uint32_t)(__NVIC_PRIO_BITS) : (uint32_t)(7UL - PriorityGroupTmp);
 800069c:	2b04      	cmp	r3, #4
 800069e:	bf28      	it	cs
 80006a0:	2304      	movcs	r3, #4
  SubPriorityBits     = ((PriorityGroupTmp + (uint32_t)(__NVIC_PRIO_BITS)) < (uint32_t)7UL) ? (uint32_t)0UL : (uint32_t)((PriorityGroupTmp - 7UL) + (uint32_t)(__NVIC_PRIO_BITS));
 80006a2:	2d06      	cmp	r5, #6

  return (
           ((PreemptPriority & (uint32_t)((1UL << (PreemptPriorityBits)) - 1UL)) << SubPriorityBits) |
 80006a4:	f04f 0501 	mov.w	r5, #1
 80006a8:	fa05 f303 	lsl.w	r3, r5, r3
 80006ac:	f103 33ff 	add.w	r3, r3, #4294967295
  SubPriorityBits     = ((PriorityGroupTmp + (uint32_t)(__NVIC_PRIO_BITS)) < (uint32_t)7UL) ? (uint32_t)0UL : (uint32_t)((PriorityGroupTmp - 7UL) + (uint32_t)(__NVIC_PRIO_BITS));
 80006b0:	bf8c      	ite	hi
 80006b2:	3c03      	subhi	r4, #3
 80006b4:	2400      	movls	r4, #0
           ((PreemptPriority & (uint32_t)((1UL << (PreemptPriorityBits)) - 1UL)) << SubPriorityBits) |
 80006b6:	4019      	ands	r1, r3
 80006b8:	40a1      	lsls	r1, r4
           ((SubPriority     & (uint32_t)((1UL << (SubPriorityBits    )) - 1UL)))
 80006ba:	fa05 f404 	lsl.w	r4, r5, r4
 80006be:	3c01      	subs	r4, #1
 80006c0:	4022      	ands	r2, r4
  if ((int32_t)(IRQn) >= 0)
 80006c2:	2800      	cmp	r0, #0
           ((PreemptPriority & (uint32_t)((1UL << (PreemptPriorityBits)) - 1UL)) << SubPriorityBits) |
 80006c4:	ea42 0201 	orr.w	r2, r2, r1
 80006c8:	ea4f 1202 	mov.w	r2, r2, lsl #4
    NVIC->IP[((uint32_t)IRQn)]               = (uint8_t)((priority << (8U - __NVIC_PRIO_BITS)) & (uint32_t)0xFFUL);
 80006cc:	bfad      	iteet	ge
 80006ce:	f100 4060 	addge.w	r0, r0, #3758096384	; 0xe0000000
    SCB->SHP[(((uint32_t)IRQn) & 0xFUL)-4UL] = (uint8_t)((priority << (8U - __NVIC_PRIO_BITS)) & (uint32_t)0xFFUL);
 80006d2:	f000 000f 	andlt.w	r0, r0, #15
 80006d6:	4b06      	ldrlt	r3, [pc, #24]	; (80006f0 <HAL_NVIC_SetPriority+0x64>)
    NVIC->IP[((uint32_t)IRQn)]               = (uint8_t)((priority << (8U - __NVIC_PRIO_BITS)) & (uint32_t)0xFFUL);
 80006d8:	f500 4061 	addge.w	r0, r0, #57600	; 0xe100
    SCB->SHP[(((uint32_t)IRQn) & 0xFUL)-4UL] = (uint8_t)((priority << (8U - __NVIC_PRIO_BITS)) & (uint32_t)0xFFUL);
 80006dc:	bfb5      	itete	lt
 80006de:	b2d2      	uxtblt	r2, r2
    NVIC->IP[((uint32_t)IRQn)]               = (uint8_t)((priority << (8U - __NVIC_PRIO_BITS)) & (uint32_t)0xFFUL);
 80006e0:	b2d2      	uxtbge	r2, r2
    SCB->SHP[(((uint32_t)IRQn) & 0xFUL)-4UL] = (uint8_t)((priority << (8U - __NVIC_PRIO_BITS)) & (uint32_t)0xFFUL);
 80006e2:	541a      	strblt	r2, [r3, r0]
    NVIC->IP[((uint32_t)IRQn)]               = (uint8_t)((priority << (8U - __NVIC_PRIO_BITS)) & (uint32_t)0xFFUL);
 80006e4:	f880 2300 	strbge.w	r2, [r0, #768]	; 0x300
 80006e8:	bd30      	pop	{r4, r5, pc}
 80006ea:	bf00      	nop
 80006ec:	e000ed00 	.word	0xe000ed00
 80006f0:	e000ed14 	.word	0xe000ed14

080006f4 <HAL_NVIC_EnableIRQ>:
  if ((int32_t)(IRQn) >= 0)
 80006f4:	2800      	cmp	r0, #0
 80006f6:	db08      	blt.n	800070a <HAL_NVIC_EnableIRQ+0x16>
    NVIC->ISER[(((uint32_t)IRQn) >> 5UL)] = (uint32_t)(1UL << (((uint32_t)IRQn) & 0x1FUL));
 80006f8:	0942      	lsrs	r2, r0, #5
 80006fa:	2301      	movs	r3, #1
 80006fc:	f000 001f 	and.w	r0, r0, #31
 8000700:	fa03 f000 	lsl.w	r0, r3, r0
 8000704:	4b01      	ldr	r3, [pc, #4]	; (800070c <HAL_NVIC_EnableIRQ+0x18>)
 8000706:	f843 0022 	str.w	r0, [r3, r2, lsl #2]
 800070a:	4770      	bx	lr
 800070c:	e000e100 	.word	0xe000e100

08000710 <HAL_SYSTICK_Config>:
           function <b>SysTick_Config</b> is not included. In this case, the file <b><i>device</i>.h</b>
           must contain a vendor-specific implementation of this function.
 */
__STATIC_INLINE uint32_t SysTick_Config(uint32_t ticks)
{
  if ((ticks - 1UL) > SysTick_LOAD_RELOAD_Msk)
 8000710:	3801      	subs	r0, #1
 8000712:	f1b0 7f80 	cmp.w	r0, #16777216	; 0x1000000
 8000716:	d20a      	bcs.n	800072e <HAL_SYSTICK_Config+0x1e>
  {
    return (1UL);                                                   /* Reload value impossible */
  }

  SysTick->LOAD  = (uint32_t)(ticks - 1UL);                         /* set reload register */
 8000718:	4b06      	ldr	r3, [pc, #24]	; (8000734 <HAL_SYSTICK_Config+0x24>)
    SCB->SHP[(((uint32_t)IRQn) & 0xFUL)-4UL] = (uint8_t)((priority << (8U - __NVIC_PRIO_BITS)) & (uint32_t)0xFFUL);
 800071a:	4a07      	ldr	r2, [pc, #28]	; (8000738 <HAL_SYSTICK_Config+0x28>)
  SysTick->LOAD  = (uint32_t)(ticks - 1UL);                         /* set reload register */
 800071c:	6058      	str	r0, [r3, #4]
    SCB->SHP[(((uint32_t)IRQn) & 0xFUL)-4UL] = (uint8_t)((priority << (8U - __NVIC_PRIO_BITS)) & (uint32_t)0xFFUL);
 800071e:	21f0      	movs	r1, #240	; 0xf0
 8000720:	f882 1023 	strb.w	r1, [r2, #35]	; 0x23
  NVIC_SetPriority (SysTick_IRQn, (1UL << __NVIC_PRIO_BITS) - 1UL); /* set Priority for Systick Interrupt */
  SysTick->VAL   = 0UL;                                             /* Load the SysTick Counter Value */
 8000724:	2000      	movs	r0, #0
  SysTick->CTRL  = SysTick_CTRL_CLKSOURCE_Msk |
 8000726:	2207      	movs	r2, #7
  SysTick->VAL   = 0UL;                                             /* Load the SysTick Counter Value */
 8000728:	6098      	str	r0, [r3, #8]
  SysTick->CTRL  = SysTick_CTRL_CLKSOURCE_Msk |
 800072a:	601a      	str	r2, [r3, #0]
 800072c:	4770      	bx	lr
    return (1UL);                                                   /* Reload value impossible */
 800072e:	2001      	movs	r0, #1
  *                  - 1  Function failed.
  */
uint32_t HAL_SYSTICK_Config(uint32_t TicksNumb)
{
   return SysTick_Config(TicksNumb);
}
 8000730:	4770      	bx	lr
 8000732:	bf00      	nop
 8000734:	e000e010 	.word	0xe000e010
 8000738:	e000ed00 	.word	0xe000ed00

0800073c <HAL_DCMI_Init>:
  * @note   By default, all interruptions are enabled (line end, frame end, overrun,
  *         VSYNC and embedded synchronization error interrupts).
  * @retval HAL status
  */
HAL_StatusTypeDef HAL_DCMI_Init(DCMI_HandleTypeDef *hdcmi)
{
 800073c:	b538      	push	{r3, r4, r5, lr}
  /* Check the DCMI peripheral state */
  if(hdcmi == NULL)
 800073e:	4604      	mov	r4, r0
 8000740:	2800      	cmp	r0, #0
 8000742:	d03d      	beq.n	80007c0 <HAL_DCMI_Init+0x84>
  assert_param(IS_DCMI_BYTE_SELECT_MODE(hdcmi->Init.ByteSelectMode));
  assert_param(IS_DCMI_BYTE_SELECT_START(hdcmi->Init.ByteSelectStart));
  assert_param(IS_DCMI_LINE_SELECT_MODE(hdcmi->Init.LineSelectMode));
  assert_param(IS_DCMI_LINE_SELECT_START(hdcmi->Init.LineSelectStart));

  if(hdcmi->State == HAL_DCMI_STATE_RESET)
 8000744:	f890 3035 	ldrb.w	r3, [r0, #53]	; 0x35
 8000748:	f003 02ff 	and.w	r2, r3, #255	; 0xff
 800074c:	b91b      	cbnz	r3, 8000756 <HAL_DCMI_Init+0x1a>
  {
    /* Allocate lock resource and initialize it */
    hdcmi->Lock = HAL_UNLOCKED;
 800074e:	f880 2034 	strb.w	r2, [r0, #52]	; 0x34
    }
    /* Initialize the low level hardware (MSP) */
    hdcmi->MspInitCallback(hdcmi);
#else
    /* Init the low level hardware : GPIO, CLOCK, NVIC and DMA */
    HAL_DCMI_MspInit(hdcmi);
 8000752:	f002 fd8b 	bl	800326c <HAL_DCMI_MspInit>
#endif /* (USE_HAL_DCMI_REGISTER_CALLBACKS) */
  }

  /* Change the DCMI state */
  hdcmi->State = HAL_DCMI_STATE_BUSY;
 8000756:	2302      	movs	r3, #2

  /* Disable DCMI IP before setting the configuration register */
  __HAL_DCMI_DISABLE(hdcmi);
 8000758:	6822      	ldr	r2, [r4, #0]
  hdcmi->State = HAL_DCMI_STATE_BUSY;
 800075a:	f884 3035 	strb.w	r3, [r4, #53]	; 0x35
  __HAL_DCMI_DISABLE(hdcmi);
 800075e:	6813      	ldr	r3, [r2, #0]
 8000760:	f423 4380 	bic.w	r3, r3, #16384	; 0x4000
 8000764:	6013      	str	r3, [r2, #0]

  if (hdcmi->Init.ExtendedDataMode != DCMI_EXTEND_DATA_8B)
 8000766:	69a3      	ldr	r3, [r4, #24]
 8000768:	b10b      	cbz	r3, 800076e <HAL_DCMI_Init+0x32>
  {
    /* Byte select mode must be programmed to the reset value if the extended mode
      is not set to 8-bit data capture on every pixel clock */
    hdcmi->Init.ByteSelectMode = DCMI_BSM_ALL;
 800076a:	2100      	movs	r1, #0
 800076c:	6261      	str	r1, [r4, #36]	; 0x24
  }

  /* Set DCMI parameters */
  hdcmi->Instance->CR &= ~(DCMI_CR_PCKPOL | DCMI_CR_HSPOL  | DCMI_CR_VSPOL  | DCMI_CR_EDM_0 |\
 800076e:	6810      	ldr	r0, [r2, #0]
 8000770:	4914      	ldr	r1, [pc, #80]	; (80007c4 <HAL_DCMI_Init+0x88>)
                           DCMI_CR_ESS | DCMI_CR_BSM_0 | DCMI_CR_BSM_1 | DCMI_CR_OEBS |\
                           DCMI_CR_LSM | DCMI_CR_OELS);

  hdcmi->Instance->CR |=  (uint32_t)(hdcmi->Init.SynchroMode | hdcmi->Init.CaptureRate |\
                                     hdcmi->Init.VSPolarity  | hdcmi->Init.HSPolarity  |\
                                     hdcmi->Init.PCKPolarity | hdcmi->Init.ExtendedDataMode |\
 8000772:	6965      	ldr	r5, [r4, #20]
  hdcmi->Instance->CR &= ~(DCMI_CR_PCKPOL | DCMI_CR_HSPOL  | DCMI_CR_VSPOL  | DCMI_CR_EDM_0 |\
 8000774:	4001      	ands	r1, r0
 8000776:	6011      	str	r1, [r2, #0]
  hdcmi->Instance->CR |=  (uint32_t)(hdcmi->Init.SynchroMode | hdcmi->Init.CaptureRate |\
 8000778:	6861      	ldr	r1, [r4, #4]
 800077a:	6810      	ldr	r0, [r2, #0]
                                     hdcmi->Init.PCKPolarity | hdcmi->Init.ExtendedDataMode |\
 800077c:	430b      	orrs	r3, r1
 800077e:	432b      	orrs	r3, r5
 8000780:	68e5      	ldr	r5, [r4, #12]
 8000782:	432b      	orrs	r3, r5
 8000784:	6925      	ldr	r5, [r4, #16]
 8000786:	432b      	orrs	r3, r5
 8000788:	68a5      	ldr	r5, [r4, #8]
 800078a:	432b      	orrs	r3, r5
 800078c:	6a25      	ldr	r5, [r4, #32]
 800078e:	432b      	orrs	r3, r5
                                     hdcmi->Init.JPEGMode | hdcmi->Init.ByteSelectMode |\
 8000790:	6a65      	ldr	r5, [r4, #36]	; 0x24
 8000792:	432b      	orrs	r3, r5
 8000794:	6aa5      	ldr	r5, [r4, #40]	; 0x28
 8000796:	432b      	orrs	r3, r5
                                     hdcmi->Init.ByteSelectStart | hdcmi->Init.LineSelectMode |\
 8000798:	6ae5      	ldr	r5, [r4, #44]	; 0x2c
 800079a:	432b      	orrs	r3, r5
 800079c:	6b25      	ldr	r5, [r4, #48]	; 0x30
 800079e:	432b      	orrs	r3, r5
  hdcmi->Instance->CR |=  (uint32_t)(hdcmi->Init.SynchroMode | hdcmi->Init.CaptureRate |\
 80007a0:	4303      	orrs	r3, r0
 80007a2:	6013      	str	r3, [r2, #0]
                                     hdcmi->Init.LineSelectStart);

  if(hdcmi->Init.SynchroMode == DCMI_SYNCHRO_EMBEDDED)
 80007a4:	2910      	cmp	r1, #16
  {
    hdcmi->Instance->ESCR = (((uint32_t)hdcmi->Init.SynchroCode.FrameStartCode)    |\
                             ((uint32_t)hdcmi->Init.SynchroCode.LineStartCode << DCMI_ESCR_LSC_Pos)|\
                             ((uint32_t)hdcmi->Init.SynchroCode.LineEndCode << DCMI_ESCR_LEC_Pos) |\
 80007a6:	bf04      	itt	eq
 80007a8:	69e3      	ldreq	r3, [r4, #28]
    hdcmi->Instance->ESCR = (((uint32_t)hdcmi->Init.SynchroCode.FrameStartCode)    |\
 80007aa:	6193      	streq	r3, [r2, #24]
     - end of line
     - end of frame
     - data reception overrun
     - frame synchronization signal VSYNC
     - synchronization error */
  __HAL_DCMI_ENABLE_IT(hdcmi, DCMI_IT_FRAME|DCMI_IT_OVR|DCMI_IT_ERR|DCMI_IT_VSYNC|DCMI_IT_LINE);
 80007ac:	68d3      	ldr	r3, [r2, #12]
 80007ae:	f043 031f 	orr.w	r3, r3, #31
 80007b2:	60d3      	str	r3, [r2, #12]

  /* Update error code */
  hdcmi->ErrorCode = HAL_DCMI_ERROR_NONE;
 80007b4:	2000      	movs	r0, #0

  /* Initialize the DCMI state*/
  hdcmi->State  = HAL_DCMI_STATE_READY;
 80007b6:	2301      	movs	r3, #1
  hdcmi->ErrorCode = HAL_DCMI_ERROR_NONE;
 80007b8:	64e0      	str	r0, [r4, #76]	; 0x4c
  hdcmi->State  = HAL_DCMI_STATE_READY;
 80007ba:	f884 3035 	strb.w	r3, [r4, #53]	; 0x35

  return HAL_OK;
 80007be:	bd38      	pop	{r3, r4, r5, pc}
     return HAL_ERROR;
 80007c0:	2001      	movs	r0, #1
}
 80007c2:	bd38      	pop	{r3, r4, r5, pc}
 80007c4:	ffe0f007 	.word	0xffe0f007

080007c8 <HAL_DCMI_Start_DMA>:
  *        in DCMI_DMAXferCplt callback at the end of the DMA transfer. If flag is set,
  *        HAL_DCMI_FrameEventCallback() API is called.
  * @retval HAL status
  */
HAL_StatusTypeDef HAL_DCMI_Start_DMA(DCMI_HandleTypeDef* hdcmi, uint32_t DCMI_Mode, uint32_t pData, uint32_t Length)
{
 80007c8:	e92d 4ff0 	stmdb	sp!, {r4, r5, r6, r7, r8, r9, sl, fp, lr}
 80007cc:	4604      	mov	r4, r0

  /* Check capture parameter */
  assert_param(IS_DCMI_CAPTURE_MODE(DCMI_Mode));

  /* Process Locked */
  __HAL_LOCK(hdcmi);
 80007ce:	f890 0034 	ldrb.w	r0, [r0, #52]	; 0x34
 80007d2:	2801      	cmp	r0, #1
{
 80007d4:	b0a1      	sub	sp, #132	; 0x84
 80007d6:	4692      	mov	sl, r2
 80007d8:	461f      	mov	r7, r3
 80007da:	f04f 0002 	mov.w	r0, #2
  __HAL_LOCK(hdcmi);
 80007de:	d031      	beq.n	8000844 <HAL_DCMI_Start_DMA+0x7c>

  /* Lock the DCMI peripheral state */
  hdcmi->State = HAL_DCMI_STATE_BUSY;

  /* Configure the DCMI Mode and enable the DCMI IP at the same time */
  MODIFY_REG(hdcmi->Instance->CR, (DCMI_CR_CM|DCMI_CR_ENABLE), (DCMI_Mode|DCMI_CR_ENABLE));
 80007e0:	f8d4 b000 	ldr.w	fp, [r4]
  hdcmi->State = HAL_DCMI_STATE_BUSY;
 80007e4:	f884 0035 	strb.w	r0, [r4, #53]	; 0x35
  MODIFY_REG(hdcmi->Instance->CR, (DCMI_CR_CM|DCMI_CR_ENABLE), (DCMI_Mode|DCMI_CR_ENABLE));
 80007e8:	f8db 0000 	ldr.w	r0, [fp]

  /* Set the DMA conversion complete callback */
  hdcmi->DMA_Handle->XferCpltCallback = DCMI_DMAXferCplt;
 80007ec:	f8d4 9044 	ldr.w	r9, [r4, #68]	; 0x44
  MODIFY_REG(hdcmi->Instance->CR, (DCMI_CR_CM|DCMI_CR_ENABLE), (DCMI_Mode|DCMI_CR_ENABLE));
 80007f0:	f420 4080 	bic.w	r0, r0, #16384	; 0x4000
 80007f4:	f441 4180 	orr.w	r1, r1, #16384	; 0x4000
 80007f8:	f020 0002 	bic.w	r0, r0, #2
 80007fc:	4308      	orrs	r0, r1
  __HAL_LOCK(hdcmi);
 80007fe:	f04f 0801 	mov.w	r8, #1
  hdcmi->DMA_Handle->XferCpltCallback = DCMI_DMAXferCplt;
 8000802:	494d      	ldr	r1, [pc, #308]	; (8000938 <HAL_DCMI_Start_DMA+0x170>)
  __HAL_LOCK(hdcmi);
 8000804:	f884 8034 	strb.w	r8, [r4, #52]	; 0x34

  /* Set the DMA error callback */
  hdcmi->DMA_Handle->XferErrorCallback = DCMI_DMAError;

  /* Set the dma abort callback */
  hdcmi->DMA_Handle->XferAbortCallback = NULL;
 8000808:	2500      	movs	r5, #0
  MODIFY_REG(hdcmi->Instance->CR, (DCMI_CR_CM|DCMI_CR_ENABLE), (DCMI_Mode|DCMI_CR_ENABLE));
 800080a:	f8cb 0000 	str.w	r0, [fp]

  if(Length <= 0xFFFFU)
 800080e:	f5b3 3f80 	cmp.w	r3, #65536	; 0x10000
  hdcmi->DMA_Handle->XferCpltCallback = DCMI_DMAXferCplt;
 8000812:	f8c9 102c 	str.w	r1, [r9, #44]	; 0x2c
  hdcmi->DMA_Handle->XferErrorCallback = DCMI_DMAError;
 8000816:	4949      	ldr	r1, [pc, #292]	; (800093c <HAL_DCMI_Start_DMA+0x174>)
 8000818:	f8c9 1034 	str.w	r1, [r9, #52]	; 0x34
  hdcmi->DMA_Handle->XferAbortCallback = NULL;
 800081c:	f8c9 5038 	str.w	r5, [r9, #56]	; 0x38
  if(Length <= 0xFFFFU)
 8000820:	d213      	bcs.n	800084a <HAL_DCMI_Start_DMA+0x82>
  {
    hdcmi->XferCount = 0; /* Mark as direct transfer from DCMI_DR register to final destination buffer */
 8000822:	63a5      	str	r5, [r4, #56]	; 0x38

    /* Enable the DMA channel */
    if (HAL_DMA_Start_IT(hdcmi->DMA_Handle, (uint32_t)&hdcmi->Instance->DR, (uint32_t)pData, Length) != HAL_OK)
 8000824:	f10b 0128 	add.w	r1, fp, #40	; 0x28
 8000828:	4648      	mov	r0, r9
 800082a:	f000 f9db 	bl	8000be4 <HAL_DMA_Start_IT>
 800082e:	2800      	cmp	r0, #0
 8000830:	d078      	beq.n	8000924 <HAL_DCMI_Start_DMA+0x15c>
    {
      /* Update error code */
      hdcmi->ErrorCode |= HAL_DCMI_ERROR_DMA;
 8000832:	6ce3      	ldr	r3, [r4, #76]	; 0x4c

      /* Set state back to Ready */
      hdcmi->State = HAL_DCMI_STATE_READY;

      /* Process Unlocked */
      __HAL_UNLOCK(hdcmi);
 8000834:	f884 5034 	strb.w	r5, [r4, #52]	; 0x34
      hdcmi->ErrorCode |= HAL_DCMI_ERROR_DMA;
 8000838:	f043 0340 	orr.w	r3, r3, #64	; 0x40
 800083c:	64e3      	str	r3, [r4, #76]	; 0x4c

       return HAL_ERROR;
 800083e:	4640      	mov	r0, r8
      hdcmi->State = HAL_DCMI_STATE_READY;
 8000840:	f884 8035 	strb.w	r8, [r4, #53]	; 0x35
  /* Release Lock */
  __HAL_UNLOCK(hdcmi);

  /* Return function status */
  return HAL_OK;
}
 8000844:	b021      	add	sp, #132	; 0x84
 8000846:	e8bd 8ff0 	ldmia.w	sp!, {r4, r5, r6, r7, r8, r9, sl, fp, pc}
    hdcmi->DMA_Handle->Init.Mode = DMA_CIRCULAR;
 800084a:	2320      	movs	r3, #32
 800084c:	f8c9 301c 	str.w	r3, [r9, #28]
{
  uint32_t j = 1;
  uint32_t temp = InputSize;
  uint32_t aPrime[NPRIME] = {0};
  uint32_t output = 2; /* Want a result which is an even number */
  uint32_t PrimeArray[NPRIME] = { 1UL,  2UL,  3UL,  5UL,
 8000850:	4e3b      	ldr	r6, [pc, #236]	; (8000940 <HAL_DCMI_Start_DMA+0x178>)
    hdcmi->DMA_Handle->XferHalfCpltCallback = DCMI_DMAHalfXferCplt;
 8000852:	4b3c      	ldr	r3, [pc, #240]	; (8000944 <HAL_DCMI_Start_DMA+0x17c>)
 8000854:	f8c9 3030 	str.w	r3, [r9, #48]	; 0x30
  uint32_t aPrime[NPRIME] = {0};
 8000858:	4629      	mov	r1, r5
    hdcmi->pBuffPtr = pData;   /* Final destination buffer pointer */
 800085a:	6422      	str	r2, [r4, #64]	; 0x40
    hdcmi->XferSize = Length;  /* Store the complete transfer length in DCMI handle */
 800085c:	63e7      	str	r7, [r4, #60]	; 0x3c
  uint32_t aPrime[NPRIME] = {0};
 800085e:	2240      	movs	r2, #64	; 0x40
 8000860:	4668      	mov	r0, sp
 8000862:	f002 fec7 	bl	80035f4 <memset>
  uint32_t PrimeArray[NPRIME] = { 1UL,  2UL,  3UL,  5UL,
 8000866:	ce0f      	ldmia	r6!, {r0, r1, r2, r3}
 8000868:	ad10      	add	r5, sp, #64	; 0x40
 800086a:	c50f      	stmia	r5!, {r0, r1, r2, r3}
 800086c:	ce0f      	ldmia	r6!, {r0, r1, r2, r3}
 800086e:	c50f      	stmia	r5!, {r0, r1, r2, r3}
 8000870:	ce0f      	ldmia	r6!, {r0, r1, r2, r3}
 8000872:	c50f      	stmia	r5!, {r0, r1, r2, r3}
 8000874:	e896 000f 	ldmia.w	r6, {r0, r1, r2, r3}
 8000878:	ae10      	add	r6, sp, #64	; 0x40
 800087a:	e885 000f 	stmia.w	r5, {r0, r1, r2, r3}
 800087e:	463b      	mov	r3, r7
  uint32_t j = 1;
 8000880:	4640      	mov	r0, r8

  /* Develop InputSize in product of prime numbers */

  while (j < NPRIME)
  {
    if (temp < PrimeArray[j])
 8000882:	f856 2020 	ldr.w	r2, [r6, r0, lsl #2]
 8000886:	429a      	cmp	r2, r3
 8000888:	d91d      	bls.n	80008c6 <HAL_DCMI_Start_DMA+0xfe>
    }
    j++;
  }

  /*  Search for the biggest even divisor less or equal to 0xFFFE = 65534 */
  aPrime[1] -= 1U; /* output is initialized to 2, so don't count dividor 2 twice */
 800088a:	9b01      	ldr	r3, [sp, #4]
 800088c:	3b01      	subs	r3, #1
 800088e:	9301      	str	r3, [sp, #4]
 8000890:	250f      	movs	r5, #15
  uint32_t output = 2; /* Want a result which is an even number */
 8000892:	2302      	movs	r3, #2
    j =  NPRIME-1U;
  while ((j > 0U) &&  (output <= 0xFFFEU))
  {
    while (aPrime[j] > 0U)
    {
      if ((output * PrimeArray[j]) > 0xFFFEU)
 8000894:	f64f 70fe 	movw	r0, #65534	; 0xfffe
    while (aPrime[j] > 0U)
 8000898:	f85d 2025 	ldr.w	r2, [sp, r5, lsl #2]
 800089c:	b122      	cbz	r2, 80008a8 <HAL_DCMI_Start_DMA+0xe0>
      if ((output * PrimeArray[j]) > 0xFFFEU)
 800089e:	f856 1025 	ldr.w	r1, [r6, r5, lsl #2]
 80008a2:	4359      	muls	r1, r3
 80008a4:	4281      	cmp	r1, r0
 80008a6:	d918      	bls.n	80008da <HAL_DCMI_Start_DMA+0x112>
  while ((j > 0U) &&  (output <= 0xFFFEU))
 80008a8:	3d01      	subs	r5, #1
 80008aa:	d1f5      	bne.n	8000898 <HAL_DCMI_Start_DMA+0xd0>
    if (circular_copy_length == 0U)
 80008ac:	b9d3      	cbnz	r3, 80008e4 <HAL_DCMI_Start_DMA+0x11c>
      hdcmi->State = HAL_DCMI_STATE_READY;
 80008ae:	2001      	movs	r0, #1
 80008b0:	f884 0035 	strb.w	r0, [r4, #53]	; 0x35
      __HAL_UNLOCK(hdcmi);
 80008b4:	f884 3034 	strb.w	r3, [r4, #52]	; 0x34
       return HAL_ERROR;
 80008b8:	e7c4      	b.n	8000844 <HAL_DCMI_Start_DMA+0x7c>
      aPrime[j]++;
 80008ba:	f85d 3020 	ldr.w	r3, [sp, r0, lsl #2]
 80008be:	3301      	adds	r3, #1
 80008c0:	f84d 3020 	str.w	r3, [sp, r0, lsl #2]
      temp /= PrimeArray[j];
 80008c4:	460b      	mov	r3, r1
    while ((temp % PrimeArray[j]) == 0U)
 80008c6:	fbb3 f1f2 	udiv	r1, r3, r2
 80008ca:	fb02 3511 	mls	r5, r2, r1, r3
 80008ce:	2d00      	cmp	r5, #0
 80008d0:	d0f3      	beq.n	80008ba <HAL_DCMI_Start_DMA+0xf2>
    j++;
 80008d2:	3001      	adds	r0, #1
  while (j < NPRIME)
 80008d4:	2810      	cmp	r0, #16
 80008d6:	d1d4      	bne.n	8000882 <HAL_DCMI_Start_DMA+0xba>
 80008d8:	e7d7      	b.n	800088a <HAL_DCMI_Start_DMA+0xc2>
        break;
      }
      else
      {
        output *= PrimeArray[j];
        aPrime[j]--;
 80008da:	3a01      	subs	r2, #1
 80008dc:	f84d 2025 	str.w	r2, [sp, r5, lsl #2]
 80008e0:	460b      	mov	r3, r1
 80008e2:	e7d9      	b.n	8000898 <HAL_DCMI_Start_DMA+0xd0>
    hdcmi->XferCount = 2U * ((Length / circular_copy_length) - 1U);
 80008e4:	fbb7 f7f3 	udiv	r7, r7, r3
 80008e8:	f107 4200 	add.w	r2, r7, #2147483648	; 0x80000000
 80008ec:	3a01      	subs	r2, #1
 80008ee:	0052      	lsls	r2, r2, #1
 80008f0:	63a2      	str	r2, [r4, #56]	; 0x38
    hdcmi->pCircularBuffer +=  4U * (((Length / circular_copy_length) - 1U) * circular_copy_length);
 80008f2:	f107 4780 	add.w	r7, r7, #1073741824	; 0x40000000
    hdcmi->HalfCopyLength = circular_copy_length / 2U;
 80008f6:	085a      	lsrs	r2, r3, #1
 80008f8:	6562      	str	r2, [r4, #84]	; 0x54
    hdcmi->pCircularBuffer +=  4U * (((Length / circular_copy_length) - 1U) * circular_copy_length);
 80008fa:	3f01      	subs	r7, #1
 80008fc:	009a      	lsls	r2, r3, #2
 80008fe:	fb07 a202 	mla	r2, r7, r2, sl
 8000902:	6522      	str	r2, [r4, #80]	; 0x50
    if ( HAL_DMA_Start_IT(hdcmi->DMA_Handle, (uint32_t)&hdcmi->Instance->DR, (uint32_t)hdcmi->pCircularBuffer, circular_copy_length) != HAL_OK)
 8000904:	f10b 0128 	add.w	r1, fp, #40	; 0x28
 8000908:	4648      	mov	r0, r9
 800090a:	f000 f96b 	bl	8000be4 <HAL_DMA_Start_IT>
 800090e:	b148      	cbz	r0, 8000924 <HAL_DCMI_Start_DMA+0x15c>
      hdcmi->ErrorCode |= HAL_DCMI_ERROR_DMA;
 8000910:	6ce3      	ldr	r3, [r4, #76]	; 0x4c
      __HAL_UNLOCK(hdcmi);
 8000912:	f884 5034 	strb.w	r5, [r4, #52]	; 0x34
      hdcmi->ErrorCode |= HAL_DCMI_ERROR_DMA;
 8000916:	f043 0340 	orr.w	r3, r3, #64	; 0x40
      hdcmi->State = HAL_DCMI_STATE_READY;
 800091a:	2001      	movs	r0, #1
      hdcmi->ErrorCode |= HAL_DCMI_ERROR_DMA;
 800091c:	64e3      	str	r3, [r4, #76]	; 0x4c
      hdcmi->State = HAL_DCMI_STATE_READY;
 800091e:	f884 0035 	strb.w	r0, [r4, #53]	; 0x35
       return HAL_ERROR;
 8000922:	e78f      	b.n	8000844 <HAL_DCMI_Start_DMA+0x7c>
  SET_BIT(hdcmi->Instance->CR, DCMI_CR_CAPTURE);
 8000924:	6822      	ldr	r2, [r4, #0]
 8000926:	6813      	ldr	r3, [r2, #0]
  __HAL_UNLOCK(hdcmi);
 8000928:	2000      	movs	r0, #0
  SET_BIT(hdcmi->Instance->CR, DCMI_CR_CAPTURE);
 800092a:	f043 0301 	orr.w	r3, r3, #1
 800092e:	6013      	str	r3, [r2, #0]
  __HAL_UNLOCK(hdcmi);
 8000930:	f884 0034 	strb.w	r0, [r4, #52]	; 0x34
  return HAL_OK;
 8000934:	e786      	b.n	8000844 <HAL_DCMI_Start_DMA+0x7c>
 8000936:	bf00      	nop
 8000938:	08000a19 	.word	0x08000a19
 800093c:	0800098d 	.word	0x0800098d
 8000940:	08003e54 	.word	0x08003e54
 8000944:	08000949 	.word	0x08000949

08000948 <DCMI_DMAHalfXferCplt>:
{
 8000948:	b510      	push	{r4, lr}
  DCMI_HandleTypeDef* hdcmi = ( DCMI_HandleTypeDef* )((DMA_HandleTypeDef* )hdma)->Parent;
 800094a:	6a84      	ldr	r4, [r0, #40]	; 0x28
  if(hdcmi->XferCount != 0U)
 800094c:	6ba3      	ldr	r3, [r4, #56]	; 0x38
 800094e:	b1e3      	cbz	r3, 800098a <DCMI_DMAHalfXferCplt+0x42>
    hdcmi->XferCount--;
 8000950:	6ba3      	ldr	r3, [r4, #56]	; 0x38
    tmpBuffer_Dest = (uint32_t *)hdcmi->pBuffPtr;
 8000952:	6c22      	ldr	r2, [r4, #64]	; 0x40
    if (HAL_DMA_Start_IT(hdcmi->DMAM2M_Handle, (uint32_t) tmpBuffer_Orig, (uint32_t) tmpBuffer_Dest, loop_length) != HAL_OK)
 8000954:	6ca0      	ldr	r0, [r4, #72]	; 0x48
    hdcmi->XferCount--;
 8000956:	3b01      	subs	r3, #1
 8000958:	63a3      	str	r3, [r4, #56]	; 0x38
    loop_length = hdcmi->HalfCopyLength;
 800095a:	6d63      	ldr	r3, [r4, #84]	; 0x54
    hdcmi->pBuffPtr += (uint32_t) loop_length*4U;
 800095c:	eb02 0183 	add.w	r1, r2, r3, lsl #2
 8000960:	6421      	str	r1, [r4, #64]	; 0x40
    hdcmi->XferSize -= hdcmi->HalfCopyLength;
 8000962:	6be1      	ldr	r1, [r4, #60]	; 0x3c
 8000964:	1ac9      	subs	r1, r1, r3
 8000966:	63e1      	str	r1, [r4, #60]	; 0x3c
    if (HAL_DMA_Start_IT(hdcmi->DMAM2M_Handle, (uint32_t) tmpBuffer_Orig, (uint32_t) tmpBuffer_Dest, loop_length) != HAL_OK)
 8000968:	6d21      	ldr	r1, [r4, #80]	; 0x50
 800096a:	f000 f93b 	bl	8000be4 <HAL_DMA_Start_IT>
 800096e:	b160      	cbz	r0, 800098a <DCMI_DMAHalfXferCplt+0x42>
      hdcmi->ErrorCode |= HAL_DCMI_ERROR_DMA;
 8000970:	6ce3      	ldr	r3, [r4, #76]	; 0x4c
 8000972:	f043 0340 	orr.w	r3, r3, #64	; 0x40
 8000976:	64e3      	str	r3, [r4, #76]	; 0x4c
      hdcmi->State = HAL_DCMI_STATE_READY;
 8000978:	2301      	movs	r3, #1
 800097a:	f884 3035 	strb.w	r3, [r4, #53]	; 0x35
      __HAL_UNLOCK(hdcmi);
 800097e:	2300      	movs	r3, #0
 8000980:	f884 3034 	strb.w	r3, [r4, #52]	; 0x34
      HAL_DCMI_ErrorCallback(hdcmi);
 8000984:	4620      	mov	r0, r4
 8000986:	f002 fb49 	bl	800301c <HAL_DCMI_ErrorCallback>
 800098a:	bd10      	pop	{r4, pc}

0800098c <DCMI_DMAError>:
  DCMI_HandleTypeDef* hdcmi = ( DCMI_HandleTypeDef* )((DMA_HandleTypeDef* )hdma)->Parent;
 800098c:	6a80      	ldr	r0, [r0, #40]	; 0x28
{
 800098e:	b508      	push	{r3, lr}
  hdcmi->ErrorCode |= HAL_DCMI_ERROR_DMA;
 8000990:	6cc3      	ldr	r3, [r0, #76]	; 0x4c
 8000992:	f043 0340 	orr.w	r3, r3, #64	; 0x40
 8000996:	64c3      	str	r3, [r0, #76]	; 0x4c
  hdcmi->State = HAL_DCMI_STATE_READY;
 8000998:	2301      	movs	r3, #1
 800099a:	f880 3035 	strb.w	r3, [r0, #53]	; 0x35
  HAL_DCMI_ErrorCallback(hdcmi);
 800099e:	f002 fb3d 	bl	800301c <HAL_DCMI_ErrorCallback>
 80009a2:	bd08      	pop	{r3, pc}

080009a4 <HAL_DCMI_Stop>:
  __HAL_LOCK(hdcmi);
 80009a4:	f890 3034 	ldrb.w	r3, [r0, #52]	; 0x34
 80009a8:	2b01      	cmp	r3, #1
{
 80009aa:	b570      	push	{r4, r5, r6, lr}
 80009ac:	4604      	mov	r4, r0
 80009ae:	f04f 0502 	mov.w	r5, #2
  __HAL_LOCK(hdcmi);
 80009b2:	d02e      	beq.n	8000a12 <HAL_DCMI_Stop+0x6e>
  CLEAR_BIT(hdcmi->Instance->CR, DCMI_CR_CAPTURE);
 80009b4:	6802      	ldr	r2, [r0, #0]
  hdcmi->State = HAL_DCMI_STATE_BUSY;
 80009b6:	f880 5035 	strb.w	r5, [r0, #53]	; 0x35
  __HAL_LOCK(hdcmi);
 80009ba:	2301      	movs	r3, #1
 80009bc:	f880 3034 	strb.w	r3, [r0, #52]	; 0x34
  CLEAR_BIT(hdcmi->Instance->CR, DCMI_CR_CAPTURE);
 80009c0:	6813      	ldr	r3, [r2, #0]
 80009c2:	f023 0301 	bic.w	r3, r3, #1
 80009c6:	6013      	str	r3, [r2, #0]
  tickstart = HAL_GetTick();
 80009c8:	f7ff fe34 	bl	8000634 <HAL_GetTick>
 80009cc:	4606      	mov	r6, r0
  while((hdcmi->Instance->CR & DCMI_CR_CAPTURE) != 0U)
 80009ce:	6823      	ldr	r3, [r4, #0]
 80009d0:	681d      	ldr	r5, [r3, #0]
 80009d2:	f015 0501 	ands.w	r5, r5, #1
 80009d6:	d00a      	beq.n	80009ee <HAL_DCMI_Stop+0x4a>
    if((HAL_GetTick() - tickstart ) > DCMI_TIMEOUT_STOP)
 80009d8:	f7ff fe2c 	bl	8000634 <HAL_GetTick>
 80009dc:	1b80      	subs	r0, r0, r6
 80009de:	f5b0 7f7a 	cmp.w	r0, #1000	; 0x3e8
 80009e2:	d9f4      	bls.n	80009ce <HAL_DCMI_Stop+0x2a>
      hdcmi->ErrorCode |= HAL_DCMI_ERROR_TIMEOUT;
 80009e4:	6ce3      	ldr	r3, [r4, #76]	; 0x4c
 80009e6:	f043 0320 	orr.w	r3, r3, #32
 80009ea:	64e3      	str	r3, [r4, #76]	; 0x4c
      status = HAL_TIMEOUT;
 80009ec:	2503      	movs	r5, #3
  if (HAL_DMA_Abort(hdcmi->DMA_Handle) != HAL_OK)
 80009ee:	6c60      	ldr	r0, [r4, #68]	; 0x44
 80009f0:	f000 f938 	bl	8000c64 <HAL_DMA_Abort>
 80009f4:	b110      	cbz	r0, 80009fc <HAL_DCMI_Stop+0x58>
    DCMI_DMAError(hdcmi->DMA_Handle);
 80009f6:	6c60      	ldr	r0, [r4, #68]	; 0x44
 80009f8:	f7ff ffc8 	bl	800098c <DCMI_DMAError>
  __HAL_DCMI_DISABLE(hdcmi);
 80009fc:	6822      	ldr	r2, [r4, #0]
 80009fe:	6813      	ldr	r3, [r2, #0]
 8000a00:	f423 4380 	bic.w	r3, r3, #16384	; 0x4000
 8000a04:	6013      	str	r3, [r2, #0]
  hdcmi->State = HAL_DCMI_STATE_READY;
 8000a06:	2301      	movs	r3, #1
 8000a08:	f884 3035 	strb.w	r3, [r4, #53]	; 0x35
  __HAL_UNLOCK(hdcmi);
 8000a0c:	2300      	movs	r3, #0
 8000a0e:	f884 3034 	strb.w	r3, [r4, #52]	; 0x34
}
 8000a12:	4628      	mov	r0, r5
 8000a14:	bd70      	pop	{r4, r5, r6, pc}

08000a16 <HAL_DCMI_VsyncEventCallback>:
 8000a16:	4770      	bx	lr

08000a18 <DCMI_DMAXferCplt>:
{
 8000a18:	b510      	push	{r4, lr}
  DCMI_HandleTypeDef* hdcmi = ( DCMI_HandleTypeDef* )((DMA_HandleTypeDef* )hdma)->Parent;
 8000a1a:	6a84      	ldr	r4, [r0, #40]	; 0x28
  if(hdcmi->XferCount != 0U)
 8000a1c:	6ba3      	ldr	r3, [r4, #56]	; 0x38
 8000a1e:	b1f3      	cbz	r3, 8000a5e <DCMI_DMAXferCplt+0x46>
    hdcmi->XferCount--;
 8000a20:	6ba3      	ldr	r3, [r4, #56]	; 0x38
    tmpBuffer_Dest = (uint32_t *)hdcmi->pBuffPtr;
 8000a22:	6c22      	ldr	r2, [r4, #64]	; 0x40
    temp += hdcmi->HalfCopyLength;
 8000a24:	6d21      	ldr	r1, [r4, #80]	; 0x50
    hdcmi->XferCount--;
 8000a26:	3b01      	subs	r3, #1
 8000a28:	63a3      	str	r3, [r4, #56]	; 0x38
    temp += hdcmi->HalfCopyLength;
 8000a2a:	6d63      	ldr	r3, [r4, #84]	; 0x54
    hdcmi->pBuffPtr += (uint32_t) loop_length*4U;
 8000a2c:	eb02 0083 	add.w	r0, r2, r3, lsl #2
 8000a30:	6420      	str	r0, [r4, #64]	; 0x40
    hdcmi->XferSize -= hdcmi->HalfCopyLength;
 8000a32:	6be0      	ldr	r0, [r4, #60]	; 0x3c
 8000a34:	1ac0      	subs	r0, r0, r3
 8000a36:	63e0      	str	r0, [r4, #60]	; 0x3c
    if (HAL_DMA_Start_IT(hdcmi->DMAM2M_Handle, (uint32_t) tmpBuffer_Orig, (uint32_t) tmpBuffer_Dest, loop_length) != HAL_OK)
 8000a38:	4419      	add	r1, r3
 8000a3a:	6ca0      	ldr	r0, [r4, #72]	; 0x48
 8000a3c:	f000 f8d2 	bl	8000be4 <HAL_DMA_Start_IT>
 8000a40:	b328      	cbz	r0, 8000a8e <DCMI_DMAXferCplt+0x76>
      hdcmi->ErrorCode |= HAL_DCMI_ERROR_DMA;
 8000a42:	6ce3      	ldr	r3, [r4, #76]	; 0x4c
 8000a44:	f043 0340 	orr.w	r3, r3, #64	; 0x40
 8000a48:	64e3      	str	r3, [r4, #76]	; 0x4c
      hdcmi->State = HAL_DCMI_STATE_READY;
 8000a4a:	2301      	movs	r3, #1
 8000a4c:	f884 3035 	strb.w	r3, [r4, #53]	; 0x35
      __HAL_UNLOCK(hdcmi);
 8000a50:	2300      	movs	r3, #0
 8000a52:	f884 3034 	strb.w	r3, [r4, #52]	; 0x34
      HAL_DCMI_ErrorCallback(hdcmi);
 8000a56:	4620      	mov	r0, r4
 8000a58:	f002 fae0 	bl	800301c <HAL_DCMI_ErrorCallback>
 8000a5c:	bd10      	pop	{r4, pc}
    if((hdcmi->Instance->IER & DCMI_IT_FRAME) == 0x0U)
 8000a5e:	6823      	ldr	r3, [r4, #0]
 8000a60:	68da      	ldr	r2, [r3, #12]
 8000a62:	f012 0201 	ands.w	r2, r2, #1
 8000a66:	d112      	bne.n	8000a8e <DCMI_DMAXferCplt+0x76>
      if(__HAL_DCMI_GET_FLAG(hdcmi, (uint32_t)DCMI_FLAG_FRAMERI) != 0x0UL)
 8000a68:	6899      	ldr	r1, [r3, #8]
 8000a6a:	07c8      	lsls	r0, r1, #31
 8000a6c:	d50f      	bpl.n	8000a8e <DCMI_DMAXferCplt+0x76>
        __HAL_DCMI_CLEAR_FLAG(hdcmi, DCMI_FLAG_FRAMERI);
 8000a6e:	2001      	movs	r0, #1
 8000a70:	6158      	str	r0, [r3, #20]
        if((hdcmi->Instance->CR & DCMI_CR_CM) == DCMI_MODE_SNAPSHOT)
 8000a72:	6819      	ldr	r1, [r3, #0]
 8000a74:	0789      	lsls	r1, r1, #30
 8000a76:	d507      	bpl.n	8000a88 <DCMI_DMAXferCplt+0x70>
          __HAL_DCMI_DISABLE_IT(hdcmi, DCMI_IT_LINE | DCMI_IT_VSYNC | DCMI_IT_ERR | DCMI_IT_OVR);
 8000a78:	68d9      	ldr	r1, [r3, #12]
 8000a7a:	f021 011e 	bic.w	r1, r1, #30
 8000a7e:	60d9      	str	r1, [r3, #12]
          hdcmi->State = HAL_DCMI_STATE_READY;
 8000a80:	f884 0035 	strb.w	r0, [r4, #53]	; 0x35
          __HAL_UNLOCK(hdcmi);
 8000a84:	f884 2034 	strb.w	r2, [r4, #52]	; 0x34
        HAL_DCMI_FrameEventCallback(hdcmi);
 8000a88:	4620      	mov	r0, r4
 8000a8a:	f002 fab5 	bl	8002ff8 <HAL_DCMI_FrameEventCallback>
 8000a8e:	bd10      	pop	{r4, pc}

08000a90 <HAL_DCMI_IRQHandler>:
{
 8000a90:	b538      	push	{r3, r4, r5, lr}
  uint32_t misflags = READ_REG(hdcmi->Instance->MISR);
 8000a92:	6803      	ldr	r3, [r0, #0]
 8000a94:	691d      	ldr	r5, [r3, #16]
  if ((misflags & DCMI_MIS_ERR_MIS) != 0x0U)
 8000a96:	0769      	lsls	r1, r5, #29
{
 8000a98:	4604      	mov	r4, r0
  if ((misflags & DCMI_MIS_ERR_MIS) != 0x0U)
 8000a9a:	d505      	bpl.n	8000aa8 <HAL_DCMI_IRQHandler+0x18>
    __HAL_DCMI_CLEAR_FLAG(hdcmi, DCMI_FLAG_ERRRI);
 8000a9c:	2204      	movs	r2, #4
 8000a9e:	615a      	str	r2, [r3, #20]
    hdcmi->ErrorCode |= HAL_DCMI_ERROR_SYNC;
 8000aa0:	6cc2      	ldr	r2, [r0, #76]	; 0x4c
 8000aa2:	f042 0202 	orr.w	r2, r2, #2
 8000aa6:	64c2      	str	r2, [r0, #76]	; 0x4c
  if ((misflags & DCMI_MIS_OVR_MIS) != 0x0U)
 8000aa8:	07aa      	lsls	r2, r5, #30
 8000aaa:	d505      	bpl.n	8000ab8 <HAL_DCMI_IRQHandler+0x28>
    __HAL_DCMI_CLEAR_FLAG(hdcmi, DCMI_FLAG_OVRRI);
 8000aac:	2202      	movs	r2, #2
 8000aae:	615a      	str	r2, [r3, #20]
    hdcmi->ErrorCode |= HAL_DCMI_ERROR_OVR;
 8000ab0:	6ce3      	ldr	r3, [r4, #76]	; 0x4c
 8000ab2:	f043 0301 	orr.w	r3, r3, #1
 8000ab6:	64e3      	str	r3, [r4, #76]	; 0x4c
  if (hdcmi->ErrorCode != HAL_DCMI_ERROR_NONE)
 8000ab8:	6ce3      	ldr	r3, [r4, #76]	; 0x4c
 8000aba:	b15b      	cbz	r3, 8000ad4 <HAL_DCMI_IRQHandler+0x44>
    hdcmi->State = HAL_DCMI_STATE_READY;
 8000abc:	2301      	movs	r3, #1
    hdcmi->DMA_Handle->XferAbortCallback = DCMI_DMAError;
 8000abe:	6c60      	ldr	r0, [r4, #68]	; 0x44
    hdcmi->State = HAL_DCMI_STATE_READY;
 8000ac0:	f884 3035 	strb.w	r3, [r4, #53]	; 0x35
    hdcmi->DMA_Handle->XferAbortCallback = DCMI_DMAError;
 8000ac4:	4b15      	ldr	r3, [pc, #84]	; (8000b1c <HAL_DCMI_IRQHandler+0x8c>)
 8000ac6:	6383      	str	r3, [r0, #56]	; 0x38
    if (HAL_DMA_Abort_IT(hdcmi->DMA_Handle) != HAL_OK)
 8000ac8:	f000 f8ef 	bl	8000caa <HAL_DMA_Abort_IT>
 8000acc:	b110      	cbz	r0, 8000ad4 <HAL_DCMI_IRQHandler+0x44>
      DCMI_DMAError(hdcmi->DMA_Handle);
 8000ace:	6c60      	ldr	r0, [r4, #68]	; 0x44
 8000ad0:	f7ff ff5c 	bl	800098c <DCMI_DMAError>
  if ((misflags & DCMI_MIS_LINE_MIS) != 0x0U)
 8000ad4:	06eb      	lsls	r3, r5, #27
 8000ad6:	d505      	bpl.n	8000ae4 <HAL_DCMI_IRQHandler+0x54>
    __HAL_DCMI_CLEAR_FLAG(hdcmi, DCMI_FLAG_LINERI);
 8000ad8:	6823      	ldr	r3, [r4, #0]
 8000ada:	2210      	movs	r2, #16
 8000adc:	615a      	str	r2, [r3, #20]
    HAL_DCMI_LineEventCallback(hdcmi);
 8000ade:	4620      	mov	r0, r4
 8000ae0:	f002 fa9a 	bl	8003018 <HAL_DCMI_LineEventCallback>
  if ((misflags & DCMI_MIS_VSYNC_MIS) != 0x0U)
 8000ae4:	0728      	lsls	r0, r5, #28
 8000ae6:	d505      	bpl.n	8000af4 <HAL_DCMI_IRQHandler+0x64>
    __HAL_DCMI_CLEAR_FLAG(hdcmi, DCMI_FLAG_VSYNCRI);
 8000ae8:	6823      	ldr	r3, [r4, #0]
 8000aea:	2208      	movs	r2, #8
 8000aec:	615a      	str	r2, [r3, #20]
    HAL_DCMI_VsyncEventCallback(hdcmi);
 8000aee:	4620      	mov	r0, r4
 8000af0:	f7ff ff91 	bl	8000a16 <HAL_DCMI_VsyncEventCallback>
  if ((misflags & DCMI_MIS_FRAME_MIS) != 0x0U)
 8000af4:	07e9      	lsls	r1, r5, #31
 8000af6:	d50f      	bpl.n	8000b18 <HAL_DCMI_IRQHandler+0x88>
    if ((hdcmi->Instance->CR & DCMI_CR_CM) == DCMI_MODE_SNAPSHOT)
 8000af8:	6823      	ldr	r3, [r4, #0]
 8000afa:	681a      	ldr	r2, [r3, #0]
 8000afc:	0792      	lsls	r2, r2, #30
 8000afe:	d506      	bpl.n	8000b0e <HAL_DCMI_IRQHandler+0x7e>
      __HAL_DCMI_DISABLE_IT(hdcmi, DCMI_IT_LINE|DCMI_IT_VSYNC|DCMI_IT_ERR|DCMI_IT_OVR);
 8000b00:	68da      	ldr	r2, [r3, #12]
 8000b02:	f022 021e 	bic.w	r2, r2, #30
 8000b06:	60da      	str	r2, [r3, #12]
      hdcmi->State = HAL_DCMI_STATE_READY;
 8000b08:	2201      	movs	r2, #1
 8000b0a:	f884 2035 	strb.w	r2, [r4, #53]	; 0x35
    __HAL_DCMI_CLEAR_FLAG(hdcmi, DCMI_FLAG_FRAMERI);
 8000b0e:	2201      	movs	r2, #1
 8000b10:	615a      	str	r2, [r3, #20]
    HAL_DCMI_FrameEventCallback(hdcmi);
 8000b12:	4620      	mov	r0, r4
 8000b14:	f002 fa70 	bl	8002ff8 <HAL_DCMI_FrameEventCallback>
 8000b18:	bd38      	pop	{r3, r4, r5, pc}
 8000b1a:	bf00      	nop
 8000b1c:	0800098d 	.word	0x0800098d

08000b20 <HAL_DMA_Init>:
  * @param  hdma pointer to a DMA_HandleTypeDef structure that contains
  *              the configuration information for the specified DMA Channel.
  * @retval HAL status
  */
HAL_StatusTypeDef HAL_DMA_Init(DMA_HandleTypeDef *hdma)
{
 8000b20:	b530      	push	{r4, r5, lr}
  uint32_t tmp;

  /* Check the DMA handle allocation */
  if(hdma == NULL)
 8000b22:	2800      	cmp	r0, #0
 8000b24:	d04e      	beq.n	8000bc4 <HAL_DMA_Init+0xa4>
  assert_param(IS_DMA_PRIORITY(hdma->Init.Priority));

  assert_param(IS_DMA_ALL_REQUEST(hdma->Init.Request));

  /* Compute the channel index */
  if ((uint32_t)(hdma->Instance) < (uint32_t)(DMA2_Channel1))
 8000b26:	6801      	ldr	r1, [r0, #0]
 8000b28:	4b27      	ldr	r3, [pc, #156]	; (8000bc8 <HAL_DMA_Init+0xa8>)
 8000b2a:	4299      	cmp	r1, r3
 8000b2c:	f04f 0414 	mov.w	r4, #20
 8000b30:	d840      	bhi.n	8000bb4 <HAL_DMA_Init+0x94>
  {
    /* DMA1 */
    hdma->ChannelIndex = (((uint32_t)hdma->Instance - (uint32_t)DMA1_Channel1) / ((uint32_t)DMA1_Channel2 - (uint32_t)DMA1_Channel1)) << 2U;
 8000b32:	4a26      	ldr	r2, [pc, #152]	; (8000bcc <HAL_DMA_Init+0xac>)
 8000b34:	440a      	add	r2, r1
 8000b36:	fbb2 f2f4 	udiv	r2, r2, r4
 8000b3a:	0092      	lsls	r2, r2, #2
 8000b3c:	6442      	str	r2, [r0, #68]	; 0x44
    hdma->DmaBaseAddress = DMA1;
 8000b3e:	f2a3 4307 	subw	r3, r3, #1031	; 0x407
  }
  else
  {
    /* DMA2 */
    hdma->ChannelIndex = (((uint32_t)hdma->Instance - (uint32_t)DMA2_Channel1) / ((uint32_t)DMA2_Channel2 - (uint32_t)DMA2_Channel1)) << 2U;
    hdma->DmaBaseAddress = DMA2;
 8000b42:	6403      	str	r3, [r0, #64]	; 0x40
  }

  /* Change DMA peripheral state */
  hdma->State = HAL_DMA_STATE_BUSY;
 8000b44:	2302      	movs	r3, #2
 8000b46:	f880 3025 	strb.w	r3, [r0, #37]	; 0x25
  tmp &= ((uint32_t)~(DMA_CCR_PL    | DMA_CCR_MSIZE  | DMA_CCR_PSIZE  |
                      DMA_CCR_MINC  | DMA_CCR_PINC   | DMA_CCR_CIRC   |
                      DMA_CCR_DIR   | DMA_CCR_MEM2MEM));

  /* Prepare the DMA Channel configuration */
  tmp |=  hdma->Init.Direction        |
 8000b4a:	6884      	ldr	r4, [r0, #8]
 8000b4c:	68c3      	ldr	r3, [r0, #12]
          hdma->Init.PeriphInc           | hdma->Init.MemInc           |
 8000b4e:	6905      	ldr	r5, [r0, #16]
  tmp = hdma->Instance->CCR;
 8000b50:	680a      	ldr	r2, [r1, #0]
  tmp |=  hdma->Init.Direction        |
 8000b52:	4323      	orrs	r3, r4
          hdma->Init.PeriphInc           | hdma->Init.MemInc           |
 8000b54:	432b      	orrs	r3, r5
 8000b56:	6945      	ldr	r5, [r0, #20]
 8000b58:	432b      	orrs	r3, r5
          hdma->Init.PeriphDataAlignment | hdma->Init.MemDataAlignment |
 8000b5a:	6985      	ldr	r5, [r0, #24]
 8000b5c:	432b      	orrs	r3, r5
 8000b5e:	69c5      	ldr	r5, [r0, #28]
 8000b60:	432b      	orrs	r3, r5
          hdma->Init.Mode                | hdma->Init.Priority;
 8000b62:	6a05      	ldr	r5, [r0, #32]
  tmp &= ((uint32_t)~(DMA_CCR_PL    | DMA_CCR_MSIZE  | DMA_CCR_PSIZE  |
 8000b64:	f422 42ff 	bic.w	r2, r2, #32640	; 0x7f80
 8000b68:	f022 0270 	bic.w	r2, r2, #112	; 0x70
          hdma->Init.Mode                | hdma->Init.Priority;
 8000b6c:	432b      	orrs	r3, r5
  tmp |=  hdma->Init.Direction        |
 8000b6e:	4313      	orrs	r3, r2
#endif /* DMAMUX1 */

#if !defined (DMAMUX1)

  /* Set request selection */
  if(hdma->Init.Direction != DMA_MEMORY_TO_MEMORY)
 8000b70:	f5b4 4f80 	cmp.w	r4, #16384	; 0x4000
  hdma->Instance->CCR = tmp;
 8000b74:	600b      	str	r3, [r1, #0]
  if(hdma->Init.Direction != DMA_MEMORY_TO_MEMORY)
 8000b76:	d014      	beq.n	8000ba2 <HAL_DMA_Init+0x82>
  {
    /* Write to DMA channel selection register */
    if (DMA1 == hdma->DmaBaseAddress)
 8000b78:	6c02      	ldr	r2, [r0, #64]	; 0x40
 8000b7a:	4b15      	ldr	r3, [pc, #84]	; (8000bd0 <HAL_DMA_Init+0xb0>)
 8000b7c:	429a      	cmp	r2, r3
    {
      /* Reset request selection for DMA1 Channelx */
      DMA1_CSELR->CSELR &= ~(DMA_CSELR_C1S << (hdma->ChannelIndex & 0x1cU));
 8000b7e:	bf0c      	ite	eq
 8000b80:	4914      	ldreq	r1, [pc, #80]	; (8000bd4 <HAL_DMA_Init+0xb4>)
      DMA1_CSELR->CSELR |= (uint32_t) (hdma->Init.Request << (hdma->ChannelIndex & 0x1cU));
    }
    else /* DMA2 */
    {
      /* Reset request selection for DMA2 Channelx */
      DMA2_CSELR->CSELR &= ~(DMA_CSELR_C1S << (hdma->ChannelIndex & 0x1cU));
 8000b82:	4915      	ldrne	r1, [pc, #84]	; (8000bd8 <HAL_DMA_Init+0xb8>)
 8000b84:	6c43      	ldr	r3, [r0, #68]	; 0x44
 8000b86:	680a      	ldr	r2, [r1, #0]
 8000b88:	f003 031c 	and.w	r3, r3, #28
 8000b8c:	240f      	movs	r4, #15
 8000b8e:	409c      	lsls	r4, r3
 8000b90:	ea22 0204 	bic.w	r2, r2, r4
 8000b94:	600a      	str	r2, [r1, #0]

      /* Configure request selection for DMA2 Channelx */
      DMA2_CSELR->CSELR |= (uint32_t) (hdma->Init.Request << (hdma->ChannelIndex & 0x1cU));
 8000b96:	6842      	ldr	r2, [r0, #4]
 8000b98:	680c      	ldr	r4, [r1, #0]
 8000b9a:	fa02 f303 	lsl.w	r3, r2, r3
 8000b9e:	4323      	orrs	r3, r4
 8000ba0:	600b      	str	r3, [r1, #0]
#endif /* STM32L431xx || STM32L432xx || STM32L433xx || STM32L442xx || STM32L443xx */
       /* STM32L471xx || STM32L475xx || STM32L476xx || STM32L442xx || STM32L486xx */
       /* STM32L496xx || STM32L4A6xx                                              */

  /* Initialise the error code */
  hdma->ErrorCode = HAL_DMA_ERROR_NONE;
 8000ba2:	2300      	movs	r3, #0

  /* Initialize the DMA state*/
  hdma->State = HAL_DMA_STATE_READY;
 8000ba4:	2201      	movs	r2, #1
  hdma->ErrorCode = HAL_DMA_ERROR_NONE;
 8000ba6:	63c3      	str	r3, [r0, #60]	; 0x3c

  /* Allocate lock resource and initialize it */
  hdma->Lock = HAL_UNLOCKED;
 8000ba8:	f880 3024 	strb.w	r3, [r0, #36]	; 0x24
  hdma->State = HAL_DMA_STATE_READY;
 8000bac:	f880 2025 	strb.w	r2, [r0, #37]	; 0x25

  return HAL_OK;
 8000bb0:	4618      	mov	r0, r3
 8000bb2:	bd30      	pop	{r4, r5, pc}
    hdma->ChannelIndex = (((uint32_t)hdma->Instance - (uint32_t)DMA2_Channel1) / ((uint32_t)DMA2_Channel2 - (uint32_t)DMA2_Channel1)) << 2U;
 8000bb4:	4b09      	ldr	r3, [pc, #36]	; (8000bdc <HAL_DMA_Init+0xbc>)
 8000bb6:	440b      	add	r3, r1
 8000bb8:	fbb3 f3f4 	udiv	r3, r3, r4
 8000bbc:	009b      	lsls	r3, r3, #2
 8000bbe:	6443      	str	r3, [r0, #68]	; 0x44
    hdma->DmaBaseAddress = DMA2;
 8000bc0:	4b07      	ldr	r3, [pc, #28]	; (8000be0 <HAL_DMA_Init+0xc0>)
 8000bc2:	e7be      	b.n	8000b42 <HAL_DMA_Init+0x22>
    return HAL_ERROR;
 8000bc4:	2001      	movs	r0, #1
}
 8000bc6:	bd30      	pop	{r4, r5, pc}
 8000bc8:	40020407 	.word	0x40020407
 8000bcc:	bffdfff8 	.word	0xbffdfff8
 8000bd0:	40020000 	.word	0x40020000
 8000bd4:	400200a8 	.word	0x400200a8
 8000bd8:	400204a8 	.word	0x400204a8
 8000bdc:	bffdfbf8 	.word	0xbffdfbf8
 8000be0:	40020400 	.word	0x40020400

08000be4 <HAL_DMA_Start_IT>:
  * @param  DstAddress The destination memory Buffer address
  * @param  DataLength The length of data to be transferred from source to destination
  * @retval HAL status
  */
HAL_StatusTypeDef HAL_DMA_Start_IT(DMA_HandleTypeDef *hdma, uint32_t SrcAddress, uint32_t DstAddress, uint32_t DataLength)
{
 8000be4:	b5f0      	push	{r4, r5, r6, r7, lr}

  /* Check the parameters */
  assert_param(IS_DMA_BUFFER_SIZE(DataLength));

  /* Process locked */
  __HAL_LOCK(hdma);
 8000be6:	f890 4024 	ldrb.w	r4, [r0, #36]	; 0x24
 8000bea:	2c01      	cmp	r4, #1
 8000bec:	d038      	beq.n	8000c60 <HAL_DMA_Start_IT+0x7c>

  if(HAL_DMA_STATE_READY == hdma->State)
 8000bee:	f890 5025 	ldrb.w	r5, [r0, #37]	; 0x25
  __HAL_LOCK(hdma);
 8000bf2:	2401      	movs	r4, #1
  if(HAL_DMA_STATE_READY == hdma->State)
 8000bf4:	b2ed      	uxtb	r5, r5
 8000bf6:	42a5      	cmp	r5, r4
  __HAL_LOCK(hdma);
 8000bf8:	f880 4024 	strb.w	r4, [r0, #36]	; 0x24
 8000bfc:	f04f 0600 	mov.w	r6, #0
 8000c00:	f04f 0402 	mov.w	r4, #2
  if(HAL_DMA_STATE_READY == hdma->State)
 8000c04:	d12a      	bne.n	8000c5c <HAL_DMA_Start_IT+0x78>
  {
    /* Change DMA peripheral state */
    hdma->State = HAL_DMA_STATE_BUSY;
 8000c06:	f880 4025 	strb.w	r4, [r0, #37]	; 0x25
    hdma->ErrorCode = HAL_DMA_ERROR_NONE;

    /* Disable the peripheral */
    __HAL_DMA_DISABLE(hdma);
 8000c0a:	6804      	ldr	r4, [r0, #0]
    hdma->ErrorCode = HAL_DMA_ERROR_NONE;
 8000c0c:	63c6      	str	r6, [r0, #60]	; 0x3c
    __HAL_DMA_DISABLE(hdma);
 8000c0e:	6826      	ldr	r6, [r4, #0]
    hdma->DMAmuxRequestGenStatus->RGCFR = hdma->DMAmuxRequestGenStatusMask;
  }
#endif

  /* Clear all flags */
  hdma->DmaBaseAddress->IFCR = (DMA_ISR_GIF1 << (hdma->ChannelIndex & 0x1CU));
 8000c10:	6c07      	ldr	r7, [r0, #64]	; 0x40
    __HAL_DMA_DISABLE(hdma);
 8000c12:	f026 0601 	bic.w	r6, r6, #1
 8000c16:	6026      	str	r6, [r4, #0]
  hdma->DmaBaseAddress->IFCR = (DMA_ISR_GIF1 << (hdma->ChannelIndex & 0x1CU));
 8000c18:	6c46      	ldr	r6, [r0, #68]	; 0x44
 8000c1a:	f006 061c 	and.w	r6, r6, #28
 8000c1e:	40b5      	lsls	r5, r6
 8000c20:	607d      	str	r5, [r7, #4]

  /* Configure DMA Channel data length */
  hdma->Instance->CNDTR = DataLength;
 8000c22:	6063      	str	r3, [r4, #4]

  /* Memory to Peripheral */
  if((hdma->Init.Direction) == DMA_MEMORY_TO_PERIPH)
 8000c24:	6883      	ldr	r3, [r0, #8]
 8000c26:	6805      	ldr	r5, [r0, #0]
 8000c28:	2b10      	cmp	r3, #16
    if(NULL != hdma->XferHalfCpltCallback )
 8000c2a:	6b03      	ldr	r3, [r0, #48]	; 0x30
  {
    /* Configure DMA Channel destination address */
    hdma->Instance->CPAR = DstAddress;
 8000c2c:	bf0b      	itete	eq
 8000c2e:	60a2      	streq	r2, [r4, #8]
  }
  /* Peripheral to Memory */
  else
  {
    /* Configure DMA Channel source address */
    hdma->Instance->CPAR = SrcAddress;
 8000c30:	60a1      	strne	r1, [r4, #8]
    hdma->Instance->CMAR = SrcAddress;
 8000c32:	60e1      	streq	r1, [r4, #12]

    /* Configure DMA Channel destination address */
    hdma->Instance->CMAR = DstAddress;
 8000c34:	60e2      	strne	r2, [r4, #12]
    if(NULL != hdma->XferHalfCpltCallback )
 8000c36:	b14b      	cbz	r3, 8000c4c <HAL_DMA_Start_IT+0x68>
      __HAL_DMA_ENABLE_IT(hdma, (DMA_IT_TC | DMA_IT_HT | DMA_IT_TE));
 8000c38:	6823      	ldr	r3, [r4, #0]
 8000c3a:	f043 030e 	orr.w	r3, r3, #14
      __HAL_DMA_ENABLE_IT(hdma, (DMA_IT_TC | DMA_IT_TE));
 8000c3e:	6023      	str	r3, [r4, #0]
    __HAL_DMA_ENABLE(hdma);
 8000c40:	682b      	ldr	r3, [r5, #0]
 8000c42:	f043 0301 	orr.w	r3, r3, #1
 8000c46:	602b      	str	r3, [r5, #0]
  HAL_StatusTypeDef status = HAL_OK;
 8000c48:	2000      	movs	r0, #0
 8000c4a:	bdf0      	pop	{r4, r5, r6, r7, pc}
      __HAL_DMA_DISABLE_IT(hdma, DMA_IT_HT);
 8000c4c:	6823      	ldr	r3, [r4, #0]
 8000c4e:	f023 0304 	bic.w	r3, r3, #4
 8000c52:	6023      	str	r3, [r4, #0]
      __HAL_DMA_ENABLE_IT(hdma, (DMA_IT_TC | DMA_IT_TE));
 8000c54:	6823      	ldr	r3, [r4, #0]
 8000c56:	f043 030a 	orr.w	r3, r3, #10
 8000c5a:	e7f0      	b.n	8000c3e <HAL_DMA_Start_IT+0x5a>
    __HAL_UNLOCK(hdma);
 8000c5c:	f880 6024 	strb.w	r6, [r0, #36]	; 0x24
  __HAL_LOCK(hdma);
 8000c60:	2002      	movs	r0, #2
}
 8000c62:	bdf0      	pop	{r4, r5, r6, r7, pc}

08000c64 <HAL_DMA_Abort>:
  if(hdma->State != HAL_DMA_STATE_BUSY)
 8000c64:	f890 3025 	ldrb.w	r3, [r0, #37]	; 0x25
 8000c68:	2b02      	cmp	r3, #2
 8000c6a:	d006      	beq.n	8000c7a <HAL_DMA_Abort+0x16>
    hdma->ErrorCode = HAL_DMA_ERROR_NO_XFER;
 8000c6c:	2304      	movs	r3, #4
 8000c6e:	63c3      	str	r3, [r0, #60]	; 0x3c
    __HAL_UNLOCK(hdma);
 8000c70:	2300      	movs	r3, #0
 8000c72:	f880 3024 	strb.w	r3, [r0, #36]	; 0x24
    return HAL_ERROR;
 8000c76:	2001      	movs	r0, #1
 8000c78:	4770      	bx	lr
    __HAL_DMA_DISABLE_IT(hdma, (DMA_IT_TC | DMA_IT_HT | DMA_IT_TE));
 8000c7a:	6803      	ldr	r3, [r0, #0]
    hdma->DmaBaseAddress->IFCR = (DMA_ISR_GIF1 << (hdma->ChannelIndex & 0x1CU));
 8000c7c:	6c01      	ldr	r1, [r0, #64]	; 0x40
    __HAL_DMA_DISABLE_IT(hdma, (DMA_IT_TC | DMA_IT_HT | DMA_IT_TE));
 8000c7e:	681a      	ldr	r2, [r3, #0]
 8000c80:	f022 020e 	bic.w	r2, r2, #14
 8000c84:	601a      	str	r2, [r3, #0]
    __HAL_DMA_DISABLE(hdma);
 8000c86:	681a      	ldr	r2, [r3, #0]
 8000c88:	f022 0201 	bic.w	r2, r2, #1
 8000c8c:	601a      	str	r2, [r3, #0]
    hdma->DmaBaseAddress->IFCR = (DMA_ISR_GIF1 << (hdma->ChannelIndex & 0x1CU));
 8000c8e:	6c43      	ldr	r3, [r0, #68]	; 0x44
 8000c90:	2201      	movs	r2, #1
 8000c92:	f003 031c 	and.w	r3, r3, #28
 8000c96:	fa02 f303 	lsl.w	r3, r2, r3
 8000c9a:	604b      	str	r3, [r1, #4]
    __HAL_UNLOCK(hdma);
 8000c9c:	2300      	movs	r3, #0
    hdma->State = HAL_DMA_STATE_READY;
 8000c9e:	f880 2025 	strb.w	r2, [r0, #37]	; 0x25
    __HAL_UNLOCK(hdma);
 8000ca2:	f880 3024 	strb.w	r3, [r0, #36]	; 0x24
    return status;
 8000ca6:	4618      	mov	r0, r3
}
 8000ca8:	4770      	bx	lr

08000caa <HAL_DMA_Abort_IT>:
  if(HAL_DMA_STATE_BUSY != hdma->State)
 8000caa:	f890 2025 	ldrb.w	r2, [r0, #37]	; 0x25
 8000cae:	2a02      	cmp	r2, #2
{
 8000cb0:	b510      	push	{r4, lr}
  if(HAL_DMA_STATE_BUSY != hdma->State)
 8000cb2:	d003      	beq.n	8000cbc <HAL_DMA_Abort_IT+0x12>
    hdma->ErrorCode = HAL_DMA_ERROR_NO_XFER;
 8000cb4:	2204      	movs	r2, #4
 8000cb6:	63c2      	str	r2, [r0, #60]	; 0x3c
    status = HAL_ERROR;
 8000cb8:	2001      	movs	r0, #1
 8000cba:	bd10      	pop	{r4, pc}
    __HAL_DMA_DISABLE_IT(hdma, (DMA_IT_TC | DMA_IT_HT | DMA_IT_TE));
 8000cbc:	6802      	ldr	r2, [r0, #0]
    hdma->DmaBaseAddress->IFCR = (DMA_ISR_GIF1 << (hdma->ChannelIndex & 0x1CU));
 8000cbe:	6c04      	ldr	r4, [r0, #64]	; 0x40
    __HAL_DMA_DISABLE_IT(hdma, (DMA_IT_TC | DMA_IT_HT | DMA_IT_TE));
 8000cc0:	6811      	ldr	r1, [r2, #0]
    if(hdma->XferAbortCallback != NULL)
 8000cc2:	6b83      	ldr	r3, [r0, #56]	; 0x38
    __HAL_DMA_DISABLE_IT(hdma, (DMA_IT_TC | DMA_IT_HT | DMA_IT_TE));
 8000cc4:	f021 010e 	bic.w	r1, r1, #14
 8000cc8:	6011      	str	r1, [r2, #0]
    __HAL_DMA_DISABLE(hdma);
 8000cca:	6811      	ldr	r1, [r2, #0]
 8000ccc:	f021 0101 	bic.w	r1, r1, #1
 8000cd0:	6011      	str	r1, [r2, #0]
    hdma->DmaBaseAddress->IFCR = (DMA_ISR_GIF1 << (hdma->ChannelIndex & 0x1CU));
 8000cd2:	6c42      	ldr	r2, [r0, #68]	; 0x44
 8000cd4:	2101      	movs	r1, #1
 8000cd6:	f002 021c 	and.w	r2, r2, #28
 8000cda:	fa01 f202 	lsl.w	r2, r1, r2
 8000cde:	6062      	str	r2, [r4, #4]
    __HAL_UNLOCK(hdma);
 8000ce0:	2400      	movs	r4, #0
    hdma->State = HAL_DMA_STATE_READY;
 8000ce2:	f880 1025 	strb.w	r1, [r0, #37]	; 0x25
    __HAL_UNLOCK(hdma);
 8000ce6:	f880 4024 	strb.w	r4, [r0, #36]	; 0x24
    if(hdma->XferAbortCallback != NULL)
 8000cea:	b113      	cbz	r3, 8000cf2 <HAL_DMA_Abort_IT+0x48>
      hdma->XferAbortCallback(hdma);
 8000cec:	4798      	blx	r3
  HAL_StatusTypeDef status = HAL_OK;
 8000cee:	4620      	mov	r0, r4
 8000cf0:	bd10      	pop	{r4, pc}
 8000cf2:	4618      	mov	r0, r3
}
 8000cf4:	bd10      	pop	{r4, pc}

08000cf6 <HAL_DMA_IRQHandler>:
  uint32_t flag_it = hdma->DmaBaseAddress->ISR;
 8000cf6:	6c01      	ldr	r1, [r0, #64]	; 0x40
  if (((flag_it & (DMA_FLAG_HT1 << (hdma->ChannelIndex & 0x1CU))) != 0U) && ((source_it & DMA_IT_HT) != 0U))
 8000cf8:	6c42      	ldr	r2, [r0, #68]	; 0x44
  uint32_t source_it = hdma->Instance->CCR;
 8000cfa:	6803      	ldr	r3, [r0, #0]
{
 8000cfc:	b470      	push	{r4, r5, r6}
  if (((flag_it & (DMA_FLAG_HT1 << (hdma->ChannelIndex & 0x1CU))) != 0U) && ((source_it & DMA_IT_HT) != 0U))
 8000cfe:	f002 021c 	and.w	r2, r2, #28
  uint32_t flag_it = hdma->DmaBaseAddress->ISR;
 8000d02:	680e      	ldr	r6, [r1, #0]
  uint32_t source_it = hdma->Instance->CCR;
 8000d04:	681d      	ldr	r5, [r3, #0]
  if (((flag_it & (DMA_FLAG_HT1 << (hdma->ChannelIndex & 0x1CU))) != 0U) && ((source_it & DMA_IT_HT) != 0U))
 8000d06:	2404      	movs	r4, #4
 8000d08:	4094      	lsls	r4, r2
 8000d0a:	4226      	tst	r6, r4
 8000d0c:	d00e      	beq.n	8000d2c <HAL_DMA_IRQHandler+0x36>
 8000d0e:	f015 0f04 	tst.w	r5, #4
 8000d12:	d00b      	beq.n	8000d2c <HAL_DMA_IRQHandler+0x36>
      if((hdma->Instance->CCR & DMA_CCR_CIRC) == 0U)
 8000d14:	681a      	ldr	r2, [r3, #0]
 8000d16:	0692      	lsls	r2, r2, #26
        __HAL_DMA_DISABLE_IT(hdma, DMA_IT_HT);
 8000d18:	bf5e      	ittt	pl
 8000d1a:	681a      	ldrpl	r2, [r3, #0]
 8000d1c:	f022 0204 	bicpl.w	r2, r2, #4
 8000d20:	601a      	strpl	r2, [r3, #0]
      if(hdma->XferHalfCpltCallback != NULL)
 8000d22:	6b03      	ldr	r3, [r0, #48]	; 0x30
      hdma->DmaBaseAddress->IFCR = DMA_ISR_HTIF1 << (hdma->ChannelIndex & 0x1CU);
 8000d24:	604c      	str	r4, [r1, #4]
    if (hdma->XferErrorCallback != NULL)
 8000d26:	b373      	cbz	r3, 8000d86 <HAL_DMA_IRQHandler+0x90>
}
 8000d28:	bc70      	pop	{r4, r5, r6}
      hdma->XferErrorCallback(hdma);
 8000d2a:	4718      	bx	r3
  else if (((flag_it & (DMA_FLAG_TC1 << (hdma->ChannelIndex & 0x1CU))) != 0U) && ((source_it & DMA_IT_TC) != 0U))
 8000d2c:	2402      	movs	r4, #2
 8000d2e:	4094      	lsls	r4, r2
 8000d30:	4226      	tst	r6, r4
 8000d32:	d012      	beq.n	8000d5a <HAL_DMA_IRQHandler+0x64>
 8000d34:	f015 0f02 	tst.w	r5, #2
 8000d38:	d00f      	beq.n	8000d5a <HAL_DMA_IRQHandler+0x64>
    if((hdma->Instance->CCR & DMA_CCR_CIRC) == 0U)
 8000d3a:	681a      	ldr	r2, [r3, #0]
 8000d3c:	0695      	lsls	r5, r2, #26
 8000d3e:	d406      	bmi.n	8000d4e <HAL_DMA_IRQHandler+0x58>
      __HAL_DMA_DISABLE_IT(hdma, DMA_IT_TE | DMA_IT_TC);
 8000d40:	681a      	ldr	r2, [r3, #0]
 8000d42:	f022 020a 	bic.w	r2, r2, #10
 8000d46:	601a      	str	r2, [r3, #0]
      hdma->State = HAL_DMA_STATE_READY;
 8000d48:	2301      	movs	r3, #1
 8000d4a:	f880 3025 	strb.w	r3, [r0, #37]	; 0x25
    __HAL_UNLOCK(hdma);
 8000d4e:	2300      	movs	r3, #0
    hdma->DmaBaseAddress->IFCR = (DMA_ISR_TCIF1 << (hdma->ChannelIndex & 0x1CU));
 8000d50:	604c      	str	r4, [r1, #4]
    __HAL_UNLOCK(hdma);
 8000d52:	f880 3024 	strb.w	r3, [r0, #36]	; 0x24
    if(hdma->XferCpltCallback != NULL)
 8000d56:	6ac3      	ldr	r3, [r0, #44]	; 0x2c
 8000d58:	e7e5      	b.n	8000d26 <HAL_DMA_IRQHandler+0x30>
  else if (((flag_it & (DMA_FLAG_TE1 << (hdma->ChannelIndex & 0x1CU))) != 0U) && ((source_it & DMA_IT_TE) !=  0U))
 8000d5a:	2408      	movs	r4, #8
 8000d5c:	4094      	lsls	r4, r2
 8000d5e:	4234      	tst	r4, r6
 8000d60:	d011      	beq.n	8000d86 <HAL_DMA_IRQHandler+0x90>
 8000d62:	072c      	lsls	r4, r5, #28
 8000d64:	d50f      	bpl.n	8000d86 <HAL_DMA_IRQHandler+0x90>
    __HAL_DMA_DISABLE_IT(hdma, (DMA_IT_TC | DMA_IT_HT | DMA_IT_TE));
 8000d66:	681c      	ldr	r4, [r3, #0]
 8000d68:	f024 040e 	bic.w	r4, r4, #14
 8000d6c:	601c      	str	r4, [r3, #0]
    hdma->DmaBaseAddress->IFCR = (DMA_ISR_GIF1 << (hdma->ChannelIndex & 0x1CU));
 8000d6e:	2301      	movs	r3, #1
 8000d70:	fa03 f202 	lsl.w	r2, r3, r2
 8000d74:	604a      	str	r2, [r1, #4]
    hdma->ErrorCode = HAL_DMA_ERROR_TE;
 8000d76:	63c3      	str	r3, [r0, #60]	; 0x3c
    hdma->State = HAL_DMA_STATE_READY;
 8000d78:	f880 3025 	strb.w	r3, [r0, #37]	; 0x25
    __HAL_UNLOCK(hdma);
 8000d7c:	2300      	movs	r3, #0
 8000d7e:	f880 3024 	strb.w	r3, [r0, #36]	; 0x24
    if (hdma->XferErrorCallback != NULL)
 8000d82:	6b43      	ldr	r3, [r0, #52]	; 0x34
 8000d84:	e7cf      	b.n	8000d26 <HAL_DMA_IRQHandler+0x30>
}
 8000d86:	bc70      	pop	{r4, r5, r6}
 8000d88:	4770      	bx	lr
	...

08000d8c <HAL_GPIO_Init>:
  * @param  GPIO_Init pointer to a GPIO_InitTypeDef structure that contains
  *         the configuration information for the specified GPIO peripheral.
  * @retval None
  */
void HAL_GPIO_Init(GPIO_TypeDef  *GPIOx, GPIO_InitTypeDef *GPIO_Init)
{
 8000d8c:	e92d 4ff7 	stmdb	sp!, {r0, r1, r2, r4, r5, r6, r7, r8, r9, sl, fp, lr}
  assert_param(IS_GPIO_PIN(GPIO_Init->Pin));
  assert_param(IS_GPIO_MODE(GPIO_Init->Mode));
  assert_param(IS_GPIO_PULL(GPIO_Init->Pull));

  /* Configure the port pins */
  while (((GPIO_Init->Pin) >> position) != 0x00u)
 8000d90:	f8d1 8000 	ldr.w	r8, [r1]
      /*--------------------- EXTI Mode Configuration ------------------------*/
      /* Configure the External Interrupt or event for the current IO */
      if((GPIO_Init->Mode & EXTI_MODE) == EXTI_MODE)
      {
        /* Enable SYSCFG Clock */
        __HAL_RCC_SYSCFG_CLK_ENABLE();
 8000d94:	f8df 91a4 	ldr.w	r9, [pc, #420]	; 8000f3c <HAL_GPIO_Init+0x1b0>
        temp &= ~(0x0FuL << (4u * (position & 0x03u)));
        temp |= (GPIO_GET_INDEX(GPIOx) << (4u * (position & 0x03u)));
        SYSCFG->EXTICR[position >> 2u] = temp;

        /* Clear EXTI line configuration */
        temp = EXTI->IMR1;
 8000d98:	4a66      	ldr	r2, [pc, #408]	; (8000f34 <HAL_GPIO_Init+0x1a8>)
  uint32_t position = 0x00u;
 8000d9a:	2300      	movs	r3, #0
  while (((GPIO_Init->Pin) >> position) != 0x00u)
 8000d9c:	fa38 f403 	lsrs.w	r4, r8, r3
 8000da0:	d102      	bne.n	8000da8 <HAL_GPIO_Init+0x1c>
      }
    }

    position++;
  }
}
 8000da2:	b003      	add	sp, #12
 8000da4:	e8bd 8ff0 	ldmia.w	sp!, {r4, r5, r6, r7, r8, r9, sl, fp, pc}
    iocurrent = (GPIO_Init->Pin) & (1uL << position);
 8000da8:	2701      	movs	r7, #1
 8000daa:	409f      	lsls	r7, r3
    if (iocurrent != 0x00u)
 8000dac:	ea18 0607 	ands.w	r6, r8, r7
 8000db0:	f000 80b0 	beq.w	8000f14 <HAL_GPIO_Init+0x188>
      if((GPIO_Init->Mode == GPIO_MODE_OUTPUT_PP) || (GPIO_Init->Mode == GPIO_MODE_AF_PP) ||
 8000db4:	684c      	ldr	r4, [r1, #4]
 8000db6:	f024 0c10 	bic.w	ip, r4, #16
 8000dba:	f10c 35ff 	add.w	r5, ip, #4294967295
 8000dbe:	2d01      	cmp	r5, #1
 8000dc0:	ea4f 0e43 	mov.w	lr, r3, lsl #1
 8000dc4:	d815      	bhi.n	8000df2 <HAL_GPIO_Init+0x66>
        temp = GPIOx->OSPEEDR;
 8000dc6:	f8d0 b008 	ldr.w	fp, [r0, #8]
        temp &= ~(GPIO_OSPEEDR_OSPEED0 << (position * 2u));
 8000dca:	f04f 0a03 	mov.w	sl, #3
 8000dce:	fa0a f50e 	lsl.w	r5, sl, lr
 8000dd2:	ea2b 0a05 	bic.w	sl, fp, r5
        temp |= (GPIO_Init->Speed << (position * 2u));
 8000dd6:	68cd      	ldr	r5, [r1, #12]
 8000dd8:	fa05 f50e 	lsl.w	r5, r5, lr
 8000ddc:	ea45 050a 	orr.w	r5, r5, sl
        GPIOx->OSPEEDR = temp;
 8000de0:	6085      	str	r5, [r0, #8]
        temp = GPIOx->OTYPER;
 8000de2:	6845      	ldr	r5, [r0, #4]
        temp &= ~(GPIO_OTYPER_OT0 << position) ;
 8000de4:	ea25 0707 	bic.w	r7, r5, r7
        temp |= (((GPIO_Init->Mode & GPIO_OUTPUT_TYPE) >> 4u) << position);
 8000de8:	f3c4 1500 	ubfx	r5, r4, #4, #1
 8000dec:	409d      	lsls	r5, r3
 8000dee:	432f      	orrs	r7, r5
        GPIOx->OTYPER = temp;
 8000df0:	6047      	str	r7, [r0, #4]
      temp &= ~(GPIO_PUPDR_PUPD0 << (position * 2u));
 8000df2:	2503      	movs	r5, #3
      temp = GPIOx->PUPDR;
 8000df4:	68c7      	ldr	r7, [r0, #12]
      temp &= ~(GPIO_PUPDR_PUPD0 << (position * 2u));
 8000df6:	fa05 f50e 	lsl.w	r5, r5, lr
 8000dfa:	43ed      	mvns	r5, r5
 8000dfc:	ea07 0a05 	and.w	sl, r7, r5
      temp |= ((GPIO_Init->Pull) << (position * 2u));
 8000e00:	688f      	ldr	r7, [r1, #8]
 8000e02:	fa07 f70e 	lsl.w	r7, r7, lr
 8000e06:	ea47 070a 	orr.w	r7, r7, sl
      if((GPIO_Init->Mode == GPIO_MODE_AF_PP) || (GPIO_Init->Mode == GPIO_MODE_AF_OD))
 8000e0a:	f1bc 0f02 	cmp.w	ip, #2
      GPIOx->PUPDR = temp;
 8000e0e:	60c7      	str	r7, [r0, #12]
      if((GPIO_Init->Mode == GPIO_MODE_AF_PP) || (GPIO_Init->Mode == GPIO_MODE_AF_OD))
 8000e10:	d116      	bne.n	8000e40 <HAL_GPIO_Init+0xb4>
        temp = GPIOx->AFR[position >> 3u];
 8000e12:	ea4f 0ad3 	mov.w	sl, r3, lsr #3
 8000e16:	eb00 0a8a 	add.w	sl, r0, sl, lsl #2
        temp &= ~(0xFu << ((position & 0x07u) * 4u));
 8000e1a:	f003 0b07 	and.w	fp, r3, #7
        temp = GPIOx->AFR[position >> 3u];
 8000e1e:	f8da 7020 	ldr.w	r7, [sl, #32]
        temp &= ~(0xFu << ((position & 0x07u) * 4u));
 8000e22:	ea4f 0b8b 	mov.w	fp, fp, lsl #2
 8000e26:	f04f 0c0f 	mov.w	ip, #15
 8000e2a:	fa0c fc0b 	lsl.w	ip, ip, fp
 8000e2e:	ea27 0c0c 	bic.w	ip, r7, ip
        temp |= ((GPIO_Init->Alternate) << ((position & 0x07u) * 4u));
 8000e32:	690f      	ldr	r7, [r1, #16]
 8000e34:	fa07 f70b 	lsl.w	r7, r7, fp
 8000e38:	ea47 070c 	orr.w	r7, r7, ip
        GPIOx->AFR[position >> 3u] = temp;
 8000e3c:	f8ca 7020 	str.w	r7, [sl, #32]
      temp = GPIOx->MODER;
 8000e40:	6807      	ldr	r7, [r0, #0]
      temp &= ~(GPIO_MODER_MODE0 << (position * 2u));
 8000e42:	403d      	ands	r5, r7
      temp |= ((GPIO_Init->Mode & GPIO_MODE) << (position * 2u));
 8000e44:	f004 0703 	and.w	r7, r4, #3
 8000e48:	fa07 fe0e 	lsl.w	lr, r7, lr
 8000e4c:	ea4e 0505 	orr.w	r5, lr, r5
      GPIOx->MODER = temp;
 8000e50:	6005      	str	r5, [r0, #0]
      if((GPIO_Init->Mode & EXTI_MODE) == EXTI_MODE)
 8000e52:	00e5      	lsls	r5, r4, #3
 8000e54:	d55e      	bpl.n	8000f14 <HAL_GPIO_Init+0x188>
        __HAL_RCC_SYSCFG_CLK_ENABLE();
 8000e56:	f8d9 5060 	ldr.w	r5, [r9, #96]	; 0x60
 8000e5a:	f045 0501 	orr.w	r5, r5, #1
 8000e5e:	f8c9 5060 	str.w	r5, [r9, #96]	; 0x60
 8000e62:	f8d9 5060 	ldr.w	r5, [r9, #96]	; 0x60
 8000e66:	f023 0703 	bic.w	r7, r3, #3
 8000e6a:	f107 4780 	add.w	r7, r7, #1073741824	; 0x40000000
 8000e6e:	f005 0501 	and.w	r5, r5, #1
 8000e72:	f507 3780 	add.w	r7, r7, #65536	; 0x10000
 8000e76:	9501      	str	r5, [sp, #4]
        temp &= ~(0x0FuL << (4u * (position & 0x03u)));
 8000e78:	f003 0e03 	and.w	lr, r3, #3
        __HAL_RCC_SYSCFG_CLK_ENABLE();
 8000e7c:	9d01      	ldr	r5, [sp, #4]
        temp = SYSCFG->EXTICR[position >> 2u];
 8000e7e:	f8d7 a008 	ldr.w	sl, [r7, #8]
        temp &= ~(0x0FuL << (4u * (position & 0x03u)));
 8000e82:	f04f 0c0f 	mov.w	ip, #15
 8000e86:	ea4f 0e8e 	mov.w	lr, lr, lsl #2
 8000e8a:	fa0c f50e 	lsl.w	r5, ip, lr
        temp |= (GPIO_GET_INDEX(GPIOx) << (4u * (position & 0x03u)));
 8000e8e:	f1b0 4f90 	cmp.w	r0, #1207959552	; 0x48000000
        temp &= ~(0x0FuL << (4u * (position & 0x03u)));
 8000e92:	ea2a 0c05 	bic.w	ip, sl, r5
        temp |= (GPIO_GET_INDEX(GPIOx) << (4u * (position & 0x03u)));
 8000e96:	d03f      	beq.n	8000f18 <HAL_GPIO_Init+0x18c>
 8000e98:	4d27      	ldr	r5, [pc, #156]	; (8000f38 <HAL_GPIO_Init+0x1ac>)
 8000e9a:	42a8      	cmp	r0, r5
 8000e9c:	d03e      	beq.n	8000f1c <HAL_GPIO_Init+0x190>
 8000e9e:	f505 6580 	add.w	r5, r5, #1024	; 0x400
 8000ea2:	42a8      	cmp	r0, r5
 8000ea4:	d03c      	beq.n	8000f20 <HAL_GPIO_Init+0x194>
 8000ea6:	f505 6580 	add.w	r5, r5, #1024	; 0x400
 8000eaa:	42a8      	cmp	r0, r5
 8000eac:	d03a      	beq.n	8000f24 <HAL_GPIO_Init+0x198>
 8000eae:	f505 6580 	add.w	r5, r5, #1024	; 0x400
 8000eb2:	42a8      	cmp	r0, r5
 8000eb4:	d038      	beq.n	8000f28 <HAL_GPIO_Init+0x19c>
 8000eb6:	f505 6580 	add.w	r5, r5, #1024	; 0x400
 8000eba:	42a8      	cmp	r0, r5
 8000ebc:	d036      	beq.n	8000f2c <HAL_GPIO_Init+0x1a0>
 8000ebe:	f505 6580 	add.w	r5, r5, #1024	; 0x400
 8000ec2:	42a8      	cmp	r0, r5
 8000ec4:	d034      	beq.n	8000f30 <HAL_GPIO_Init+0x1a4>
 8000ec6:	f505 6580 	add.w	r5, r5, #1024	; 0x400
 8000eca:	42a8      	cmp	r0, r5
 8000ecc:	bf14      	ite	ne
 8000ece:	2508      	movne	r5, #8
 8000ed0:	2507      	moveq	r5, #7
 8000ed2:	fa05 f50e 	lsl.w	r5, r5, lr
 8000ed6:	ea45 050c 	orr.w	r5, r5, ip
        SYSCFG->EXTICR[position >> 2u] = temp;
 8000eda:	60bd      	str	r5, [r7, #8]
        temp = EXTI->IMR1;
 8000edc:	6815      	ldr	r5, [r2, #0]
        temp &= ~(iocurrent);
 8000ede:	43f7      	mvns	r7, r6
        if((GPIO_Init->Mode & GPIO_MODE_IT) == GPIO_MODE_IT)
 8000ee0:	f414 3f80 	tst.w	r4, #65536	; 0x10000
        temp &= ~(iocurrent);
 8000ee4:	bf0c      	ite	eq
 8000ee6:	403d      	andeq	r5, r7
          temp |= iocurrent;
 8000ee8:	4335      	orrne	r5, r6
        EXTI->IMR1 = temp;
 8000eea:	6015      	str	r5, [r2, #0]
        temp = EXTI->EMR1;
 8000eec:	6855      	ldr	r5, [r2, #4]
        if((GPIO_Init->Mode & GPIO_MODE_EVT) == GPIO_MODE_EVT)
 8000eee:	f414 3f00 	tst.w	r4, #131072	; 0x20000
        temp &= ~(iocurrent);
 8000ef2:	bf0c      	ite	eq
 8000ef4:	403d      	andeq	r5, r7
          temp |= iocurrent;
 8000ef6:	4335      	orrne	r5, r6
        EXTI->EMR1 = temp;
 8000ef8:	6055      	str	r5, [r2, #4]
        temp = EXTI->RTSR1;
 8000efa:	6895      	ldr	r5, [r2, #8]
        if((GPIO_Init->Mode & RISING_EDGE) == RISING_EDGE)
 8000efc:	f414 1f80 	tst.w	r4, #1048576	; 0x100000
        temp &= ~(iocurrent);
 8000f00:	bf0c      	ite	eq
 8000f02:	403d      	andeq	r5, r7
          temp |= iocurrent;
 8000f04:	4335      	orrne	r5, r6
        EXTI->RTSR1 = temp;
 8000f06:	6095      	str	r5, [r2, #8]
        temp = EXTI->FTSR1;
 8000f08:	68d5      	ldr	r5, [r2, #12]
        if((GPIO_Init->Mode & FALLING_EDGE) == FALLING_EDGE)
 8000f0a:	02a4      	lsls	r4, r4, #10
        temp &= ~(iocurrent);
 8000f0c:	bf54      	ite	pl
 8000f0e:	403d      	andpl	r5, r7
          temp |= iocurrent;
 8000f10:	4335      	orrmi	r5, r6
        EXTI->FTSR1 = temp;
 8000f12:	60d5      	str	r5, [r2, #12]
    position++;
 8000f14:	3301      	adds	r3, #1
 8000f16:	e741      	b.n	8000d9c <HAL_GPIO_Init+0x10>
        temp |= (GPIO_GET_INDEX(GPIOx) << (4u * (position & 0x03u)));
 8000f18:	2500      	movs	r5, #0
 8000f1a:	e7da      	b.n	8000ed2 <HAL_GPIO_Init+0x146>
 8000f1c:	2501      	movs	r5, #1
 8000f1e:	e7d8      	b.n	8000ed2 <HAL_GPIO_Init+0x146>
 8000f20:	2502      	movs	r5, #2
 8000f22:	e7d6      	b.n	8000ed2 <HAL_GPIO_Init+0x146>
 8000f24:	2503      	movs	r5, #3
 8000f26:	e7d4      	b.n	8000ed2 <HAL_GPIO_Init+0x146>
 8000f28:	2504      	movs	r5, #4
 8000f2a:	e7d2      	b.n	8000ed2 <HAL_GPIO_Init+0x146>
 8000f2c:	2505      	movs	r5, #5
 8000f2e:	e7d0      	b.n	8000ed2 <HAL_GPIO_Init+0x146>
 8000f30:	2506      	movs	r5, #6
 8000f32:	e7ce      	b.n	8000ed2 <HAL_GPIO_Init+0x146>
 8000f34:	40010400 	.word	0x40010400
 8000f38:	48000400 	.word	0x48000400
 8000f3c:	40021000 	.word	0x40021000

08000f40 <HAL_GPIO_WritePin>:
{
  /* Check the parameters */
  assert_param(IS_GPIO_PIN(GPIO_Pin));
  assert_param(IS_GPIO_PIN_ACTION(PinState));

  if(PinState != GPIO_PIN_RESET)
 8000f40:	b10a      	cbz	r2, 8000f46 <HAL_GPIO_WritePin+0x6>
  {
    GPIOx->BSRR = (uint32_t)GPIO_Pin;
 8000f42:	6181      	str	r1, [r0, #24]
 8000f44:	4770      	bx	lr
  }
  else
  {
    GPIOx->BRR = (uint32_t)GPIO_Pin;
 8000f46:	6281      	str	r1, [r0, #40]	; 0x28
 8000f48:	4770      	bx	lr

08000f4a <I2C_Flush_TXDR>:
  */
static void I2C_Flush_TXDR(I2C_HandleTypeDef *hi2c)
{
  /* If a pending TXIS flag is set */
  /* Write a dummy data in TXDR to clear it */
  if (__HAL_I2C_GET_FLAG(hi2c, I2C_FLAG_TXIS) != RESET)
 8000f4a:	6803      	ldr	r3, [r0, #0]
 8000f4c:	699a      	ldr	r2, [r3, #24]
 8000f4e:	0791      	lsls	r1, r2, #30
  {
    hi2c->Instance->TXDR = 0x00U;
 8000f50:	bf44      	itt	mi
 8000f52:	2200      	movmi	r2, #0
 8000f54:	629a      	strmi	r2, [r3, #40]	; 0x28
  }

  /* Flush TX register if not empty */
  if (__HAL_I2C_GET_FLAG(hi2c, I2C_FLAG_TXE) == RESET)
 8000f56:	699a      	ldr	r2, [r3, #24]
 8000f58:	07d2      	lsls	r2, r2, #31
  {
    __HAL_I2C_CLEAR_FLAG(hi2c, I2C_FLAG_TXE);
 8000f5a:	bf5e      	ittt	pl
 8000f5c:	699a      	ldrpl	r2, [r3, #24]
 8000f5e:	f042 0201 	orrpl.w	r2, r2, #1
 8000f62:	619a      	strpl	r2, [r3, #24]
 8000f64:	4770      	bx	lr

08000f66 <I2C_TransferConfig>:
  *     @arg @ref I2C_GENERATE_START_READ Generate Restart for read request.
  *     @arg @ref I2C_GENERATE_START_WRITE Generate Restart for write request.
  * @retval None
  */
static void I2C_TransferConfig(I2C_HandleTypeDef *hi2c, uint16_t DevAddress, uint8_t Size, uint32_t Mode, uint32_t Request)
{
 8000f66:	b530      	push	{r4, r5, lr}
 8000f68:	9c03      	ldr	r4, [sp, #12]
  assert_param(IS_I2C_ALL_INSTANCE(hi2c->Instance));
  assert_param(IS_TRANSFER_MODE(Mode));
  assert_param(IS_TRANSFER_REQUEST(Request));

  /* update CR2 register */
  MODIFY_REG(hi2c->Instance->CR2, ((I2C_CR2_SADD | I2C_CR2_NBYTES | I2C_CR2_RELOAD | I2C_CR2_AUTOEND | (I2C_CR2_RD_WRN & (uint32_t)(Request >> (31U - I2C_CR2_RD_WRN_Pos))) | I2C_CR2_START | I2C_CR2_STOP)), \
 8000f6a:	6805      	ldr	r5, [r0, #0]
 8000f6c:	4323      	orrs	r3, r4
 8000f6e:	0d64      	lsrs	r4, r4, #21
 8000f70:	f404 6480 	and.w	r4, r4, #1024	; 0x400
 8000f74:	f044 747f 	orr.w	r4, r4, #66846720	; 0x3fc0000
 8000f78:	f444 3458 	orr.w	r4, r4, #221184	; 0x36000
 8000f7c:	6868      	ldr	r0, [r5, #4]
 8000f7e:	f3c1 0109 	ubfx	r1, r1, #0, #10
 8000f82:	f444 747f 	orr.w	r4, r4, #1020	; 0x3fc
 8000f86:	4319      	orrs	r1, r3
 8000f88:	f044 0403 	orr.w	r4, r4, #3
 8000f8c:	ea41 4102 	orr.w	r1, r1, r2, lsl #16
 8000f90:	ea20 0404 	bic.w	r4, r0, r4
 8000f94:	4321      	orrs	r1, r4
 8000f96:	6069      	str	r1, [r5, #4]
 8000f98:	bd30      	pop	{r4, r5, pc}

08000f9a <I2C_WaitOnFlagUntilTimeout>:
{
 8000f9a:	e92d 41f0 	stmdb	sp!, {r4, r5, r6, r7, r8, lr}
 8000f9e:	9f06      	ldr	r7, [sp, #24]
 8000fa0:	4604      	mov	r4, r0
 8000fa2:	4688      	mov	r8, r1
 8000fa4:	4616      	mov	r6, r2
 8000fa6:	461d      	mov	r5, r3
  while (__HAL_I2C_GET_FLAG(hi2c, Flag) == Status)
 8000fa8:	6822      	ldr	r2, [r4, #0]
 8000faa:	6993      	ldr	r3, [r2, #24]
 8000fac:	ea38 0303 	bics.w	r3, r8, r3
 8000fb0:	bf0c      	ite	eq
 8000fb2:	2301      	moveq	r3, #1
 8000fb4:	2300      	movne	r3, #0
 8000fb6:	42b3      	cmp	r3, r6
 8000fb8:	d002      	beq.n	8000fc0 <I2C_WaitOnFlagUntilTimeout+0x26>
  return HAL_OK;
 8000fba:	2000      	movs	r0, #0
}
 8000fbc:	e8bd 81f0 	ldmia.w	sp!, {r4, r5, r6, r7, r8, pc}
    if (Timeout != HAL_MAX_DELAY)
 8000fc0:	1c6b      	adds	r3, r5, #1
 8000fc2:	d0f2      	beq.n	8000faa <I2C_WaitOnFlagUntilTimeout+0x10>
      if (((HAL_GetTick() - Tickstart) > Timeout) || (Timeout == 0U))
 8000fc4:	f7ff fb36 	bl	8000634 <HAL_GetTick>
 8000fc8:	1bc0      	subs	r0, r0, r7
 8000fca:	4285      	cmp	r5, r0
 8000fcc:	d301      	bcc.n	8000fd2 <I2C_WaitOnFlagUntilTimeout+0x38>
 8000fce:	2d00      	cmp	r5, #0
 8000fd0:	d1ea      	bne.n	8000fa8 <I2C_WaitOnFlagUntilTimeout+0xe>
      hi2c->ErrorCode |= HAL_I2C_ERROR_TIMEOUT;
 8000fd2:	6c63      	ldr	r3, [r4, #68]	; 0x44
 8000fd4:	f043 0320 	orr.w	r3, r3, #32
 8000fd8:	6463      	str	r3, [r4, #68]	; 0x44
      hi2c->State = HAL_I2C_STATE_READY;
 8000fda:	2320      	movs	r3, #32
 8000fdc:	f884 3041 	strb.w	r3, [r4, #65]	; 0x41
      hi2c->Mode = HAL_I2C_MODE_NONE;
 8000fe0:	2300      	movs	r3, #0
 8000fe2:	f884 3042 	strb.w	r3, [r4, #66]	; 0x42
      __HAL_UNLOCK(hi2c);
 8000fe6:	f884 3040 	strb.w	r3, [r4, #64]	; 0x40
 8000fea:	2001      	movs	r0, #1
 8000fec:	e8bd 81f0 	ldmia.w	sp!, {r4, r5, r6, r7, r8, pc}

08000ff0 <I2C_IsAcknowledgeFailed>:
  if (__HAL_I2C_GET_FLAG(hi2c, I2C_FLAG_AF) == SET)
 8000ff0:	6803      	ldr	r3, [r0, #0]
{
 8000ff2:	b570      	push	{r4, r5, r6, lr}
 8000ff4:	4604      	mov	r4, r0
  if (__HAL_I2C_GET_FLAG(hi2c, I2C_FLAG_AF) == SET)
 8000ff6:	6998      	ldr	r0, [r3, #24]
 8000ff8:	f010 0010 	ands.w	r0, r0, #16
{
 8000ffc:	460d      	mov	r5, r1
 8000ffe:	4616      	mov	r6, r2
  if (__HAL_I2C_GET_FLAG(hi2c, I2C_FLAG_AF) == SET)
 8001000:	d116      	bne.n	8001030 <I2C_IsAcknowledgeFailed+0x40>
 8001002:	bd70      	pop	{r4, r5, r6, pc}
      if (Timeout != HAL_MAX_DELAY)
 8001004:	1c69      	adds	r1, r5, #1
 8001006:	d014      	beq.n	8001032 <I2C_IsAcknowledgeFailed+0x42>
        if (((HAL_GetTick() - Tickstart) > Timeout) || (Timeout == 0U))
 8001008:	f7ff fb14 	bl	8000634 <HAL_GetTick>
 800100c:	1b80      	subs	r0, r0, r6
 800100e:	4285      	cmp	r5, r0
 8001010:	d300      	bcc.n	8001014 <I2C_IsAcknowledgeFailed+0x24>
 8001012:	b96d      	cbnz	r5, 8001030 <I2C_IsAcknowledgeFailed+0x40>
      hi2c->ErrorCode |= HAL_I2C_ERROR_TIMEOUT;
 8001014:	6c63      	ldr	r3, [r4, #68]	; 0x44
 8001016:	f043 0320 	orr.w	r3, r3, #32
 800101a:	6463      	str	r3, [r4, #68]	; 0x44
      hi2c->State = HAL_I2C_STATE_READY;
 800101c:	2320      	movs	r3, #32
 800101e:	f884 3041 	strb.w	r3, [r4, #65]	; 0x41
    hi2c->Mode = HAL_I2C_MODE_NONE;
 8001022:	2300      	movs	r3, #0
 8001024:	f884 3042 	strb.w	r3, [r4, #66]	; 0x42
    __HAL_UNLOCK(hi2c);
 8001028:	f884 3040 	strb.w	r3, [r4, #64]	; 0x40
    return HAL_ERROR;
 800102c:	2001      	movs	r0, #1
}
 800102e:	bd70      	pop	{r4, r5, r6, pc}
    while (__HAL_I2C_GET_FLAG(hi2c, I2C_FLAG_STOPF) == RESET)
 8001030:	6823      	ldr	r3, [r4, #0]
 8001032:	6999      	ldr	r1, [r3, #24]
 8001034:	068a      	lsls	r2, r1, #26
 8001036:	d5e5      	bpl.n	8001004 <I2C_IsAcknowledgeFailed+0x14>
    __HAL_I2C_CLEAR_FLAG(hi2c, I2C_FLAG_AF);
 8001038:	2210      	movs	r2, #16
    __HAL_I2C_CLEAR_FLAG(hi2c, I2C_FLAG_STOPF);
 800103a:	2520      	movs	r5, #32
    __HAL_I2C_CLEAR_FLAG(hi2c, I2C_FLAG_AF);
 800103c:	61da      	str	r2, [r3, #28]
    I2C_Flush_TXDR(hi2c);
 800103e:	4620      	mov	r0, r4
    __HAL_I2C_CLEAR_FLAG(hi2c, I2C_FLAG_STOPF);
 8001040:	61dd      	str	r5, [r3, #28]
    I2C_Flush_TXDR(hi2c);
 8001042:	f7ff ff82 	bl	8000f4a <I2C_Flush_TXDR>
    I2C_RESET_CR2(hi2c);
 8001046:	6822      	ldr	r2, [r4, #0]
 8001048:	6853      	ldr	r3, [r2, #4]
 800104a:	f023 73ff 	bic.w	r3, r3, #33423360	; 0x1fe0000
 800104e:	f423 338b 	bic.w	r3, r3, #71168	; 0x11600
 8001052:	f423 73ff 	bic.w	r3, r3, #510	; 0x1fe
 8001056:	f023 0301 	bic.w	r3, r3, #1
 800105a:	6053      	str	r3, [r2, #4]
    hi2c->ErrorCode |= HAL_I2C_ERROR_AF;
 800105c:	6c63      	ldr	r3, [r4, #68]	; 0x44
 800105e:	f043 0304 	orr.w	r3, r3, #4
 8001062:	6463      	str	r3, [r4, #68]	; 0x44
    hi2c->State = HAL_I2C_STATE_READY;
 8001064:	f884 5041 	strb.w	r5, [r4, #65]	; 0x41
 8001068:	e7db      	b.n	8001022 <I2C_IsAcknowledgeFailed+0x32>

0800106a <I2C_WaitOnTXISFlagUntilTimeout>:
{
 800106a:	b570      	push	{r4, r5, r6, lr}
 800106c:	4604      	mov	r4, r0
 800106e:	460d      	mov	r5, r1
 8001070:	4616      	mov	r6, r2
  while (__HAL_I2C_GET_FLAG(hi2c, I2C_FLAG_TXIS) == RESET)
 8001072:	6823      	ldr	r3, [r4, #0]
 8001074:	699b      	ldr	r3, [r3, #24]
 8001076:	079b      	lsls	r3, r3, #30
 8001078:	d501      	bpl.n	800107e <I2C_WaitOnTXISFlagUntilTimeout+0x14>
  return HAL_OK;
 800107a:	2000      	movs	r0, #0
 800107c:	bd70      	pop	{r4, r5, r6, pc}
    if (I2C_IsAcknowledgeFailed(hi2c, Timeout, Tickstart) != HAL_OK)
 800107e:	4632      	mov	r2, r6
 8001080:	4629      	mov	r1, r5
 8001082:	4620      	mov	r0, r4
 8001084:	f7ff ffb4 	bl	8000ff0 <I2C_IsAcknowledgeFailed>
 8001088:	b9a0      	cbnz	r0, 80010b4 <I2C_WaitOnTXISFlagUntilTimeout+0x4a>
    if (Timeout != HAL_MAX_DELAY)
 800108a:	1c6a      	adds	r2, r5, #1
 800108c:	d0f1      	beq.n	8001072 <I2C_WaitOnTXISFlagUntilTimeout+0x8>
      if (((HAL_GetTick() - Tickstart) > Timeout) || (Timeout == 0U))
 800108e:	f7ff fad1 	bl	8000634 <HAL_GetTick>
 8001092:	1b80      	subs	r0, r0, r6
 8001094:	4285      	cmp	r5, r0
 8001096:	d301      	bcc.n	800109c <I2C_WaitOnTXISFlagUntilTimeout+0x32>
 8001098:	2d00      	cmp	r5, #0
 800109a:	d1ea      	bne.n	8001072 <I2C_WaitOnTXISFlagUntilTimeout+0x8>
      hi2c->ErrorCode |= HAL_I2C_ERROR_TIMEOUT;
 800109c:	6c63      	ldr	r3, [r4, #68]	; 0x44
 800109e:	f043 0320 	orr.w	r3, r3, #32
 80010a2:	6463      	str	r3, [r4, #68]	; 0x44
      hi2c->State = HAL_I2C_STATE_READY;
 80010a4:	2320      	movs	r3, #32
 80010a6:	f884 3041 	strb.w	r3, [r4, #65]	; 0x41
      hi2c->Mode = HAL_I2C_MODE_NONE;
 80010aa:	2300      	movs	r3, #0
 80010ac:	f884 3042 	strb.w	r3, [r4, #66]	; 0x42
      __HAL_UNLOCK(hi2c);
 80010b0:	f884 3040 	strb.w	r3, [r4, #64]	; 0x40
      return HAL_ERROR;
 80010b4:	2001      	movs	r0, #1
}
 80010b6:	bd70      	pop	{r4, r5, r6, pc}

080010b8 <I2C_WaitOnSTOPFlagUntilTimeout>:
{
 80010b8:	b570      	push	{r4, r5, r6, lr}
 80010ba:	4604      	mov	r4, r0
 80010bc:	460d      	mov	r5, r1
 80010be:	4616      	mov	r6, r2
  while (__HAL_I2C_GET_FLAG(hi2c, I2C_FLAG_STOPF) == RESET)
 80010c0:	6823      	ldr	r3, [r4, #0]
 80010c2:	699b      	ldr	r3, [r3, #24]
 80010c4:	069b      	lsls	r3, r3, #26
 80010c6:	d501      	bpl.n	80010cc <I2C_WaitOnSTOPFlagUntilTimeout+0x14>
  return HAL_OK;
 80010c8:	2000      	movs	r0, #0
 80010ca:	bd70      	pop	{r4, r5, r6, pc}
    if (I2C_IsAcknowledgeFailed(hi2c, Timeout, Tickstart) != HAL_OK)
 80010cc:	4632      	mov	r2, r6
 80010ce:	4629      	mov	r1, r5
 80010d0:	4620      	mov	r0, r4
 80010d2:	f7ff ff8d 	bl	8000ff0 <I2C_IsAcknowledgeFailed>
 80010d6:	b990      	cbnz	r0, 80010fe <I2C_WaitOnSTOPFlagUntilTimeout+0x46>
    if (((HAL_GetTick() - Tickstart) > Timeout) || (Timeout == 0U))
 80010d8:	f7ff faac 	bl	8000634 <HAL_GetTick>
 80010dc:	1b80      	subs	r0, r0, r6
 80010de:	4285      	cmp	r5, r0
 80010e0:	d301      	bcc.n	80010e6 <I2C_WaitOnSTOPFlagUntilTimeout+0x2e>
 80010e2:	2d00      	cmp	r5, #0
 80010e4:	d1ec      	bne.n	80010c0 <I2C_WaitOnSTOPFlagUntilTimeout+0x8>
      hi2c->ErrorCode |= HAL_I2C_ERROR_TIMEOUT;
 80010e6:	6c63      	ldr	r3, [r4, #68]	; 0x44
 80010e8:	f043 0320 	orr.w	r3, r3, #32
 80010ec:	6463      	str	r3, [r4, #68]	; 0x44
      hi2c->State = HAL_I2C_STATE_READY;
 80010ee:	2320      	movs	r3, #32
 80010f0:	f884 3041 	strb.w	r3, [r4, #65]	; 0x41
      hi2c->Mode = HAL_I2C_MODE_NONE;
 80010f4:	2300      	movs	r3, #0
 80010f6:	f884 3042 	strb.w	r3, [r4, #66]	; 0x42
      __HAL_UNLOCK(hi2c);
 80010fa:	f884 3040 	strb.w	r3, [r4, #64]	; 0x40
      return HAL_ERROR;
 80010fe:	2001      	movs	r0, #1
}
 8001100:	bd70      	pop	{r4, r5, r6, pc}

08001102 <I2C_WaitOnRXNEFlagUntilTimeout>:
{
 8001102:	b570      	push	{r4, r5, r6, lr}
 8001104:	4604      	mov	r4, r0
 8001106:	460d      	mov	r5, r1
 8001108:	4616      	mov	r6, r2
  while (__HAL_I2C_GET_FLAG(hi2c, I2C_FLAG_RXNE) == RESET)
 800110a:	6823      	ldr	r3, [r4, #0]
 800110c:	699b      	ldr	r3, [r3, #24]
 800110e:	075b      	lsls	r3, r3, #29
 8001110:	d40e      	bmi.n	8001130 <I2C_WaitOnRXNEFlagUntilTimeout+0x2e>
    if (I2C_IsAcknowledgeFailed(hi2c, Timeout, Tickstart) != HAL_OK)
 8001112:	4632      	mov	r2, r6
 8001114:	4629      	mov	r1, r5
 8001116:	4620      	mov	r0, r4
 8001118:	f7ff ff6a 	bl	8000ff0 <I2C_IsAcknowledgeFailed>
 800111c:	b9f0      	cbnz	r0, 800115c <I2C_WaitOnRXNEFlagUntilTimeout+0x5a>
    if (__HAL_I2C_GET_FLAG(hi2c, I2C_FLAG_STOPF) == SET)
 800111e:	6823      	ldr	r3, [r4, #0]
 8001120:	699a      	ldr	r2, [r3, #24]
 8001122:	0691      	lsls	r1, r2, #26
 8001124:	d51c      	bpl.n	8001160 <I2C_WaitOnRXNEFlagUntilTimeout+0x5e>
      if ((__HAL_I2C_GET_FLAG(hi2c, I2C_FLAG_RXNE) == SET) && (hi2c->XferSize > 0U))
 8001126:	699a      	ldr	r2, [r3, #24]
 8001128:	0752      	lsls	r2, r2, #29
 800112a:	d503      	bpl.n	8001134 <I2C_WaitOnRXNEFlagUntilTimeout+0x32>
 800112c:	8d22      	ldrh	r2, [r4, #40]	; 0x28
 800112e:	b10a      	cbz	r2, 8001134 <I2C_WaitOnRXNEFlagUntilTimeout+0x32>
        return HAL_OK;
 8001130:	2000      	movs	r0, #0
 8001132:	bd70      	pop	{r4, r5, r6, pc}
        __HAL_I2C_CLEAR_FLAG(hi2c, I2C_FLAG_STOPF);
 8001134:	2120      	movs	r1, #32
 8001136:	61d9      	str	r1, [r3, #28]
        I2C_RESET_CR2(hi2c);
 8001138:	685a      	ldr	r2, [r3, #4]
 800113a:	f022 72ff 	bic.w	r2, r2, #33423360	; 0x1fe0000
 800113e:	f422 328b 	bic.w	r2, r2, #71168	; 0x11600
 8001142:	f422 72ff 	bic.w	r2, r2, #510	; 0x1fe
 8001146:	f022 0201 	bic.w	r2, r2, #1
 800114a:	605a      	str	r2, [r3, #4]
        hi2c->ErrorCode = HAL_I2C_ERROR_NONE;
 800114c:	2300      	movs	r3, #0
 800114e:	6463      	str	r3, [r4, #68]	; 0x44
        hi2c->State = HAL_I2C_STATE_READY;
 8001150:	f884 1041 	strb.w	r1, [r4, #65]	; 0x41
        hi2c->Mode = HAL_I2C_MODE_NONE;
 8001154:	f884 3042 	strb.w	r3, [r4, #66]	; 0x42
      __HAL_UNLOCK(hi2c);
 8001158:	f884 3040 	strb.w	r3, [r4, #64]	; 0x40
      return HAL_ERROR;
 800115c:	2001      	movs	r0, #1
}
 800115e:	bd70      	pop	{r4, r5, r6, pc}
    if (((HAL_GetTick() - Tickstart) > Timeout) || (Timeout == 0U))
 8001160:	f7ff fa68 	bl	8000634 <HAL_GetTick>
 8001164:	1b80      	subs	r0, r0, r6
 8001166:	4285      	cmp	r5, r0
 8001168:	d301      	bcc.n	800116e <I2C_WaitOnRXNEFlagUntilTimeout+0x6c>
 800116a:	2d00      	cmp	r5, #0
 800116c:	d1cd      	bne.n	800110a <I2C_WaitOnRXNEFlagUntilTimeout+0x8>
      hi2c->ErrorCode |= HAL_I2C_ERROR_TIMEOUT;
 800116e:	6c63      	ldr	r3, [r4, #68]	; 0x44
 8001170:	f043 0320 	orr.w	r3, r3, #32
 8001174:	6463      	str	r3, [r4, #68]	; 0x44
      hi2c->State = HAL_I2C_STATE_READY;
 8001176:	2320      	movs	r3, #32
 8001178:	f884 3041 	strb.w	r3, [r4, #65]	; 0x41
      __HAL_UNLOCK(hi2c);
 800117c:	2300      	movs	r3, #0
 800117e:	e7eb      	b.n	8001158 <I2C_WaitOnRXNEFlagUntilTimeout+0x56>

08001180 <HAL_I2C_Init>:
{
 8001180:	b510      	push	{r4, lr}
  if (hi2c == NULL)
 8001182:	4604      	mov	r4, r0
 8001184:	2800      	cmp	r0, #0
 8001186:	d04a      	beq.n	800121e <HAL_I2C_Init+0x9e>
  if (hi2c->State == HAL_I2C_STATE_RESET)
 8001188:	f890 3041 	ldrb.w	r3, [r0, #65]	; 0x41
 800118c:	f003 02ff 	and.w	r2, r3, #255	; 0xff
 8001190:	b91b      	cbnz	r3, 800119a <HAL_I2C_Init+0x1a>
    hi2c->Lock = HAL_UNLOCKED;
 8001192:	f880 2040 	strb.w	r2, [r0, #64]	; 0x40
    HAL_I2C_MspInit(hi2c);
 8001196:	f002 f8ed 	bl	8003374 <HAL_I2C_MspInit>
  hi2c->State = HAL_I2C_STATE_BUSY;
 800119a:	2324      	movs	r3, #36	; 0x24
 800119c:	f884 3041 	strb.w	r3, [r4, #65]	; 0x41
  __HAL_I2C_DISABLE(hi2c);
 80011a0:	6823      	ldr	r3, [r4, #0]
  if (hi2c->Init.AddressingMode == I2C_ADDRESSINGMODE_7BIT)
 80011a2:	68e1      	ldr	r1, [r4, #12]
  __HAL_I2C_DISABLE(hi2c);
 80011a4:	681a      	ldr	r2, [r3, #0]
 80011a6:	f022 0201 	bic.w	r2, r2, #1
 80011aa:	601a      	str	r2, [r3, #0]
  hi2c->Instance->TIMINGR = hi2c->Init.Timing & TIMING_CLEAR_MASK;
 80011ac:	6862      	ldr	r2, [r4, #4]
 80011ae:	f022 6270 	bic.w	r2, r2, #251658240	; 0xf000000
 80011b2:	611a      	str	r2, [r3, #16]
  hi2c->Instance->OAR1 &= ~I2C_OAR1_OA1EN;
 80011b4:	689a      	ldr	r2, [r3, #8]
  if (hi2c->Init.AddressingMode == I2C_ADDRESSINGMODE_7BIT)
 80011b6:	2901      	cmp	r1, #1
  hi2c->Instance->OAR1 &= ~I2C_OAR1_OA1EN;
 80011b8:	f422 4200 	bic.w	r2, r2, #32768	; 0x8000
 80011bc:	609a      	str	r2, [r3, #8]
 80011be:	68a2      	ldr	r2, [r4, #8]
  if (hi2c->Init.AddressingMode == I2C_ADDRESSINGMODE_7BIT)
 80011c0:	d124      	bne.n	800120c <HAL_I2C_Init+0x8c>
    hi2c->Instance->OAR1 = (I2C_OAR1_OA1EN | hi2c->Init.OwnAddress1);
 80011c2:	f442 4200 	orr.w	r2, r2, #32768	; 0x8000
 80011c6:	609a      	str	r2, [r3, #8]
  hi2c->Instance->CR2 |= (I2C_CR2_AUTOEND | I2C_CR2_NACK);
 80011c8:	685a      	ldr	r2, [r3, #4]
  hi2c->Instance->OAR2 = (hi2c->Init.DualAddressMode | hi2c->Init.OwnAddress2 | (hi2c->Init.OwnAddress2Masks << 8));
 80011ca:	6961      	ldr	r1, [r4, #20]
  hi2c->Instance->CR2 |= (I2C_CR2_AUTOEND | I2C_CR2_NACK);
 80011cc:	f042 7200 	orr.w	r2, r2, #33554432	; 0x2000000
 80011d0:	f442 4200 	orr.w	r2, r2, #32768	; 0x8000
 80011d4:	605a      	str	r2, [r3, #4]
  hi2c->Instance->OAR2 &= ~I2C_DUALADDRESS_ENABLE;
 80011d6:	68da      	ldr	r2, [r3, #12]
 80011d8:	f422 4200 	bic.w	r2, r2, #32768	; 0x8000
 80011dc:	60da      	str	r2, [r3, #12]
  hi2c->Instance->OAR2 = (hi2c->Init.DualAddressMode | hi2c->Init.OwnAddress2 | (hi2c->Init.OwnAddress2Masks << 8));
 80011de:	6922      	ldr	r2, [r4, #16]
 80011e0:	430a      	orrs	r2, r1
 80011e2:	69a1      	ldr	r1, [r4, #24]
 80011e4:	ea42 2201 	orr.w	r2, r2, r1, lsl #8
 80011e8:	60da      	str	r2, [r3, #12]
  hi2c->Instance->CR1 = (hi2c->Init.GeneralCallMode | hi2c->Init.NoStretchMode);
 80011ea:	6a21      	ldr	r1, [r4, #32]
 80011ec:	69e2      	ldr	r2, [r4, #28]
 80011ee:	430a      	orrs	r2, r1
 80011f0:	601a      	str	r2, [r3, #0]
  __HAL_I2C_ENABLE(hi2c);
 80011f2:	681a      	ldr	r2, [r3, #0]
 80011f4:	f042 0201 	orr.w	r2, r2, #1
 80011f8:	601a      	str	r2, [r3, #0]
  hi2c->ErrorCode = HAL_I2C_ERROR_NONE;
 80011fa:	2000      	movs	r0, #0
  hi2c->State = HAL_I2C_STATE_READY;
 80011fc:	2320      	movs	r3, #32
  hi2c->ErrorCode = HAL_I2C_ERROR_NONE;
 80011fe:	6460      	str	r0, [r4, #68]	; 0x44
  hi2c->State = HAL_I2C_STATE_READY;
 8001200:	f884 3041 	strb.w	r3, [r4, #65]	; 0x41
  hi2c->PreviousState = I2C_STATE_NONE;
 8001204:	6320      	str	r0, [r4, #48]	; 0x30
  hi2c->Mode = HAL_I2C_MODE_NONE;
 8001206:	f884 0042 	strb.w	r0, [r4, #66]	; 0x42
  return HAL_OK;
 800120a:	bd10      	pop	{r4, pc}
    hi2c->Instance->OAR1 = (I2C_OAR1_OA1EN | I2C_OAR1_OA1MODE | hi2c->Init.OwnAddress1);
 800120c:	f442 4204 	orr.w	r2, r2, #33792	; 0x8400
  if (hi2c->Init.AddressingMode == I2C_ADDRESSINGMODE_10BIT)
 8001210:	2902      	cmp	r1, #2
    hi2c->Instance->OAR1 = (I2C_OAR1_OA1EN | I2C_OAR1_OA1MODE | hi2c->Init.OwnAddress1);
 8001212:	609a      	str	r2, [r3, #8]
    hi2c->Instance->CR2 = (I2C_CR2_ADD10);
 8001214:	bf04      	itt	eq
 8001216:	f44f 6200 	moveq.w	r2, #2048	; 0x800
 800121a:	605a      	streq	r2, [r3, #4]
 800121c:	e7d4      	b.n	80011c8 <HAL_I2C_Init+0x48>
    return HAL_ERROR;
 800121e:	2001      	movs	r0, #1
}
 8001220:	bd10      	pop	{r4, pc}
	...

08001224 <HAL_I2C_Master_Transmit>:
{
 8001224:	e92d 43f7 	stmdb	sp!, {r0, r1, r2, r4, r5, r6, r7, r8, r9, lr}
 8001228:	4698      	mov	r8, r3
  if (hi2c->State == HAL_I2C_STATE_READY)
 800122a:	f890 3041 	ldrb.w	r3, [r0, #65]	; 0x41
 800122e:	2b20      	cmp	r3, #32
{
 8001230:	4604      	mov	r4, r0
 8001232:	460e      	mov	r6, r1
 8001234:	4691      	mov	r9, r2
  if (hi2c->State == HAL_I2C_STATE_READY)
 8001236:	f040 8084 	bne.w	8001342 <HAL_I2C_Master_Transmit+0x11e>
    __HAL_LOCK(hi2c);
 800123a:	f890 3040 	ldrb.w	r3, [r0, #64]	; 0x40
 800123e:	2b01      	cmp	r3, #1
 8001240:	d07f      	beq.n	8001342 <HAL_I2C_Master_Transmit+0x11e>
 8001242:	2701      	movs	r7, #1
 8001244:	f880 7040 	strb.w	r7, [r0, #64]	; 0x40
    tickstart = HAL_GetTick();
 8001248:	f7ff f9f4 	bl	8000634 <HAL_GetTick>
    if (I2C_WaitOnFlagUntilTimeout(hi2c, I2C_FLAG_BUSY, SET, I2C_TIMEOUT_BUSY, tickstart) != HAL_OK)
 800124c:	2319      	movs	r3, #25
    tickstart = HAL_GetTick();
 800124e:	4605      	mov	r5, r0
    if (I2C_WaitOnFlagUntilTimeout(hi2c, I2C_FLAG_BUSY, SET, I2C_TIMEOUT_BUSY, tickstart) != HAL_OK)
 8001250:	9000      	str	r0, [sp, #0]
 8001252:	463a      	mov	r2, r7
 8001254:	f44f 4100 	mov.w	r1, #32768	; 0x8000
 8001258:	4620      	mov	r0, r4
 800125a:	f7ff fe9e 	bl	8000f9a <I2C_WaitOnFlagUntilTimeout>
 800125e:	b118      	cbz	r0, 8001268 <HAL_I2C_Master_Transmit+0x44>
      return HAL_ERROR;
 8001260:	2001      	movs	r0, #1
}
 8001262:	b003      	add	sp, #12
 8001264:	e8bd 83f0 	ldmia.w	sp!, {r4, r5, r6, r7, r8, r9, pc}
    hi2c->State     = HAL_I2C_STATE_BUSY_TX;
 8001268:	2321      	movs	r3, #33	; 0x21
 800126a:	f884 3041 	strb.w	r3, [r4, #65]	; 0x41
    hi2c->Mode      = HAL_I2C_MODE_MASTER;
 800126e:	2310      	movs	r3, #16
 8001270:	f884 3042 	strb.w	r3, [r4, #66]	; 0x42
    hi2c->ErrorCode = HAL_I2C_ERROR_NONE;
 8001274:	6460      	str	r0, [r4, #68]	; 0x44
    hi2c->XferCount = Size;
 8001276:	f8a4 802a 	strh.w	r8, [r4, #42]	; 0x2a
    if (hi2c->XferCount > MAX_NBYTE_SIZE)
 800127a:	8d63      	ldrh	r3, [r4, #42]	; 0x2a
    hi2c->pBuffPtr  = pData;
 800127c:	f8c4 9024 	str.w	r9, [r4, #36]	; 0x24
    if (hi2c->XferCount > MAX_NBYTE_SIZE)
 8001280:	b29b      	uxth	r3, r3
 8001282:	2bff      	cmp	r3, #255	; 0xff
    hi2c->XferISR   = NULL;
 8001284:	6360      	str	r0, [r4, #52]	; 0x34
 8001286:	4b30      	ldr	r3, [pc, #192]	; (8001348 <HAL_I2C_Master_Transmit+0x124>)
    if (hi2c->XferCount > MAX_NBYTE_SIZE)
 8001288:	d926      	bls.n	80012d8 <HAL_I2C_Master_Transmit+0xb4>
      hi2c->XferSize = MAX_NBYTE_SIZE;
 800128a:	22ff      	movs	r2, #255	; 0xff
 800128c:	8522      	strh	r2, [r4, #40]	; 0x28
      I2C_TransferConfig(hi2c, DevAddress, (uint8_t)hi2c->XferSize, I2C_RELOAD_MODE, I2C_GENERATE_START_WRITE);
 800128e:	9300      	str	r3, [sp, #0]
          I2C_TransferConfig(hi2c, DevAddress, (uint8_t)hi2c->XferSize, I2C_RELOAD_MODE, I2C_NO_STARTSTOP);
 8001290:	f04f 7380 	mov.w	r3, #16777216	; 0x1000000
          I2C_TransferConfig(hi2c, DevAddress, (uint8_t)hi2c->XferSize, I2C_AUTOEND_MODE, I2C_NO_STARTSTOP);
 8001294:	4631      	mov	r1, r6
 8001296:	4620      	mov	r0, r4
 8001298:	f7ff fe65 	bl	8000f66 <I2C_TransferConfig>
    while (hi2c->XferCount > 0U)
 800129c:	8d63      	ldrh	r3, [r4, #42]	; 0x2a
      if (I2C_WaitOnTXISFlagUntilTimeout(hi2c, Timeout, tickstart) != HAL_OK)
 800129e:	990a      	ldr	r1, [sp, #40]	; 0x28
    while (hi2c->XferCount > 0U)
 80012a0:	b29b      	uxth	r3, r3
      if (I2C_WaitOnTXISFlagUntilTimeout(hi2c, Timeout, tickstart) != HAL_OK)
 80012a2:	462a      	mov	r2, r5
 80012a4:	4620      	mov	r0, r4
    while (hi2c->XferCount > 0U)
 80012a6:	b9fb      	cbnz	r3, 80012e8 <HAL_I2C_Master_Transmit+0xc4>
    if (I2C_WaitOnSTOPFlagUntilTimeout(hi2c, Timeout, tickstart) != HAL_OK)
 80012a8:	f7ff ff06 	bl	80010b8 <I2C_WaitOnSTOPFlagUntilTimeout>
 80012ac:	2800      	cmp	r0, #0
 80012ae:	d1d7      	bne.n	8001260 <HAL_I2C_Master_Transmit+0x3c>
    __HAL_I2C_CLEAR_FLAG(hi2c, I2C_FLAG_STOPF);
 80012b0:	6823      	ldr	r3, [r4, #0]
 80012b2:	2120      	movs	r1, #32
 80012b4:	61d9      	str	r1, [r3, #28]
    I2C_RESET_CR2(hi2c);
 80012b6:	685a      	ldr	r2, [r3, #4]
 80012b8:	f022 72ff 	bic.w	r2, r2, #33423360	; 0x1fe0000
 80012bc:	f422 328b 	bic.w	r2, r2, #71168	; 0x11600
 80012c0:	f422 72ff 	bic.w	r2, r2, #510	; 0x1fe
 80012c4:	f022 0201 	bic.w	r2, r2, #1
 80012c8:	605a      	str	r2, [r3, #4]
    hi2c->State = HAL_I2C_STATE_READY;
 80012ca:	f884 1041 	strb.w	r1, [r4, #65]	; 0x41
    __HAL_UNLOCK(hi2c);
 80012ce:	f884 0040 	strb.w	r0, [r4, #64]	; 0x40
    hi2c->Mode  = HAL_I2C_MODE_NONE;
 80012d2:	f884 0042 	strb.w	r0, [r4, #66]	; 0x42
    return HAL_OK;
 80012d6:	e7c4      	b.n	8001262 <HAL_I2C_Master_Transmit+0x3e>
      hi2c->XferSize = hi2c->XferCount;
 80012d8:	8d62      	ldrh	r2, [r4, #42]	; 0x2a
      I2C_TransferConfig(hi2c, DevAddress, (uint8_t)hi2c->XferSize, I2C_AUTOEND_MODE, I2C_GENERATE_START_WRITE);
 80012da:	9300      	str	r3, [sp, #0]
      hi2c->XferSize = hi2c->XferCount;
 80012dc:	b292      	uxth	r2, r2
 80012de:	8522      	strh	r2, [r4, #40]	; 0x28
          I2C_TransferConfig(hi2c, DevAddress, (uint8_t)hi2c->XferSize, I2C_AUTOEND_MODE, I2C_NO_STARTSTOP);
 80012e0:	f04f 7300 	mov.w	r3, #33554432	; 0x2000000
 80012e4:	b2d2      	uxtb	r2, r2
 80012e6:	e7d5      	b.n	8001294 <HAL_I2C_Master_Transmit+0x70>
      if (I2C_WaitOnTXISFlagUntilTimeout(hi2c, Timeout, tickstart) != HAL_OK)
 80012e8:	f7ff febf 	bl	800106a <I2C_WaitOnTXISFlagUntilTimeout>
 80012ec:	2800      	cmp	r0, #0
 80012ee:	d1b7      	bne.n	8001260 <HAL_I2C_Master_Transmit+0x3c>
      hi2c->Instance->TXDR = *hi2c->pBuffPtr;
 80012f0:	6a63      	ldr	r3, [r4, #36]	; 0x24
 80012f2:	6822      	ldr	r2, [r4, #0]
 80012f4:	f813 1b01 	ldrb.w	r1, [r3], #1
 80012f8:	6291      	str	r1, [r2, #40]	; 0x28
      hi2c->pBuffPtr++;
 80012fa:	6263      	str	r3, [r4, #36]	; 0x24
      hi2c->XferCount--;
 80012fc:	8d63      	ldrh	r3, [r4, #42]	; 0x2a
      hi2c->XferSize--;
 80012fe:	8d22      	ldrh	r2, [r4, #40]	; 0x28
      hi2c->XferCount--;
 8001300:	3b01      	subs	r3, #1
 8001302:	b29b      	uxth	r3, r3
 8001304:	8563      	strh	r3, [r4, #42]	; 0x2a
      if ((hi2c->XferCount != 0U) && (hi2c->XferSize == 0U))
 8001306:	8d63      	ldrh	r3, [r4, #42]	; 0x2a
      hi2c->XferSize--;
 8001308:	3a01      	subs	r2, #1
 800130a:	b292      	uxth	r2, r2
      if ((hi2c->XferCount != 0U) && (hi2c->XferSize == 0U))
 800130c:	b29b      	uxth	r3, r3
      hi2c->XferSize--;
 800130e:	8522      	strh	r2, [r4, #40]	; 0x28
      if ((hi2c->XferCount != 0U) && (hi2c->XferSize == 0U))
 8001310:	2b00      	cmp	r3, #0
 8001312:	d0c3      	beq.n	800129c <HAL_I2C_Master_Transmit+0x78>
 8001314:	2a00      	cmp	r2, #0
 8001316:	d1c1      	bne.n	800129c <HAL_I2C_Master_Transmit+0x78>
        if (I2C_WaitOnFlagUntilTimeout(hi2c, I2C_FLAG_TCR, RESET, Timeout, tickstart) != HAL_OK)
 8001318:	9500      	str	r5, [sp, #0]
 800131a:	9b0a      	ldr	r3, [sp, #40]	; 0x28
 800131c:	2180      	movs	r1, #128	; 0x80
 800131e:	4620      	mov	r0, r4
 8001320:	f7ff fe3b 	bl	8000f9a <I2C_WaitOnFlagUntilTimeout>
 8001324:	2800      	cmp	r0, #0
 8001326:	d19b      	bne.n	8001260 <HAL_I2C_Master_Transmit+0x3c>
        if (hi2c->XferCount > MAX_NBYTE_SIZE)
 8001328:	8d63      	ldrh	r3, [r4, #42]	; 0x2a
 800132a:	b29b      	uxth	r3, r3
 800132c:	2bff      	cmp	r3, #255	; 0xff
 800132e:	d903      	bls.n	8001338 <HAL_I2C_Master_Transmit+0x114>
          hi2c->XferSize = MAX_NBYTE_SIZE;
 8001330:	22ff      	movs	r2, #255	; 0xff
 8001332:	8522      	strh	r2, [r4, #40]	; 0x28
          I2C_TransferConfig(hi2c, DevAddress, (uint8_t)hi2c->XferSize, I2C_RELOAD_MODE, I2C_NO_STARTSTOP);
 8001334:	9000      	str	r0, [sp, #0]
 8001336:	e7ab      	b.n	8001290 <HAL_I2C_Master_Transmit+0x6c>
          hi2c->XferSize = hi2c->XferCount;
 8001338:	8d62      	ldrh	r2, [r4, #42]	; 0x2a
          I2C_TransferConfig(hi2c, DevAddress, (uint8_t)hi2c->XferSize, I2C_AUTOEND_MODE, I2C_NO_STARTSTOP);
 800133a:	9000      	str	r0, [sp, #0]
          hi2c->XferSize = hi2c->XferCount;
 800133c:	b292      	uxth	r2, r2
 800133e:	8522      	strh	r2, [r4, #40]	; 0x28
 8001340:	e7ce      	b.n	80012e0 <HAL_I2C_Master_Transmit+0xbc>
    return HAL_BUSY;
 8001342:	2002      	movs	r0, #2
 8001344:	e78d      	b.n	8001262 <HAL_I2C_Master_Transmit+0x3e>
 8001346:	bf00      	nop
 8001348:	80002000 	.word	0x80002000

0800134c <HAL_I2C_Master_Receive>:
{
 800134c:	e92d 43f7 	stmdb	sp!, {r0, r1, r2, r4, r5, r6, r7, r8, r9, lr}
 8001350:	4698      	mov	r8, r3
  if (hi2c->State == HAL_I2C_STATE_READY)
 8001352:	f890 3041 	ldrb.w	r3, [r0, #65]	; 0x41
 8001356:	2b20      	cmp	r3, #32
{
 8001358:	4604      	mov	r4, r0
 800135a:	460e      	mov	r6, r1
 800135c:	4691      	mov	r9, r2
  if (hi2c->State == HAL_I2C_STATE_READY)
 800135e:	f040 8086 	bne.w	800146e <HAL_I2C_Master_Receive+0x122>
    __HAL_LOCK(hi2c);
 8001362:	f890 3040 	ldrb.w	r3, [r0, #64]	; 0x40
 8001366:	2b01      	cmp	r3, #1
 8001368:	f000 8081 	beq.w	800146e <HAL_I2C_Master_Receive+0x122>
 800136c:	2701      	movs	r7, #1
 800136e:	f880 7040 	strb.w	r7, [r0, #64]	; 0x40
    tickstart = HAL_GetTick();
 8001372:	f7ff f95f 	bl	8000634 <HAL_GetTick>
    if (I2C_WaitOnFlagUntilTimeout(hi2c, I2C_FLAG_BUSY, SET, I2C_TIMEOUT_BUSY, tickstart) != HAL_OK)
 8001376:	2319      	movs	r3, #25
    tickstart = HAL_GetTick();
 8001378:	4605      	mov	r5, r0
    if (I2C_WaitOnFlagUntilTimeout(hi2c, I2C_FLAG_BUSY, SET, I2C_TIMEOUT_BUSY, tickstart) != HAL_OK)
 800137a:	9000      	str	r0, [sp, #0]
 800137c:	463a      	mov	r2, r7
 800137e:	f44f 4100 	mov.w	r1, #32768	; 0x8000
 8001382:	4620      	mov	r0, r4
 8001384:	f7ff fe09 	bl	8000f9a <I2C_WaitOnFlagUntilTimeout>
 8001388:	b118      	cbz	r0, 8001392 <HAL_I2C_Master_Receive+0x46>
      return HAL_ERROR;
 800138a:	2001      	movs	r0, #1
}
 800138c:	b003      	add	sp, #12
 800138e:	e8bd 83f0 	ldmia.w	sp!, {r4, r5, r6, r7, r8, r9, pc}
    hi2c->State     = HAL_I2C_STATE_BUSY_RX;
 8001392:	2322      	movs	r3, #34	; 0x22
 8001394:	f884 3041 	strb.w	r3, [r4, #65]	; 0x41
    hi2c->Mode      = HAL_I2C_MODE_MASTER;
 8001398:	2310      	movs	r3, #16
 800139a:	f884 3042 	strb.w	r3, [r4, #66]	; 0x42
    hi2c->ErrorCode = HAL_I2C_ERROR_NONE;
 800139e:	6460      	str	r0, [r4, #68]	; 0x44
    hi2c->XferCount = Size;
 80013a0:	f8a4 802a 	strh.w	r8, [r4, #42]	; 0x2a
    if (hi2c->XferCount > MAX_NBYTE_SIZE)
 80013a4:	8d63      	ldrh	r3, [r4, #42]	; 0x2a
    hi2c->pBuffPtr  = pData;
 80013a6:	f8c4 9024 	str.w	r9, [r4, #36]	; 0x24
    if (hi2c->XferCount > MAX_NBYTE_SIZE)
 80013aa:	b29b      	uxth	r3, r3
 80013ac:	2bff      	cmp	r3, #255	; 0xff
    hi2c->XferISR   = NULL;
 80013ae:	6360      	str	r0, [r4, #52]	; 0x34
 80013b0:	4b30      	ldr	r3, [pc, #192]	; (8001474 <HAL_I2C_Master_Receive+0x128>)
    if (hi2c->XferCount > MAX_NBYTE_SIZE)
 80013b2:	d926      	bls.n	8001402 <HAL_I2C_Master_Receive+0xb6>
      hi2c->XferSize = MAX_NBYTE_SIZE;
 80013b4:	22ff      	movs	r2, #255	; 0xff
 80013b6:	8522      	strh	r2, [r4, #40]	; 0x28
      I2C_TransferConfig(hi2c, DevAddress, (uint8_t)hi2c->XferSize, I2C_RELOAD_MODE, I2C_GENERATE_START_READ);
 80013b8:	9300      	str	r3, [sp, #0]
          I2C_TransferConfig(hi2c, DevAddress, (uint8_t)hi2c->XferSize, I2C_RELOAD_MODE, I2C_NO_STARTSTOP);
 80013ba:	f04f 7380 	mov.w	r3, #16777216	; 0x1000000
          I2C_TransferConfig(hi2c, DevAddress, (uint8_t)hi2c->XferSize, I2C_AUTOEND_MODE, I2C_NO_STARTSTOP);
 80013be:	4631      	mov	r1, r6
 80013c0:	4620      	mov	r0, r4
 80013c2:	f7ff fdd0 	bl	8000f66 <I2C_TransferConfig>
    while (hi2c->XferCount > 0U)
 80013c6:	8d63      	ldrh	r3, [r4, #42]	; 0x2a
      if (I2C_WaitOnRXNEFlagUntilTimeout(hi2c, Timeout, tickstart) != HAL_OK)
 80013c8:	990a      	ldr	r1, [sp, #40]	; 0x28
    while (hi2c->XferCount > 0U)
 80013ca:	b29b      	uxth	r3, r3
      if (I2C_WaitOnRXNEFlagUntilTimeout(hi2c, Timeout, tickstart) != HAL_OK)
 80013cc:	462a      	mov	r2, r5
 80013ce:	4620      	mov	r0, r4
    while (hi2c->XferCount > 0U)
 80013d0:	b9fb      	cbnz	r3, 8001412 <HAL_I2C_Master_Receive+0xc6>
    if (I2C_WaitOnSTOPFlagUntilTimeout(hi2c, Timeout, tickstart) != HAL_OK)
 80013d2:	f7ff fe71 	bl	80010b8 <I2C_WaitOnSTOPFlagUntilTimeout>
 80013d6:	2800      	cmp	r0, #0
 80013d8:	d1d7      	bne.n	800138a <HAL_I2C_Master_Receive+0x3e>
    __HAL_I2C_CLEAR_FLAG(hi2c, I2C_FLAG_STOPF);
 80013da:	6823      	ldr	r3, [r4, #0]
 80013dc:	2120      	movs	r1, #32
 80013de:	61d9      	str	r1, [r3, #28]
    I2C_RESET_CR2(hi2c);
 80013e0:	685a      	ldr	r2, [r3, #4]
 80013e2:	f022 72ff 	bic.w	r2, r2, #33423360	; 0x1fe0000
 80013e6:	f422 328b 	bic.w	r2, r2, #71168	; 0x11600
 80013ea:	f422 72ff 	bic.w	r2, r2, #510	; 0x1fe
 80013ee:	f022 0201 	bic.w	r2, r2, #1
 80013f2:	605a      	str	r2, [r3, #4]
    hi2c->State = HAL_I2C_STATE_READY;
 80013f4:	f884 1041 	strb.w	r1, [r4, #65]	; 0x41
    __HAL_UNLOCK(hi2c);
 80013f8:	f884 0040 	strb.w	r0, [r4, #64]	; 0x40
    hi2c->Mode  = HAL_I2C_MODE_NONE;
 80013fc:	f884 0042 	strb.w	r0, [r4, #66]	; 0x42
    return HAL_OK;
 8001400:	e7c4      	b.n	800138c <HAL_I2C_Master_Receive+0x40>
      hi2c->XferSize = hi2c->XferCount;
 8001402:	8d62      	ldrh	r2, [r4, #42]	; 0x2a
      I2C_TransferConfig(hi2c, DevAddress, (uint8_t)hi2c->XferSize, I2C_AUTOEND_MODE, I2C_GENERATE_START_READ);
 8001404:	9300      	str	r3, [sp, #0]
      hi2c->XferSize = hi2c->XferCount;
 8001406:	b292      	uxth	r2, r2
 8001408:	8522      	strh	r2, [r4, #40]	; 0x28
          I2C_TransferConfig(hi2c, DevAddress, (uint8_t)hi2c->XferSize, I2C_AUTOEND_MODE, I2C_NO_STARTSTOP);
 800140a:	f04f 7300 	mov.w	r3, #33554432	; 0x2000000
 800140e:	b2d2      	uxtb	r2, r2
 8001410:	e7d5      	b.n	80013be <HAL_I2C_Master_Receive+0x72>
      if (I2C_WaitOnRXNEFlagUntilTimeout(hi2c, Timeout, tickstart) != HAL_OK)
 8001412:	f7ff fe76 	bl	8001102 <I2C_WaitOnRXNEFlagUntilTimeout>
 8001416:	2800      	cmp	r0, #0
 8001418:	d1b7      	bne.n	800138a <HAL_I2C_Master_Receive+0x3e>
      *hi2c->pBuffPtr = (uint8_t)hi2c->Instance->RXDR;
 800141a:	6822      	ldr	r2, [r4, #0]
 800141c:	6a63      	ldr	r3, [r4, #36]	; 0x24
 800141e:	6a52      	ldr	r2, [r2, #36]	; 0x24
 8001420:	701a      	strb	r2, [r3, #0]
      hi2c->pBuffPtr++;
 8001422:	6a63      	ldr	r3, [r4, #36]	; 0x24
      hi2c->XferSize--;
 8001424:	8d22      	ldrh	r2, [r4, #40]	; 0x28
      hi2c->pBuffPtr++;
 8001426:	3301      	adds	r3, #1
 8001428:	6263      	str	r3, [r4, #36]	; 0x24
      hi2c->XferCount--;
 800142a:	8d63      	ldrh	r3, [r4, #42]	; 0x2a
 800142c:	3b01      	subs	r3, #1
 800142e:	b29b      	uxth	r3, r3
 8001430:	8563      	strh	r3, [r4, #42]	; 0x2a
      if ((hi2c->XferCount != 0U) && (hi2c->XferSize == 0U))
 8001432:	8d63      	ldrh	r3, [r4, #42]	; 0x2a
      hi2c->XferSize--;
 8001434:	3a01      	subs	r2, #1
 8001436:	b292      	uxth	r2, r2
      if ((hi2c->XferCount != 0U) && (hi2c->XferSize == 0U))
 8001438:	b29b      	uxth	r3, r3
      hi2c->XferSize--;
 800143a:	8522      	strh	r2, [r4, #40]	; 0x28
      if ((hi2c->XferCount != 0U) && (hi2c->XferSize == 0U))
 800143c:	2b00      	cmp	r3, #0
 800143e:	d0c2      	beq.n	80013c6 <HAL_I2C_Master_Receive+0x7a>
 8001440:	2a00      	cmp	r2, #0
 8001442:	d1c0      	bne.n	80013c6 <HAL_I2C_Master_Receive+0x7a>
        if (I2C_WaitOnFlagUntilTimeout(hi2c, I2C_FLAG_TCR, RESET, Timeout, tickstart) != HAL_OK)
 8001444:	9500      	str	r5, [sp, #0]
 8001446:	9b0a      	ldr	r3, [sp, #40]	; 0x28
 8001448:	2180      	movs	r1, #128	; 0x80
 800144a:	4620      	mov	r0, r4
 800144c:	f7ff fda5 	bl	8000f9a <I2C_WaitOnFlagUntilTimeout>
 8001450:	2800      	cmp	r0, #0
 8001452:	d19a      	bne.n	800138a <HAL_I2C_Master_Receive+0x3e>
        if (hi2c->XferCount > MAX_NBYTE_SIZE)
 8001454:	8d63      	ldrh	r3, [r4, #42]	; 0x2a
 8001456:	b29b      	uxth	r3, r3
 8001458:	2bff      	cmp	r3, #255	; 0xff
 800145a:	d903      	bls.n	8001464 <HAL_I2C_Master_Receive+0x118>
          hi2c->XferSize = MAX_NBYTE_SIZE;
 800145c:	22ff      	movs	r2, #255	; 0xff
 800145e:	8522      	strh	r2, [r4, #40]	; 0x28
          I2C_TransferConfig(hi2c, DevAddress, (uint8_t)hi2c->XferSize, I2C_RELOAD_MODE, I2C_NO_STARTSTOP);
 8001460:	9000      	str	r0, [sp, #0]
 8001462:	e7aa      	b.n	80013ba <HAL_I2C_Master_Receive+0x6e>
          hi2c->XferSize = hi2c->XferCount;
 8001464:	8d62      	ldrh	r2, [r4, #42]	; 0x2a
          I2C_TransferConfig(hi2c, DevAddress, (uint8_t)hi2c->XferSize, I2C_AUTOEND_MODE, I2C_NO_STARTSTOP);
 8001466:	9000      	str	r0, [sp, #0]
          hi2c->XferSize = hi2c->XferCount;
 8001468:	b292      	uxth	r2, r2
 800146a:	8522      	strh	r2, [r4, #40]	; 0x28
 800146c:	e7cd      	b.n	800140a <HAL_I2C_Master_Receive+0xbe>
    return HAL_BUSY;
 800146e:	2002      	movs	r0, #2
 8001470:	e78c      	b.n	800138c <HAL_I2C_Master_Receive+0x40>
 8001472:	bf00      	nop
 8001474:	80002400 	.word	0x80002400

08001478 <HAL_I2CEx_ConfigAnalogFilter>:
{
  /* Check the parameters */
  assert_param(IS_I2C_ALL_INSTANCE(hi2c->Instance));
  assert_param(IS_I2C_ANALOG_FILTER(AnalogFilter));

  if (hi2c->State == HAL_I2C_STATE_READY)
 8001478:	f890 2041 	ldrb.w	r2, [r0, #65]	; 0x41
 800147c:	b2d2      	uxtb	r2, r2
 800147e:	2a20      	cmp	r2, #32
{
 8001480:	b510      	push	{r4, lr}
  if (hi2c->State == HAL_I2C_STATE_READY)
 8001482:	d11d      	bne.n	80014c0 <HAL_I2CEx_ConfigAnalogFilter+0x48>
  {
    /* Process Locked */
    __HAL_LOCK(hi2c);
 8001484:	f890 3040 	ldrb.w	r3, [r0, #64]	; 0x40
 8001488:	2b01      	cmp	r3, #1
 800148a:	d019      	beq.n	80014c0 <HAL_I2CEx_ConfigAnalogFilter+0x48>

    hi2c->State = HAL_I2C_STATE_BUSY;
 800148c:	2324      	movs	r3, #36	; 0x24
 800148e:	f880 3041 	strb.w	r3, [r0, #65]	; 0x41

    /* Disable the selected I2C peripheral */
    __HAL_I2C_DISABLE(hi2c);
 8001492:	6803      	ldr	r3, [r0, #0]
 8001494:	681c      	ldr	r4, [r3, #0]
 8001496:	f024 0401 	bic.w	r4, r4, #1
 800149a:	601c      	str	r4, [r3, #0]

    /* Reset I2Cx ANOFF bit */
    hi2c->Instance->CR1 &= ~(I2C_CR1_ANFOFF);
 800149c:	681c      	ldr	r4, [r3, #0]
 800149e:	f424 5480 	bic.w	r4, r4, #4096	; 0x1000
 80014a2:	601c      	str	r4, [r3, #0]

    /* Set analog filter bit*/
    hi2c->Instance->CR1 |= AnalogFilter;
 80014a4:	681c      	ldr	r4, [r3, #0]
 80014a6:	4321      	orrs	r1, r4
 80014a8:	6019      	str	r1, [r3, #0]

    __HAL_I2C_ENABLE(hi2c);
 80014aa:	6819      	ldr	r1, [r3, #0]
 80014ac:	f041 0101 	orr.w	r1, r1, #1
 80014b0:	6019      	str	r1, [r3, #0]

    hi2c->State = HAL_I2C_STATE_READY;

    /* Process Unlocked */
    __HAL_UNLOCK(hi2c);
 80014b2:	2300      	movs	r3, #0
    hi2c->State = HAL_I2C_STATE_READY;
 80014b4:	f880 2041 	strb.w	r2, [r0, #65]	; 0x41
    __HAL_UNLOCK(hi2c);
 80014b8:	f880 3040 	strb.w	r3, [r0, #64]	; 0x40

    return HAL_OK;
 80014bc:	4618      	mov	r0, r3
 80014be:	bd10      	pop	{r4, pc}
  }
  else
  {
    return HAL_BUSY;
 80014c0:	2002      	movs	r0, #2
  }
}
 80014c2:	bd10      	pop	{r4, pc}

080014c4 <HAL_I2CEx_ConfigDigitalFilter>:
  *                the configuration information for the specified I2Cx peripheral.
  * @param  DigitalFilter Coefficient of digital noise filter between Min_Data=0x00 and Max_Data=0x0F.
  * @retval HAL status
  */
HAL_StatusTypeDef HAL_I2CEx_ConfigDigitalFilter(I2C_HandleTypeDef *hi2c, uint32_t DigitalFilter)
{
 80014c4:	b510      	push	{r4, lr}

  /* Check the parameters */
  assert_param(IS_I2C_ALL_INSTANCE(hi2c->Instance));
  assert_param(IS_I2C_DIGITAL_FILTER(DigitalFilter));

  if (hi2c->State == HAL_I2C_STATE_READY)
 80014c6:	f890 4041 	ldrb.w	r4, [r0, #65]	; 0x41
 80014ca:	b2e4      	uxtb	r4, r4
 80014cc:	2c20      	cmp	r4, #32
 80014ce:	d11c      	bne.n	800150a <HAL_I2CEx_ConfigDigitalFilter+0x46>
  {
    /* Process Locked */
    __HAL_LOCK(hi2c);
 80014d0:	f890 3040 	ldrb.w	r3, [r0, #64]	; 0x40
 80014d4:	2b01      	cmp	r3, #1
 80014d6:	d018      	beq.n	800150a <HAL_I2CEx_ConfigDigitalFilter+0x46>

    hi2c->State = HAL_I2C_STATE_BUSY;
 80014d8:	2324      	movs	r3, #36	; 0x24
 80014da:	f880 3041 	strb.w	r3, [r0, #65]	; 0x41

    /* Disable the selected I2C peripheral */
    __HAL_I2C_DISABLE(hi2c);
 80014de:	6803      	ldr	r3, [r0, #0]
 80014e0:	681a      	ldr	r2, [r3, #0]
 80014e2:	f022 0201 	bic.w	r2, r2, #1
 80014e6:	601a      	str	r2, [r3, #0]

    /* Get the old register value */
    tmpreg = hi2c->Instance->CR1;
 80014e8:	681a      	ldr	r2, [r3, #0]

    /* Reset I2Cx DNF bits [11:8] */
    tmpreg &= ~(I2C_CR1_DNF);
 80014ea:	f422 6270 	bic.w	r2, r2, #3840	; 0xf00

    /* Set I2Cx DNF coefficient */
    tmpreg |= DigitalFilter << 8U;
 80014ee:	ea42 2101 	orr.w	r1, r2, r1, lsl #8

    /* Store the new register value */
    hi2c->Instance->CR1 = tmpreg;
 80014f2:	6019      	str	r1, [r3, #0]

    __HAL_I2C_ENABLE(hi2c);
 80014f4:	681a      	ldr	r2, [r3, #0]
 80014f6:	f042 0201 	orr.w	r2, r2, #1
 80014fa:	601a      	str	r2, [r3, #0]

    hi2c->State = HAL_I2C_STATE_READY;

    /* Process Unlocked */
    __HAL_UNLOCK(hi2c);
 80014fc:	2300      	movs	r3, #0
    hi2c->State = HAL_I2C_STATE_READY;
 80014fe:	f880 4041 	strb.w	r4, [r0, #65]	; 0x41
    __HAL_UNLOCK(hi2c);
 8001502:	f880 3040 	strb.w	r3, [r0, #64]	; 0x40

    return HAL_OK;
 8001506:	4618      	mov	r0, r3
 8001508:	bd10      	pop	{r4, pc}
  }
  else
  {
    return HAL_BUSY;
 800150a:	2002      	movs	r0, #2
  }
}
 800150c:	bd10      	pop	{r4, pc}
	...

08001510 <HAL_PWREx_GetVoltageRange>:
    else
    {
      return PWR_REGULATOR_VOLTAGE_SCALE1_BOOST;
    }
#else
  return  (PWR->CR1 & PWR_CR1_VOS);
 8001510:	4b02      	ldr	r3, [pc, #8]	; (800151c <HAL_PWREx_GetVoltageRange+0xc>)
 8001512:	6818      	ldr	r0, [r3, #0]
#endif
}
 8001514:	f400 60c0 	and.w	r0, r0, #1536	; 0x600
 8001518:	4770      	bx	lr
 800151a:	bf00      	nop
 800151c:	40007000 	.word	0x40007000

08001520 <HAL_PWREx_ControlVoltageScaling>:
  *        cleared before returning the status. If the flag is not cleared within
  *        50 microseconds, HAL_TIMEOUT status is reported.
  * @retval HAL Status
  */
HAL_StatusTypeDef HAL_PWREx_ControlVoltageScaling(uint32_t VoltageScaling)
{
 8001520:	4b17      	ldr	r3, [pc, #92]	; (8001580 <HAL_PWREx_ControlVoltageScaling+0x60>)
#else

  /* If Set Range 1 */
  if (VoltageScaling == PWR_REGULATOR_VOLTAGE_SCALE1)
  {
    if (READ_BIT(PWR->CR1, PWR_CR1_VOS) != PWR_REGULATOR_VOLTAGE_SCALE1)
 8001522:	681a      	ldr	r2, [r3, #0]
  if (VoltageScaling == PWR_REGULATOR_VOLTAGE_SCALE1)
 8001524:	f5b0 7f00 	cmp.w	r0, #512	; 0x200
    if (READ_BIT(PWR->CR1, PWR_CR1_VOS) != PWR_REGULATOR_VOLTAGE_SCALE1)
 8001528:	f402 62c0 	and.w	r2, r2, #1536	; 0x600
  if (VoltageScaling == PWR_REGULATOR_VOLTAGE_SCALE1)
 800152c:	d11c      	bne.n	8001568 <HAL_PWREx_ControlVoltageScaling+0x48>
    if (READ_BIT(PWR->CR1, PWR_CR1_VOS) != PWR_REGULATOR_VOLTAGE_SCALE1)
 800152e:	f5b2 7f00 	cmp.w	r2, #512	; 0x200
 8001532:	d015      	beq.n	8001560 <HAL_PWREx_ControlVoltageScaling+0x40>
    {
      /* Set Range 1 */
      MODIFY_REG(PWR->CR1, PWR_CR1_VOS, PWR_REGULATOR_VOLTAGE_SCALE1);
 8001534:	681a      	ldr	r2, [r3, #0]
 8001536:	f422 62c0 	bic.w	r2, r2, #1536	; 0x600
 800153a:	f442 7200 	orr.w	r2, r2, #512	; 0x200
 800153e:	601a      	str	r2, [r3, #0]

      /* Wait until VOSF is cleared */
      wait_loop_index = ((PWR_FLAG_SETTING_DELAY_US * SystemCoreClock) / 1000000U) + 1U;
 8001540:	4a10      	ldr	r2, [pc, #64]	; (8001584 <HAL_PWREx_ControlVoltageScaling+0x64>)
 8001542:	6811      	ldr	r1, [r2, #0]
 8001544:	2232      	movs	r2, #50	; 0x32
 8001546:	434a      	muls	r2, r1
 8001548:	490f      	ldr	r1, [pc, #60]	; (8001588 <HAL_PWREx_ControlVoltageScaling+0x68>)
 800154a:	fbb2 f2f1 	udiv	r2, r2, r1
 800154e:	4619      	mov	r1, r3
 8001550:	3201      	adds	r2, #1
      while ((HAL_IS_BIT_SET(PWR->SR2, PWR_SR2_VOSF)) && (wait_loop_index != 0U))
 8001552:	6958      	ldr	r0, [r3, #20]
 8001554:	0540      	lsls	r0, r0, #21
 8001556:	d500      	bpl.n	800155a <HAL_PWREx_ControlVoltageScaling+0x3a>
 8001558:	b922      	cbnz	r2, 8001564 <HAL_PWREx_ControlVoltageScaling+0x44>
      {
        wait_loop_index--;
      }
      if (HAL_IS_BIT_SET(PWR->SR2, PWR_SR2_VOSF))
 800155a:	694b      	ldr	r3, [r1, #20]
 800155c:	055b      	lsls	r3, r3, #21
 800155e:	d40d      	bmi.n	800157c <HAL_PWREx_ControlVoltageScaling+0x5c>
      /* No need to wait for VOSF to be cleared for this transition */
    }
  }
#endif

  return HAL_OK;
 8001560:	2000      	movs	r0, #0
 8001562:	4770      	bx	lr
        wait_loop_index--;
 8001564:	3a01      	subs	r2, #1
 8001566:	e7f4      	b.n	8001552 <HAL_PWREx_ControlVoltageScaling+0x32>
    if (READ_BIT(PWR->CR1, PWR_CR1_VOS) != PWR_REGULATOR_VOLTAGE_SCALE2)
 8001568:	f5b2 6f80 	cmp.w	r2, #1024	; 0x400
      MODIFY_REG(PWR->CR1, PWR_CR1_VOS, PWR_REGULATOR_VOLTAGE_SCALE2);
 800156c:	bf1f      	itttt	ne
 800156e:	681a      	ldrne	r2, [r3, #0]
 8001570:	f422 62c0 	bicne.w	r2, r2, #1536	; 0x600
 8001574:	f442 6280 	orrne.w	r2, r2, #1024	; 0x400
 8001578:	601a      	strne	r2, [r3, #0]
 800157a:	e7f1      	b.n	8001560 <HAL_PWREx_ControlVoltageScaling+0x40>
        return HAL_TIMEOUT;
 800157c:	2003      	movs	r0, #3
}
 800157e:	4770      	bx	lr
 8001580:	40007000 	.word	0x40007000
 8001584:	20000008 	.word	0x20000008
 8001588:	000f4240 	.word	0x000f4240

0800158c <HAL_PWREx_EnableVddIO2>:
  * @note  Remove VDDIO2 electrical and logical isolation, once VDDIO2 supply is present.
  * @retval None
  */
void HAL_PWREx_EnableVddIO2(void)
{
  SET_BIT(PWR->CR2, PWR_CR2_IOSV);
 800158c:	4a02      	ldr	r2, [pc, #8]	; (8001598 <HAL_PWREx_EnableVddIO2+0xc>)
 800158e:	6853      	ldr	r3, [r2, #4]
 8001590:	f443 7300 	orr.w	r3, r3, #512	; 0x200
 8001594:	6053      	str	r3, [r2, #4]
 8001596:	4770      	bx	lr
 8001598:	40007000 	.word	0x40007000

0800159c <RCC_SetFlashLatencyFromMSIRange>:
            voltage range.
  * @param  msirange  MSI range value from RCC_MSIRANGE_0 to RCC_MSIRANGE_11
  * @retval HAL status
  */
static HAL_StatusTypeDef RCC_SetFlashLatencyFromMSIRange(uint32_t msirange)
{
 800159c:	b537      	push	{r0, r1, r2, r4, r5, lr}
  uint32_t vos;
  uint32_t latency = FLASH_LATENCY_0;  /* default value 0WS */

  if(__HAL_RCC_PWR_IS_CLK_ENABLED())
 800159e:	4d1e      	ldr	r5, [pc, #120]	; (8001618 <RCC_SetFlashLatencyFromMSIRange+0x7c>)
 80015a0:	6dab      	ldr	r3, [r5, #88]	; 0x58
 80015a2:	00da      	lsls	r2, r3, #3
{
 80015a4:	4604      	mov	r4, r0
  if(__HAL_RCC_PWR_IS_CLK_ENABLED())
 80015a6:	d518      	bpl.n	80015da <RCC_SetFlashLatencyFromMSIRange+0x3e>
  {
    vos = HAL_PWREx_GetVoltageRange();
 80015a8:	f7ff ffb2 	bl	8001510 <HAL_PWREx_GetVoltageRange>
    __HAL_RCC_PWR_CLK_ENABLE();
    vos = HAL_PWREx_GetVoltageRange();
    __HAL_RCC_PWR_CLK_DISABLE();
  }

  if(vos == PWR_REGULATOR_VOLTAGE_SCALE1)
 80015ac:	f5b0 7f00 	cmp.w	r0, #512	; 0x200
 80015b0:	d123      	bne.n	80015fa <RCC_SetFlashLatencyFromMSIRange+0x5e>
  {
    if(msirange > RCC_MSIRANGE_8)
 80015b2:	2c80      	cmp	r4, #128	; 0x80
 80015b4:	d929      	bls.n	800160a <RCC_SetFlashLatencyFromMSIRange+0x6e>
    {
      /* MSI > 16Mhz */
      if(msirange > RCC_MSIRANGE_10)
 80015b6:	2ca0      	cmp	r4, #160	; 0xa0
        latency = FLASH_LATENCY_2; /* 2WS */
      }
      else
      {
        /* MSI 24Mhz or 32Mhz */
        latency = FLASH_LATENCY_1; /* 1WS */
 80015b8:	bf8c      	ite	hi
 80015ba:	2002      	movhi	r0, #2
 80015bc:	2001      	movls	r0, #1
      /* else MSI < 8Mhz default FLASH_LATENCY_0 0WS */
    }
#endif
  }

  __HAL_FLASH_SET_LATENCY(latency);
 80015be:	4a17      	ldr	r2, [pc, #92]	; (800161c <RCC_SetFlashLatencyFromMSIRange+0x80>)
 80015c0:	6813      	ldr	r3, [r2, #0]
 80015c2:	f023 0307 	bic.w	r3, r3, #7
 80015c6:	4303      	orrs	r3, r0
 80015c8:	6013      	str	r3, [r2, #0]

  /* Check that the new number of wait states is taken into account to access the Flash
     memory by reading the FLASH_ACR register */
  if(__HAL_FLASH_GET_LATENCY() != latency)
 80015ca:	6813      	ldr	r3, [r2, #0]
 80015cc:	f003 0307 	and.w	r3, r3, #7
  {
    return HAL_ERROR;
  }

  return HAL_OK;
}
 80015d0:	1a18      	subs	r0, r3, r0
 80015d2:	bf18      	it	ne
 80015d4:	2001      	movne	r0, #1
 80015d6:	b003      	add	sp, #12
 80015d8:	bd30      	pop	{r4, r5, pc}
    __HAL_RCC_PWR_CLK_ENABLE();
 80015da:	6dab      	ldr	r3, [r5, #88]	; 0x58
 80015dc:	f043 5380 	orr.w	r3, r3, #268435456	; 0x10000000
 80015e0:	65ab      	str	r3, [r5, #88]	; 0x58
 80015e2:	6dab      	ldr	r3, [r5, #88]	; 0x58
 80015e4:	f003 5380 	and.w	r3, r3, #268435456	; 0x10000000
 80015e8:	9301      	str	r3, [sp, #4]
 80015ea:	9b01      	ldr	r3, [sp, #4]
    vos = HAL_PWREx_GetVoltageRange();
 80015ec:	f7ff ff90 	bl	8001510 <HAL_PWREx_GetVoltageRange>
    __HAL_RCC_PWR_CLK_DISABLE();
 80015f0:	6dab      	ldr	r3, [r5, #88]	; 0x58
 80015f2:	f023 5380 	bic.w	r3, r3, #268435456	; 0x10000000
 80015f6:	65ab      	str	r3, [r5, #88]	; 0x58
 80015f8:	e7d8      	b.n	80015ac <RCC_SetFlashLatencyFromMSIRange+0x10>
    if(msirange > RCC_MSIRANGE_8)
 80015fa:	2c80      	cmp	r4, #128	; 0x80
 80015fc:	d807      	bhi.n	800160e <RCC_SetFlashLatencyFromMSIRange+0x72>
      if(msirange == RCC_MSIRANGE_8)
 80015fe:	d008      	beq.n	8001612 <RCC_SetFlashLatencyFromMSIRange+0x76>
      else if(msirange == RCC_MSIRANGE_7)
 8001600:	f1a4 0370 	sub.w	r3, r4, #112	; 0x70
 8001604:	4258      	negs	r0, r3
 8001606:	4158      	adcs	r0, r3
 8001608:	e7d9      	b.n	80015be <RCC_SetFlashLatencyFromMSIRange+0x22>
  uint32_t latency = FLASH_LATENCY_0;  /* default value 0WS */
 800160a:	2000      	movs	r0, #0
 800160c:	e7d7      	b.n	80015be <RCC_SetFlashLatencyFromMSIRange+0x22>
      latency = FLASH_LATENCY_3; /* 3WS */
 800160e:	2003      	movs	r0, #3
 8001610:	e7d5      	b.n	80015be <RCC_SetFlashLatencyFromMSIRange+0x22>
        latency = FLASH_LATENCY_2; /* 2WS */
 8001612:	2002      	movs	r0, #2
 8001614:	e7d3      	b.n	80015be <RCC_SetFlashLatencyFromMSIRange+0x22>
 8001616:	bf00      	nop
 8001618:	40021000 	.word	0x40021000
 800161c:	40022000 	.word	0x40022000

08001620 <HAL_RCC_GetSysClockFreq>:
  sysclk_source = __HAL_RCC_GET_SYSCLK_SOURCE();
 8001620:	4b22      	ldr	r3, [pc, #136]	; (80016ac <HAL_RCC_GetSysClockFreq+0x8c>)
 8001622:	689a      	ldr	r2, [r3, #8]
  pll_oscsource = __HAL_RCC_GET_PLL_OSCSOURCE();
 8001624:	68d9      	ldr	r1, [r3, #12]
  if((sysclk_source == RCC_CFGR_SWS_MSI) ||
 8001626:	f012 020c 	ands.w	r2, r2, #12
 800162a:	d005      	beq.n	8001638 <HAL_RCC_GetSysClockFreq+0x18>
 800162c:	2a0c      	cmp	r2, #12
 800162e:	d115      	bne.n	800165c <HAL_RCC_GetSysClockFreq+0x3c>
  pll_oscsource = __HAL_RCC_GET_PLL_OSCSOURCE();
 8001630:	f001 0103 	and.w	r1, r1, #3
     ((sysclk_source == RCC_CFGR_SWS_PLL) && (pll_oscsource == RCC_PLLSOURCE_MSI)))
 8001634:	2901      	cmp	r1, #1
 8001636:	d118      	bne.n	800166a <HAL_RCC_GetSysClockFreq+0x4a>
    if(READ_BIT(RCC->CR, RCC_CR_MSIRGSEL) == 0U)
 8001638:	6819      	ldr	r1, [r3, #0]
    msirange = MSIRangeTable[msirange];
 800163a:	481d      	ldr	r0, [pc, #116]	; (80016b0 <HAL_RCC_GetSysClockFreq+0x90>)
    if(READ_BIT(RCC->CR, RCC_CR_MSIRGSEL) == 0U)
 800163c:	0709      	lsls	r1, r1, #28
      msirange = READ_BIT(RCC->CSR, RCC_CSR_MSISRANGE) >> RCC_CSR_MSISRANGE_Pos;
 800163e:	bf55      	itete	pl
 8001640:	f8d3 1094 	ldrpl.w	r1, [r3, #148]	; 0x94
      msirange = READ_BIT(RCC->CR, RCC_CR_MSIRANGE) >> RCC_CR_MSIRANGE_Pos;
 8001644:	6819      	ldrmi	r1, [r3, #0]
      msirange = READ_BIT(RCC->CSR, RCC_CSR_MSISRANGE) >> RCC_CSR_MSISRANGE_Pos;
 8001646:	f3c1 2103 	ubfxpl	r1, r1, #8, #4
      msirange = READ_BIT(RCC->CR, RCC_CR_MSIRANGE) >> RCC_CR_MSIRANGE_Pos;
 800164a:	f3c1 1103 	ubfxmi	r1, r1, #4, #4
    msirange = MSIRangeTable[msirange];
 800164e:	f850 0021 	ldr.w	r0, [r0, r1, lsl #2]
    if(sysclk_source == RCC_CFGR_SWS_MSI)
 8001652:	b34a      	cbz	r2, 80016a8 <HAL_RCC_GetSysClockFreq+0x88>
  if(sysclk_source == RCC_CFGR_SWS_PLL)
 8001654:	2a0c      	cmp	r2, #12
 8001656:	d009      	beq.n	800166c <HAL_RCC_GetSysClockFreq+0x4c>
 8001658:	2000      	movs	r0, #0
  return sysclockfreq;
 800165a:	4770      	bx	lr
  else if(sysclk_source == RCC_CFGR_SWS_HSI)
 800165c:	2a04      	cmp	r2, #4
 800165e:	d022      	beq.n	80016a6 <HAL_RCC_GetSysClockFreq+0x86>
 8001660:	2a08      	cmp	r2, #8
 8001662:	4814      	ldr	r0, [pc, #80]	; (80016b4 <HAL_RCC_GetSysClockFreq+0x94>)
 8001664:	bf18      	it	ne
 8001666:	2000      	movne	r0, #0
 8001668:	4770      	bx	lr
  uint32_t msirange = 0U, sysclockfreq = 0U;
 800166a:	2000      	movs	r0, #0
    pllsource = READ_BIT(RCC->PLLCFGR, RCC_PLLCFGR_PLLSRC);
 800166c:	68da      	ldr	r2, [r3, #12]
 800166e:	f002 0203 	and.w	r2, r2, #3
    switch (pllsource)
 8001672:	2a02      	cmp	r2, #2
 8001674:	d015      	beq.n	80016a2 <HAL_RCC_GetSysClockFreq+0x82>
      pllvco = HSE_VALUE;
 8001676:	490f      	ldr	r1, [pc, #60]	; (80016b4 <HAL_RCC_GetSysClockFreq+0x94>)
 8001678:	2a03      	cmp	r2, #3
 800167a:	bf08      	it	eq
 800167c:	4608      	moveq	r0, r1
    pllm = (READ_BIT(RCC->PLLCFGR, RCC_PLLCFGR_PLLM) >> RCC_PLLCFGR_PLLM_Pos) + 1U ;
 800167e:	68da      	ldr	r2, [r3, #12]
    pllvco = (pllvco * (READ_BIT(RCC->PLLCFGR, RCC_PLLCFGR_PLLN) >> RCC_PLLCFGR_PLLN_Pos)) / pllm;
 8001680:	68d9      	ldr	r1, [r3, #12]
    pllr = ((READ_BIT(RCC->PLLCFGR, RCC_PLLCFGR_PLLR) >> RCC_PLLCFGR_PLLR_Pos) + 1U ) * 2U;
 8001682:	68db      	ldr	r3, [r3, #12]
 8001684:	f3c3 6341 	ubfx	r3, r3, #25, #2
    pllvco = (pllvco * (READ_BIT(RCC->PLLCFGR, RCC_PLLCFGR_PLLN) >> RCC_PLLCFGR_PLLN_Pos)) / pllm;
 8001688:	f3c1 2106 	ubfx	r1, r1, #8, #7
    pllm = (READ_BIT(RCC->PLLCFGR, RCC_PLLCFGR_PLLM) >> RCC_PLLCFGR_PLLM_Pos) + 1U ;
 800168c:	f3c2 1202 	ubfx	r2, r2, #4, #3
    pllr = ((READ_BIT(RCC->PLLCFGR, RCC_PLLCFGR_PLLR) >> RCC_PLLCFGR_PLLR_Pos) + 1U ) * 2U;
 8001690:	3301      	adds	r3, #1
    pllvco = (pllvco * (READ_BIT(RCC->PLLCFGR, RCC_PLLCFGR_PLLN) >> RCC_PLLCFGR_PLLN_Pos)) / pllm;
 8001692:	4348      	muls	r0, r1
    pllm = (READ_BIT(RCC->PLLCFGR, RCC_PLLCFGR_PLLM) >> RCC_PLLCFGR_PLLM_Pos) + 1U ;
 8001694:	3201      	adds	r2, #1
    pllr = ((READ_BIT(RCC->PLLCFGR, RCC_PLLCFGR_PLLR) >> RCC_PLLCFGR_PLLR_Pos) + 1U ) * 2U;
 8001696:	005b      	lsls	r3, r3, #1
    pllvco = (pllvco * (READ_BIT(RCC->PLLCFGR, RCC_PLLCFGR_PLLN) >> RCC_PLLCFGR_PLLN_Pos)) / pllm;
 8001698:	fbb0 f0f2 	udiv	r0, r0, r2
    sysclockfreq = pllvco / pllr;
 800169c:	fbb0 f0f3 	udiv	r0, r0, r3
 80016a0:	4770      	bx	lr
      pllvco = HSI_VALUE;
 80016a2:	4805      	ldr	r0, [pc, #20]	; (80016b8 <HAL_RCC_GetSysClockFreq+0x98>)
 80016a4:	e7eb      	b.n	800167e <HAL_RCC_GetSysClockFreq+0x5e>
    sysclockfreq = HSI_VALUE;
 80016a6:	4804      	ldr	r0, [pc, #16]	; (80016b8 <HAL_RCC_GetSysClockFreq+0x98>)
}
 80016a8:	4770      	bx	lr
 80016aa:	bf00      	nop
 80016ac:	40021000 	.word	0x40021000
 80016b0:	080041d0 	.word	0x080041d0
 80016b4:	007a1200 	.word	0x007a1200
 80016b8:	00f42400 	.word	0x00f42400

080016bc <HAL_RCC_OscConfig>:
{
 80016bc:	e92d 43f7 	stmdb	sp!, {r0, r1, r2, r4, r5, r6, r7, r8, r9, lr}
  if(RCC_OscInitStruct == NULL)
 80016c0:	4605      	mov	r5, r0
 80016c2:	b908      	cbnz	r0, 80016c8 <HAL_RCC_OscConfig+0xc>
          return HAL_ERROR;
 80016c4:	2001      	movs	r0, #1
 80016c6:	e047      	b.n	8001758 <HAL_RCC_OscConfig+0x9c>
  sysclk_source = __HAL_RCC_GET_SYSCLK_SOURCE();
 80016c8:	4c9f      	ldr	r4, [pc, #636]	; (8001948 <HAL_RCC_OscConfig+0x28c>)
  if(((RCC_OscInitStruct->OscillatorType) & RCC_OSCILLATORTYPE_MSI) == RCC_OSCILLATORTYPE_MSI)
 80016ca:	6803      	ldr	r3, [r0, #0]
  sysclk_source = __HAL_RCC_GET_SYSCLK_SOURCE();
 80016cc:	68a6      	ldr	r6, [r4, #8]
  pll_config = __HAL_RCC_GET_PLL_OSCSOURCE();
 80016ce:	68e7      	ldr	r7, [r4, #12]
  if(((RCC_OscInitStruct->OscillatorType) & RCC_OSCILLATORTYPE_MSI) == RCC_OSCILLATORTYPE_MSI)
 80016d0:	06db      	lsls	r3, r3, #27
  sysclk_source = __HAL_RCC_GET_SYSCLK_SOURCE();
 80016d2:	f006 060c 	and.w	r6, r6, #12
  pll_config = __HAL_RCC_GET_PLL_OSCSOURCE();
 80016d6:	f007 0703 	and.w	r7, r7, #3
  if(((RCC_OscInitStruct->OscillatorType) & RCC_OSCILLATORTYPE_MSI) == RCC_OSCILLATORTYPE_MSI)
 80016da:	d575      	bpl.n	80017c8 <HAL_RCC_OscConfig+0x10c>
    if((sysclk_source == RCC_CFGR_SWS_MSI) ||
 80016dc:	b11e      	cbz	r6, 80016e6 <HAL_RCC_OscConfig+0x2a>
 80016de:	2e0c      	cmp	r6, #12
 80016e0:	d154      	bne.n	800178c <HAL_RCC_OscConfig+0xd0>
       ((sysclk_source == RCC_CFGR_SWS_PLL) && (pll_config == RCC_PLLSOURCE_MSI)))
 80016e2:	2f01      	cmp	r7, #1
 80016e4:	d152      	bne.n	800178c <HAL_RCC_OscConfig+0xd0>
      if((READ_BIT(RCC->CR, RCC_CR_MSIRDY) != 0U) && (RCC_OscInitStruct->MSIState == RCC_MSI_OFF))
 80016e6:	6823      	ldr	r3, [r4, #0]
 80016e8:	0798      	lsls	r0, r3, #30
 80016ea:	d502      	bpl.n	80016f2 <HAL_RCC_OscConfig+0x36>
 80016ec:	69ab      	ldr	r3, [r5, #24]
 80016ee:	2b00      	cmp	r3, #0
 80016f0:	d0e8      	beq.n	80016c4 <HAL_RCC_OscConfig+0x8>
        if(RCC_OscInitStruct->MSIClockRange > __HAL_RCC_GET_MSI_RANGE())
 80016f2:	6823      	ldr	r3, [r4, #0]
 80016f4:	6a28      	ldr	r0, [r5, #32]
 80016f6:	0719      	lsls	r1, r3, #28
 80016f8:	bf56      	itet	pl
 80016fa:	f8d4 3094 	ldrpl.w	r3, [r4, #148]	; 0x94
 80016fe:	6823      	ldrmi	r3, [r4, #0]
 8001700:	091b      	lsrpl	r3, r3, #4
 8001702:	f003 03f0 	and.w	r3, r3, #240	; 0xf0
 8001706:	4283      	cmp	r3, r0
 8001708:	d229      	bcs.n	800175e <HAL_RCC_OscConfig+0xa2>
          if(RCC_SetFlashLatencyFromMSIRange(RCC_OscInitStruct->MSIClockRange) != HAL_OK)
 800170a:	f7ff ff47 	bl	800159c <RCC_SetFlashLatencyFromMSIRange>
 800170e:	2800      	cmp	r0, #0
 8001710:	d1d8      	bne.n	80016c4 <HAL_RCC_OscConfig+0x8>
          __HAL_RCC_MSI_RANGE_CONFIG(RCC_OscInitStruct->MSIClockRange);
 8001712:	6823      	ldr	r3, [r4, #0]
 8001714:	f043 0308 	orr.w	r3, r3, #8
 8001718:	6023      	str	r3, [r4, #0]
 800171a:	6823      	ldr	r3, [r4, #0]
 800171c:	6a2a      	ldr	r2, [r5, #32]
 800171e:	f023 03f0 	bic.w	r3, r3, #240	; 0xf0
 8001722:	4313      	orrs	r3, r2
 8001724:	6023      	str	r3, [r4, #0]
          __HAL_RCC_MSI_CALIBRATIONVALUE_ADJUST(RCC_OscInitStruct->MSICalibrationValue);
 8001726:	6863      	ldr	r3, [r4, #4]
 8001728:	69ea      	ldr	r2, [r5, #28]
 800172a:	f423 437f 	bic.w	r3, r3, #65280	; 0xff00
 800172e:	ea43 2302 	orr.w	r3, r3, r2, lsl #8
 8001732:	6063      	str	r3, [r4, #4]
        SystemCoreClock = HAL_RCC_GetSysClockFreq() >> (AHBPrescTable[READ_BIT(RCC->CFGR, RCC_CFGR_HPRE) >> RCC_CFGR_HPRE_Pos] & 0x1FU);
 8001734:	f7ff ff74 	bl	8001620 <HAL_RCC_GetSysClockFreq>
 8001738:	68a3      	ldr	r3, [r4, #8]
 800173a:	4a84      	ldr	r2, [pc, #528]	; (800194c <HAL_RCC_OscConfig+0x290>)
 800173c:	f3c3 1303 	ubfx	r3, r3, #4, #4
 8001740:	5cd3      	ldrb	r3, [r2, r3]
 8001742:	f003 031f 	and.w	r3, r3, #31
 8001746:	40d8      	lsrs	r0, r3
 8001748:	4b81      	ldr	r3, [pc, #516]	; (8001950 <HAL_RCC_OscConfig+0x294>)
 800174a:	6018      	str	r0, [r3, #0]
        status = HAL_InitTick(uwTickPrio);
 800174c:	4b81      	ldr	r3, [pc, #516]	; (8001954 <HAL_RCC_OscConfig+0x298>)
 800174e:	6818      	ldr	r0, [r3, #0]
 8001750:	f7fe ff2e 	bl	80005b0 <HAL_InitTick>
        if(status != HAL_OK)
 8001754:	2800      	cmp	r0, #0
 8001756:	d037      	beq.n	80017c8 <HAL_RCC_OscConfig+0x10c>
}
 8001758:	b003      	add	sp, #12
 800175a:	e8bd 83f0 	ldmia.w	sp!, {r4, r5, r6, r7, r8, r9, pc}
          __HAL_RCC_MSI_RANGE_CONFIG(RCC_OscInitStruct->MSIClockRange);
 800175e:	6823      	ldr	r3, [r4, #0]
 8001760:	f043 0308 	orr.w	r3, r3, #8
 8001764:	6023      	str	r3, [r4, #0]
 8001766:	6823      	ldr	r3, [r4, #0]
 8001768:	f023 03f0 	bic.w	r3, r3, #240	; 0xf0
 800176c:	4303      	orrs	r3, r0
 800176e:	6023      	str	r3, [r4, #0]
          __HAL_RCC_MSI_CALIBRATIONVALUE_ADJUST(RCC_OscInitStruct->MSICalibrationValue);
 8001770:	6863      	ldr	r3, [r4, #4]
 8001772:	69ea      	ldr	r2, [r5, #28]
 8001774:	f423 437f 	bic.w	r3, r3, #65280	; 0xff00
 8001778:	ea43 2302 	orr.w	r3, r3, r2, lsl #8
 800177c:	6063      	str	r3, [r4, #4]
          if(sysclk_source == RCC_CFGR_SWS_MSI)
 800177e:	2e00      	cmp	r6, #0
 8001780:	d1d8      	bne.n	8001734 <HAL_RCC_OscConfig+0x78>
            if(RCC_SetFlashLatencyFromMSIRange(RCC_OscInitStruct->MSIClockRange) != HAL_OK)
 8001782:	f7ff ff0b 	bl	800159c <RCC_SetFlashLatencyFromMSIRange>
 8001786:	2800      	cmp	r0, #0
 8001788:	d0d4      	beq.n	8001734 <HAL_RCC_OscConfig+0x78>
 800178a:	e79b      	b.n	80016c4 <HAL_RCC_OscConfig+0x8>
      if(RCC_OscInitStruct->MSIState != RCC_MSI_OFF)
 800178c:	69ab      	ldr	r3, [r5, #24]
 800178e:	2b00      	cmp	r3, #0
 8001790:	d03a      	beq.n	8001808 <HAL_RCC_OscConfig+0x14c>
        __HAL_RCC_MSI_ENABLE();
 8001792:	6823      	ldr	r3, [r4, #0]
 8001794:	f043 0301 	orr.w	r3, r3, #1
 8001798:	6023      	str	r3, [r4, #0]
        tickstart = HAL_GetTick();
 800179a:	f7fe ff4b 	bl	8000634 <HAL_GetTick>
 800179e:	4680      	mov	r8, r0
        while(READ_BIT(RCC->CR, RCC_CR_MSIRDY) == 0U)
 80017a0:	6823      	ldr	r3, [r4, #0]
 80017a2:	079a      	lsls	r2, r3, #30
 80017a4:	d528      	bpl.n	80017f8 <HAL_RCC_OscConfig+0x13c>
        __HAL_RCC_MSI_RANGE_CONFIG(RCC_OscInitStruct->MSIClockRange);
 80017a6:	6823      	ldr	r3, [r4, #0]
 80017a8:	f043 0308 	orr.w	r3, r3, #8
 80017ac:	6023      	str	r3, [r4, #0]
 80017ae:	6823      	ldr	r3, [r4, #0]
 80017b0:	6a2a      	ldr	r2, [r5, #32]
 80017b2:	f023 03f0 	bic.w	r3, r3, #240	; 0xf0
 80017b6:	4313      	orrs	r3, r2
 80017b8:	6023      	str	r3, [r4, #0]
        __HAL_RCC_MSI_CALIBRATIONVALUE_ADJUST(RCC_OscInitStruct->MSICalibrationValue);
 80017ba:	6863      	ldr	r3, [r4, #4]
 80017bc:	69ea      	ldr	r2, [r5, #28]
 80017be:	f423 437f 	bic.w	r3, r3, #65280	; 0xff00
 80017c2:	ea43 2302 	orr.w	r3, r3, r2, lsl #8
 80017c6:	6063      	str	r3, [r4, #4]
  if(((RCC_OscInitStruct->OscillatorType) & RCC_OSCILLATORTYPE_HSE) == RCC_OSCILLATORTYPE_HSE)
 80017c8:	682b      	ldr	r3, [r5, #0]
 80017ca:	07d8      	lsls	r0, r3, #31
 80017cc:	d42d      	bmi.n	800182a <HAL_RCC_OscConfig+0x16e>
  if(((RCC_OscInitStruct->OscillatorType) & RCC_OSCILLATORTYPE_HSI) == RCC_OSCILLATORTYPE_HSI)
 80017ce:	682b      	ldr	r3, [r5, #0]
 80017d0:	0799      	lsls	r1, r3, #30
 80017d2:	d46b      	bmi.n	80018ac <HAL_RCC_OscConfig+0x1f0>
  if(((RCC_OscInitStruct->OscillatorType) & RCC_OSCILLATORTYPE_LSI) == RCC_OSCILLATORTYPE_LSI)
 80017d4:	682b      	ldr	r3, [r5, #0]
 80017d6:	0718      	lsls	r0, r3, #28
 80017d8:	f100 80a0 	bmi.w	800191c <HAL_RCC_OscConfig+0x260>
  if(((RCC_OscInitStruct->OscillatorType) & RCC_OSCILLATORTYPE_LSE) == RCC_OSCILLATORTYPE_LSE)
 80017dc:	682b      	ldr	r3, [r5, #0]
 80017de:	0759      	lsls	r1, r3, #29
 80017e0:	f100 80ce 	bmi.w	8001980 <HAL_RCC_OscConfig+0x2c4>
  if(((RCC_OscInitStruct->OscillatorType) & RCC_OSCILLATORTYPE_HSI48) == RCC_OSCILLATORTYPE_HSI48)
 80017e4:	682b      	ldr	r3, [r5, #0]
 80017e6:	069f      	lsls	r7, r3, #26
 80017e8:	f100 8137 	bmi.w	8001a5a <HAL_RCC_OscConfig+0x39e>
  if(RCC_OscInitStruct->PLL.PLLState != RCC_PLL_NONE)
 80017ec:	6aab      	ldr	r3, [r5, #40]	; 0x28
 80017ee:	2b00      	cmp	r3, #0
 80017f0:	f040 815d 	bne.w	8001aae <HAL_RCC_OscConfig+0x3f2>
  return HAL_OK;
 80017f4:	2000      	movs	r0, #0
 80017f6:	e7af      	b.n	8001758 <HAL_RCC_OscConfig+0x9c>
          if((HAL_GetTick() - tickstart) > MSI_TIMEOUT_VALUE)
 80017f8:	f7fe ff1c 	bl	8000634 <HAL_GetTick>
 80017fc:	eba0 0008 	sub.w	r0, r0, r8
 8001800:	2802      	cmp	r0, #2
 8001802:	d9cd      	bls.n	80017a0 <HAL_RCC_OscConfig+0xe4>
            return HAL_TIMEOUT;
 8001804:	2003      	movs	r0, #3
 8001806:	e7a7      	b.n	8001758 <HAL_RCC_OscConfig+0x9c>
        __HAL_RCC_MSI_DISABLE();
 8001808:	6823      	ldr	r3, [r4, #0]
 800180a:	f023 0301 	bic.w	r3, r3, #1
 800180e:	6023      	str	r3, [r4, #0]
        tickstart = HAL_GetTick();
 8001810:	f7fe ff10 	bl	8000634 <HAL_GetTick>
 8001814:	4680      	mov	r8, r0
        while(READ_BIT(RCC->CR, RCC_CR_MSIRDY) != 0U)
 8001816:	6823      	ldr	r3, [r4, #0]
 8001818:	079b      	lsls	r3, r3, #30
 800181a:	d5d5      	bpl.n	80017c8 <HAL_RCC_OscConfig+0x10c>
          if((HAL_GetTick() - tickstart) > MSI_TIMEOUT_VALUE)
 800181c:	f7fe ff0a 	bl	8000634 <HAL_GetTick>
 8001820:	eba0 0008 	sub.w	r0, r0, r8
 8001824:	2802      	cmp	r0, #2
 8001826:	d9f6      	bls.n	8001816 <HAL_RCC_OscConfig+0x15a>
 8001828:	e7ec      	b.n	8001804 <HAL_RCC_OscConfig+0x148>
    if((sysclk_source == RCC_CFGR_SWS_HSE) ||
 800182a:	2e08      	cmp	r6, #8
 800182c:	d003      	beq.n	8001836 <HAL_RCC_OscConfig+0x17a>
 800182e:	2e0c      	cmp	r6, #12
 8001830:	d108      	bne.n	8001844 <HAL_RCC_OscConfig+0x188>
       ((sysclk_source == RCC_CFGR_SWS_PLL) && (pll_config == RCC_PLLSOURCE_HSE)))
 8001832:	2f03      	cmp	r7, #3
 8001834:	d106      	bne.n	8001844 <HAL_RCC_OscConfig+0x188>
      if((READ_BIT(RCC->CR, RCC_CR_HSERDY) != 0U) && (RCC_OscInitStruct->HSEState == RCC_HSE_OFF))
 8001836:	6823      	ldr	r3, [r4, #0]
 8001838:	039a      	lsls	r2, r3, #14
 800183a:	d5c8      	bpl.n	80017ce <HAL_RCC_OscConfig+0x112>
 800183c:	686b      	ldr	r3, [r5, #4]
 800183e:	2b00      	cmp	r3, #0
 8001840:	d1c5      	bne.n	80017ce <HAL_RCC_OscConfig+0x112>
 8001842:	e73f      	b.n	80016c4 <HAL_RCC_OscConfig+0x8>
      __HAL_RCC_HSE_CONFIG(RCC_OscInitStruct->HSEState);
 8001844:	686b      	ldr	r3, [r5, #4]
 8001846:	f5b3 3f80 	cmp.w	r3, #65536	; 0x10000
 800184a:	d110      	bne.n	800186e <HAL_RCC_OscConfig+0x1b2>
 800184c:	6823      	ldr	r3, [r4, #0]
 800184e:	f443 3380 	orr.w	r3, r3, #65536	; 0x10000
 8001852:	6023      	str	r3, [r4, #0]
        tickstart = HAL_GetTick();
 8001854:	f7fe feee 	bl	8000634 <HAL_GetTick>
 8001858:	4680      	mov	r8, r0
        while(READ_BIT(RCC->CR, RCC_CR_HSERDY) == 0U)
 800185a:	6823      	ldr	r3, [r4, #0]
 800185c:	039b      	lsls	r3, r3, #14
 800185e:	d4b6      	bmi.n	80017ce <HAL_RCC_OscConfig+0x112>
          if((HAL_GetTick() - tickstart) > HSE_TIMEOUT_VALUE)
 8001860:	f7fe fee8 	bl	8000634 <HAL_GetTick>
 8001864:	eba0 0008 	sub.w	r0, r0, r8
 8001868:	2864      	cmp	r0, #100	; 0x64
 800186a:	d9f6      	bls.n	800185a <HAL_RCC_OscConfig+0x19e>
 800186c:	e7ca      	b.n	8001804 <HAL_RCC_OscConfig+0x148>
      __HAL_RCC_HSE_CONFIG(RCC_OscInitStruct->HSEState);
 800186e:	f5b3 2fa0 	cmp.w	r3, #327680	; 0x50000
 8001872:	d104      	bne.n	800187e <HAL_RCC_OscConfig+0x1c2>
 8001874:	6823      	ldr	r3, [r4, #0]
 8001876:	f443 2380 	orr.w	r3, r3, #262144	; 0x40000
 800187a:	6023      	str	r3, [r4, #0]
 800187c:	e7e6      	b.n	800184c <HAL_RCC_OscConfig+0x190>
 800187e:	6822      	ldr	r2, [r4, #0]
 8001880:	f422 3280 	bic.w	r2, r2, #65536	; 0x10000
 8001884:	6022      	str	r2, [r4, #0]
 8001886:	6822      	ldr	r2, [r4, #0]
 8001888:	f422 2280 	bic.w	r2, r2, #262144	; 0x40000
 800188c:	6022      	str	r2, [r4, #0]
      if(RCC_OscInitStruct->HSEState != RCC_HSE_OFF)
 800188e:	2b00      	cmp	r3, #0
 8001890:	d1e0      	bne.n	8001854 <HAL_RCC_OscConfig+0x198>
        tickstart = HAL_GetTick();
 8001892:	f7fe fecf 	bl	8000634 <HAL_GetTick>
 8001896:	4680      	mov	r8, r0
        while(READ_BIT(RCC->CR, RCC_CR_HSERDY) != 0U)
 8001898:	6823      	ldr	r3, [r4, #0]
 800189a:	0398      	lsls	r0, r3, #14
 800189c:	d597      	bpl.n	80017ce <HAL_RCC_OscConfig+0x112>
          if((HAL_GetTick() - tickstart) > HSE_TIMEOUT_VALUE)
 800189e:	f7fe fec9 	bl	8000634 <HAL_GetTick>
 80018a2:	eba0 0008 	sub.w	r0, r0, r8
 80018a6:	2864      	cmp	r0, #100	; 0x64
 80018a8:	d9f6      	bls.n	8001898 <HAL_RCC_OscConfig+0x1dc>
 80018aa:	e7ab      	b.n	8001804 <HAL_RCC_OscConfig+0x148>
    if((sysclk_source == RCC_CFGR_SWS_HSI) ||
 80018ac:	2e04      	cmp	r6, #4
 80018ae:	d003      	beq.n	80018b8 <HAL_RCC_OscConfig+0x1fc>
 80018b0:	2e0c      	cmp	r6, #12
 80018b2:	d110      	bne.n	80018d6 <HAL_RCC_OscConfig+0x21a>
       ((sysclk_source == RCC_CFGR_SWS_PLL) && (pll_config == RCC_PLLSOURCE_HSI)))
 80018b4:	2f02      	cmp	r7, #2
 80018b6:	d10e      	bne.n	80018d6 <HAL_RCC_OscConfig+0x21a>
      if((READ_BIT(RCC->CR, RCC_CR_HSIRDY) != 0U) && (RCC_OscInitStruct->HSIState == RCC_HSI_OFF))
 80018b8:	6823      	ldr	r3, [r4, #0]
 80018ba:	0559      	lsls	r1, r3, #21
 80018bc:	d503      	bpl.n	80018c6 <HAL_RCC_OscConfig+0x20a>
 80018be:	68eb      	ldr	r3, [r5, #12]
 80018c0:	2b00      	cmp	r3, #0
 80018c2:	f43f aeff 	beq.w	80016c4 <HAL_RCC_OscConfig+0x8>
        __HAL_RCC_HSI_CALIBRATIONVALUE_ADJUST(RCC_OscInitStruct->HSICalibrationValue);
 80018c6:	6863      	ldr	r3, [r4, #4]
 80018c8:	692a      	ldr	r2, [r5, #16]
 80018ca:	f023 43fe 	bic.w	r3, r3, #2130706432	; 0x7f000000
 80018ce:	ea43 6302 	orr.w	r3, r3, r2, lsl #24
 80018d2:	6063      	str	r3, [r4, #4]
 80018d4:	e77e      	b.n	80017d4 <HAL_RCC_OscConfig+0x118>
      if(RCC_OscInitStruct->HSIState != RCC_HSI_OFF)
 80018d6:	68eb      	ldr	r3, [r5, #12]
 80018d8:	b17b      	cbz	r3, 80018fa <HAL_RCC_OscConfig+0x23e>
        __HAL_RCC_HSI_ENABLE();
 80018da:	6823      	ldr	r3, [r4, #0]
 80018dc:	f443 7380 	orr.w	r3, r3, #256	; 0x100
 80018e0:	6023      	str	r3, [r4, #0]
        tickstart = HAL_GetTick();
 80018e2:	f7fe fea7 	bl	8000634 <HAL_GetTick>
 80018e6:	4607      	mov	r7, r0
        while(READ_BIT(RCC->CR, RCC_CR_HSIRDY) == 0U)
 80018e8:	6823      	ldr	r3, [r4, #0]
 80018ea:	055a      	lsls	r2, r3, #21
 80018ec:	d4eb      	bmi.n	80018c6 <HAL_RCC_OscConfig+0x20a>
          if((HAL_GetTick() - tickstart) > HSI_TIMEOUT_VALUE)
 80018ee:	f7fe fea1 	bl	8000634 <HAL_GetTick>
 80018f2:	1bc0      	subs	r0, r0, r7
 80018f4:	2802      	cmp	r0, #2
 80018f6:	d9f7      	bls.n	80018e8 <HAL_RCC_OscConfig+0x22c>
 80018f8:	e784      	b.n	8001804 <HAL_RCC_OscConfig+0x148>
        __HAL_RCC_HSI_DISABLE();
 80018fa:	6823      	ldr	r3, [r4, #0]
 80018fc:	f423 7380 	bic.w	r3, r3, #256	; 0x100
 8001900:	6023      	str	r3, [r4, #0]
        tickstart = HAL_GetTick();
 8001902:	f7fe fe97 	bl	8000634 <HAL_GetTick>
 8001906:	4607      	mov	r7, r0
        while(READ_BIT(RCC->CR, RCC_CR_HSIRDY) != 0U)
 8001908:	6823      	ldr	r3, [r4, #0]
 800190a:	055b      	lsls	r3, r3, #21
 800190c:	f57f af62 	bpl.w	80017d4 <HAL_RCC_OscConfig+0x118>
          if((HAL_GetTick() - tickstart) > HSI_TIMEOUT_VALUE)
 8001910:	f7fe fe90 	bl	8000634 <HAL_GetTick>
 8001914:	1bc0      	subs	r0, r0, r7
 8001916:	2802      	cmp	r0, #2
 8001918:	d9f6      	bls.n	8001908 <HAL_RCC_OscConfig+0x24c>
 800191a:	e773      	b.n	8001804 <HAL_RCC_OscConfig+0x148>
    if(RCC_OscInitStruct->LSIState != RCC_LSI_OFF)
 800191c:	696b      	ldr	r3, [r5, #20]
 800191e:	b1db      	cbz	r3, 8001958 <HAL_RCC_OscConfig+0x29c>
      __HAL_RCC_LSI_ENABLE();
 8001920:	f8d4 3094 	ldr.w	r3, [r4, #148]	; 0x94
 8001924:	f043 0301 	orr.w	r3, r3, #1
 8001928:	f8c4 3094 	str.w	r3, [r4, #148]	; 0x94
      tickstart = HAL_GetTick();
 800192c:	f7fe fe82 	bl	8000634 <HAL_GetTick>
 8001930:	4607      	mov	r7, r0
      while(READ_BIT(RCC->CSR, RCC_CSR_LSIRDY) == 0U)
 8001932:	f8d4 3094 	ldr.w	r3, [r4, #148]	; 0x94
 8001936:	079a      	lsls	r2, r3, #30
 8001938:	f53f af50 	bmi.w	80017dc <HAL_RCC_OscConfig+0x120>
        if((HAL_GetTick() - tickstart) > LSI_TIMEOUT_VALUE)
 800193c:	f7fe fe7a 	bl	8000634 <HAL_GetTick>
 8001940:	1bc0      	subs	r0, r0, r7
 8001942:	2802      	cmp	r0, #2
 8001944:	d9f5      	bls.n	8001932 <HAL_RCC_OscConfig+0x276>
 8001946:	e75d      	b.n	8001804 <HAL_RCC_OscConfig+0x148>
 8001948:	40021000 	.word	0x40021000
 800194c:	080041b7 	.word	0x080041b7
 8001950:	20000008 	.word	0x20000008
 8001954:	20000004 	.word	0x20000004
      __HAL_RCC_LSI_DISABLE();
 8001958:	f8d4 3094 	ldr.w	r3, [r4, #148]	; 0x94
 800195c:	f023 0301 	bic.w	r3, r3, #1
 8001960:	f8c4 3094 	str.w	r3, [r4, #148]	; 0x94
      tickstart = HAL_GetTick();
 8001964:	f7fe fe66 	bl	8000634 <HAL_GetTick>
 8001968:	4607      	mov	r7, r0
      while(READ_BIT(RCC->CSR, RCC_CSR_LSIRDY) != 0U)
 800196a:	f8d4 3094 	ldr.w	r3, [r4, #148]	; 0x94
 800196e:	079b      	lsls	r3, r3, #30
 8001970:	f57f af34 	bpl.w	80017dc <HAL_RCC_OscConfig+0x120>
        if((HAL_GetTick() - tickstart) > LSI_TIMEOUT_VALUE)
 8001974:	f7fe fe5e 	bl	8000634 <HAL_GetTick>
 8001978:	1bc0      	subs	r0, r0, r7
 800197a:	2802      	cmp	r0, #2
 800197c:	d9f5      	bls.n	800196a <HAL_RCC_OscConfig+0x2ae>
 800197e:	e741      	b.n	8001804 <HAL_RCC_OscConfig+0x148>
    if(HAL_IS_BIT_CLR(RCC->APB1ENR1, RCC_APB1ENR1_PWREN))
 8001980:	6da3      	ldr	r3, [r4, #88]	; 0x58
 8001982:	00df      	lsls	r7, r3, #3
 8001984:	d429      	bmi.n	80019da <HAL_RCC_OscConfig+0x31e>
      __HAL_RCC_PWR_CLK_ENABLE();
 8001986:	6da3      	ldr	r3, [r4, #88]	; 0x58
 8001988:	f043 5380 	orr.w	r3, r3, #268435456	; 0x10000000
 800198c:	65a3      	str	r3, [r4, #88]	; 0x58
 800198e:	6da3      	ldr	r3, [r4, #88]	; 0x58
 8001990:	f003 5380 	and.w	r3, r3, #268435456	; 0x10000000
 8001994:	9301      	str	r3, [sp, #4]
 8001996:	9b01      	ldr	r3, [sp, #4]
      pwrclkchanged = SET;
 8001998:	f04f 0801 	mov.w	r8, #1
    if(HAL_IS_BIT_CLR(PWR->CR1, PWR_CR1_DBP))
 800199c:	4f9c      	ldr	r7, [pc, #624]	; (8001c10 <HAL_RCC_OscConfig+0x554>)
 800199e:	683b      	ldr	r3, [r7, #0]
 80019a0:	05d8      	lsls	r0, r3, #23
 80019a2:	d51d      	bpl.n	80019e0 <HAL_RCC_OscConfig+0x324>
    __HAL_RCC_LSE_CONFIG(RCC_OscInitStruct->LSEState);
 80019a4:	68ab      	ldr	r3, [r5, #8]
 80019a6:	2b01      	cmp	r3, #1
 80019a8:	d12b      	bne.n	8001a02 <HAL_RCC_OscConfig+0x346>
 80019aa:	f8d4 3090 	ldr.w	r3, [r4, #144]	; 0x90
 80019ae:	f043 0301 	orr.w	r3, r3, #1
 80019b2:	f8c4 3090 	str.w	r3, [r4, #144]	; 0x90
      tickstart = HAL_GetTick();
 80019b6:	f7fe fe3d 	bl	8000634 <HAL_GetTick>
        if((HAL_GetTick() - tickstart) > RCC_LSE_TIMEOUT_VALUE)
 80019ba:	f241 3988 	movw	r9, #5000	; 0x1388
      tickstart = HAL_GetTick();
 80019be:	4607      	mov	r7, r0
      while(READ_BIT(RCC->BDCR, RCC_BDCR_LSERDY) == 0U)
 80019c0:	f8d4 3090 	ldr.w	r3, [r4, #144]	; 0x90
 80019c4:	079a      	lsls	r2, r3, #30
 80019c6:	d542      	bpl.n	8001a4e <HAL_RCC_OscConfig+0x392>
    if(pwrclkchanged == SET)
 80019c8:	f1b8 0f00 	cmp.w	r8, #0
 80019cc:	f43f af0a 	beq.w	80017e4 <HAL_RCC_OscConfig+0x128>
      __HAL_RCC_PWR_CLK_DISABLE();
 80019d0:	6da3      	ldr	r3, [r4, #88]	; 0x58
 80019d2:	f023 5380 	bic.w	r3, r3, #268435456	; 0x10000000
 80019d6:	65a3      	str	r3, [r4, #88]	; 0x58
 80019d8:	e704      	b.n	80017e4 <HAL_RCC_OscConfig+0x128>
    FlagStatus       pwrclkchanged = RESET;
 80019da:	f04f 0800 	mov.w	r8, #0
 80019de:	e7dd      	b.n	800199c <HAL_RCC_OscConfig+0x2e0>
      SET_BIT(PWR->CR1, PWR_CR1_DBP);
 80019e0:	683b      	ldr	r3, [r7, #0]
 80019e2:	f443 7380 	orr.w	r3, r3, #256	; 0x100
 80019e6:	603b      	str	r3, [r7, #0]
      tickstart = HAL_GetTick();
 80019e8:	f7fe fe24 	bl	8000634 <HAL_GetTick>
 80019ec:	4681      	mov	r9, r0
      while(HAL_IS_BIT_CLR(PWR->CR1, PWR_CR1_DBP))
 80019ee:	683b      	ldr	r3, [r7, #0]
 80019f0:	05d9      	lsls	r1, r3, #23
 80019f2:	d4d7      	bmi.n	80019a4 <HAL_RCC_OscConfig+0x2e8>
        if((HAL_GetTick() - tickstart) > RCC_DBP_TIMEOUT_VALUE)
 80019f4:	f7fe fe1e 	bl	8000634 <HAL_GetTick>
 80019f8:	eba0 0009 	sub.w	r0, r0, r9
 80019fc:	2802      	cmp	r0, #2
 80019fe:	d9f6      	bls.n	80019ee <HAL_RCC_OscConfig+0x332>
 8001a00:	e700      	b.n	8001804 <HAL_RCC_OscConfig+0x148>
    __HAL_RCC_LSE_CONFIG(RCC_OscInitStruct->LSEState);
 8001a02:	2b05      	cmp	r3, #5
 8001a04:	d106      	bne.n	8001a14 <HAL_RCC_OscConfig+0x358>
 8001a06:	f8d4 3090 	ldr.w	r3, [r4, #144]	; 0x90
 8001a0a:	f043 0304 	orr.w	r3, r3, #4
 8001a0e:	f8c4 3090 	str.w	r3, [r4, #144]	; 0x90
 8001a12:	e7ca      	b.n	80019aa <HAL_RCC_OscConfig+0x2ee>
 8001a14:	f8d4 2090 	ldr.w	r2, [r4, #144]	; 0x90
 8001a18:	f022 0201 	bic.w	r2, r2, #1
 8001a1c:	f8c4 2090 	str.w	r2, [r4, #144]	; 0x90
 8001a20:	f8d4 2090 	ldr.w	r2, [r4, #144]	; 0x90
 8001a24:	f022 0204 	bic.w	r2, r2, #4
 8001a28:	f8c4 2090 	str.w	r2, [r4, #144]	; 0x90
    if(RCC_OscInitStruct->LSEState != RCC_LSE_OFF)
 8001a2c:	2b00      	cmp	r3, #0
 8001a2e:	d1c2      	bne.n	80019b6 <HAL_RCC_OscConfig+0x2fa>
      tickstart = HAL_GetTick();
 8001a30:	f7fe fe00 	bl	8000634 <HAL_GetTick>
        if((HAL_GetTick() - tickstart) > RCC_LSE_TIMEOUT_VALUE)
 8001a34:	f241 3988 	movw	r9, #5000	; 0x1388
      tickstart = HAL_GetTick();
 8001a38:	4607      	mov	r7, r0
      while(READ_BIT(RCC->BDCR, RCC_BDCR_LSERDY) != 0U)
 8001a3a:	f8d4 3090 	ldr.w	r3, [r4, #144]	; 0x90
 8001a3e:	079b      	lsls	r3, r3, #30
 8001a40:	d5c2      	bpl.n	80019c8 <HAL_RCC_OscConfig+0x30c>
        if((HAL_GetTick() - tickstart) > RCC_LSE_TIMEOUT_VALUE)
 8001a42:	f7fe fdf7 	bl	8000634 <HAL_GetTick>
 8001a46:	1bc0      	subs	r0, r0, r7
 8001a48:	4548      	cmp	r0, r9
 8001a4a:	d9f6      	bls.n	8001a3a <HAL_RCC_OscConfig+0x37e>
 8001a4c:	e6da      	b.n	8001804 <HAL_RCC_OscConfig+0x148>
        if((HAL_GetTick() - tickstart) > RCC_LSE_TIMEOUT_VALUE)
 8001a4e:	f7fe fdf1 	bl	8000634 <HAL_GetTick>
 8001a52:	1bc0      	subs	r0, r0, r7
 8001a54:	4548      	cmp	r0, r9
 8001a56:	d9b3      	bls.n	80019c0 <HAL_RCC_OscConfig+0x304>
 8001a58:	e6d4      	b.n	8001804 <HAL_RCC_OscConfig+0x148>
    if(RCC_OscInitStruct->HSI48State != RCC_HSI48_OFF)
 8001a5a:	6a6b      	ldr	r3, [r5, #36]	; 0x24
 8001a5c:	b19b      	cbz	r3, 8001a86 <HAL_RCC_OscConfig+0x3ca>
      __HAL_RCC_HSI48_ENABLE();
 8001a5e:	f8d4 3098 	ldr.w	r3, [r4, #152]	; 0x98
 8001a62:	f043 0301 	orr.w	r3, r3, #1
 8001a66:	f8c4 3098 	str.w	r3, [r4, #152]	; 0x98
      tickstart = HAL_GetTick();
 8001a6a:	f7fe fde3 	bl	8000634 <HAL_GetTick>
 8001a6e:	4607      	mov	r7, r0
      while(READ_BIT(RCC->CRRCR, RCC_CRRCR_HSI48RDY) == 0U)
 8001a70:	f8d4 3098 	ldr.w	r3, [r4, #152]	; 0x98
 8001a74:	0798      	lsls	r0, r3, #30
 8001a76:	f53f aeb9 	bmi.w	80017ec <HAL_RCC_OscConfig+0x130>
        if((HAL_GetTick() - tickstart) > HSI48_TIMEOUT_VALUE)
 8001a7a:	f7fe fddb 	bl	8000634 <HAL_GetTick>
 8001a7e:	1bc0      	subs	r0, r0, r7
 8001a80:	2802      	cmp	r0, #2
 8001a82:	d9f5      	bls.n	8001a70 <HAL_RCC_OscConfig+0x3b4>
 8001a84:	e6be      	b.n	8001804 <HAL_RCC_OscConfig+0x148>
      __HAL_RCC_HSI48_DISABLE();
 8001a86:	f8d4 3098 	ldr.w	r3, [r4, #152]	; 0x98
 8001a8a:	f023 0301 	bic.w	r3, r3, #1
 8001a8e:	f8c4 3098 	str.w	r3, [r4, #152]	; 0x98
      tickstart = HAL_GetTick();
 8001a92:	f7fe fdcf 	bl	8000634 <HAL_GetTick>
 8001a96:	4607      	mov	r7, r0
      while(READ_BIT(RCC->CRRCR, RCC_CRRCR_HSI48RDY) != 0U)
 8001a98:	f8d4 3098 	ldr.w	r3, [r4, #152]	; 0x98
 8001a9c:	0799      	lsls	r1, r3, #30
 8001a9e:	f57f aea5 	bpl.w	80017ec <HAL_RCC_OscConfig+0x130>
        if((HAL_GetTick() - tickstart) > HSI48_TIMEOUT_VALUE)
 8001aa2:	f7fe fdc7 	bl	8000634 <HAL_GetTick>
 8001aa6:	1bc0      	subs	r0, r0, r7
 8001aa8:	2802      	cmp	r0, #2
 8001aaa:	d9f5      	bls.n	8001a98 <HAL_RCC_OscConfig+0x3dc>
 8001aac:	e6aa      	b.n	8001804 <HAL_RCC_OscConfig+0x148>
    if(RCC_OscInitStruct->PLL.PLLState == RCC_PLL_ON)
 8001aae:	2b02      	cmp	r3, #2
 8001ab0:	f040 808c 	bne.w	8001bcc <HAL_RCC_OscConfig+0x510>
      pll_config = RCC->PLLCFGR;
 8001ab4:	68e3      	ldr	r3, [r4, #12]
      if((READ_BIT(pll_config, RCC_PLLCFGR_PLLSRC)  != RCC_OscInitStruct->PLL.PLLSource) ||
 8001ab6:	6aea      	ldr	r2, [r5, #44]	; 0x2c
 8001ab8:	f003 0103 	and.w	r1, r3, #3
 8001abc:	4291      	cmp	r1, r2
 8001abe:	d122      	bne.n	8001b06 <HAL_RCC_OscConfig+0x44a>
         (READ_BIT(pll_config, RCC_PLLCFGR_PLLM)    != ((RCC_OscInitStruct->PLL.PLLM - 1U) << RCC_PLLCFGR_PLLM_Pos)) ||
 8001ac0:	6b29      	ldr	r1, [r5, #48]	; 0x30
 8001ac2:	f003 0270 	and.w	r2, r3, #112	; 0x70
 8001ac6:	3901      	subs	r1, #1
      if((READ_BIT(pll_config, RCC_PLLCFGR_PLLSRC)  != RCC_OscInitStruct->PLL.PLLSource) ||
 8001ac8:	ebb2 1f01 	cmp.w	r2, r1, lsl #4
 8001acc:	d11b      	bne.n	8001b06 <HAL_RCC_OscConfig+0x44a>
         (READ_BIT(pll_config, RCC_PLLCFGR_PLLN)    != (RCC_OscInitStruct->PLL.PLLN << RCC_PLLCFGR_PLLN_Pos)) ||
 8001ace:	6b69      	ldr	r1, [r5, #52]	; 0x34
 8001ad0:	f403 42fe 	and.w	r2, r3, #32512	; 0x7f00
         (READ_BIT(pll_config, RCC_PLLCFGR_PLLM)    != ((RCC_OscInitStruct->PLL.PLLM - 1U) << RCC_PLLCFGR_PLLM_Pos)) ||
 8001ad4:	ebb2 2f01 	cmp.w	r2, r1, lsl #8
 8001ad8:	d115      	bne.n	8001b06 <HAL_RCC_OscConfig+0x44a>
         (READ_BIT(pll_config, RCC_PLLCFGR_PLLPDIV) != (RCC_OscInitStruct->PLL.PLLP << RCC_PLLCFGR_PLLPDIV_Pos)) ||
 8001ada:	6ba9      	ldr	r1, [r5, #56]	; 0x38
 8001adc:	f003 4278 	and.w	r2, r3, #4160749568	; 0xf8000000
         (READ_BIT(pll_config, RCC_PLLCFGR_PLLN)    != (RCC_OscInitStruct->PLL.PLLN << RCC_PLLCFGR_PLLN_Pos)) ||
 8001ae0:	ebb2 6fc1 	cmp.w	r2, r1, lsl #27
 8001ae4:	d10f      	bne.n	8001b06 <HAL_RCC_OscConfig+0x44a>
         (READ_BIT(pll_config, RCC_PLLCFGR_PLLQ)    != ((((RCC_OscInitStruct->PLL.PLLQ) >> 1U) - 1U) << RCC_PLLCFGR_PLLQ_Pos)) ||
 8001ae6:	6bea      	ldr	r2, [r5, #60]	; 0x3c
 8001ae8:	0852      	lsrs	r2, r2, #1
 8001aea:	f403 01c0 	and.w	r1, r3, #6291456	; 0x600000
 8001aee:	3a01      	subs	r2, #1
         (READ_BIT(pll_config, RCC_PLLCFGR_PLLPDIV) != (RCC_OscInitStruct->PLL.PLLP << RCC_PLLCFGR_PLLPDIV_Pos)) ||
 8001af0:	ebb1 5f42 	cmp.w	r1, r2, lsl #21
 8001af4:	d107      	bne.n	8001b06 <HAL_RCC_OscConfig+0x44a>
         (READ_BIT(pll_config, RCC_PLLCFGR_PLLR)    != ((((RCC_OscInitStruct->PLL.PLLR) >> 1U) - 1U) << RCC_PLLCFGR_PLLR_Pos)))
 8001af6:	6c2a      	ldr	r2, [r5, #64]	; 0x40
 8001af8:	0852      	lsrs	r2, r2, #1
 8001afa:	f003 63c0 	and.w	r3, r3, #100663296	; 0x6000000
 8001afe:	3a01      	subs	r2, #1
         (READ_BIT(pll_config, RCC_PLLCFGR_PLLQ)    != ((((RCC_OscInitStruct->PLL.PLLQ) >> 1U) - 1U) << RCC_PLLCFGR_PLLQ_Pos)) ||
 8001b00:	ebb3 6f42 	cmp.w	r3, r2, lsl #25
 8001b04:	d049      	beq.n	8001b9a <HAL_RCC_OscConfig+0x4de>
        if(sysclk_source != RCC_CFGR_SWS_PLL)
 8001b06:	2e0c      	cmp	r6, #12
 8001b08:	f43f addc 	beq.w	80016c4 <HAL_RCC_OscConfig+0x8>
          if((READ_BIT(RCC->CR, RCC_CR_PLLSAI1ON) != 0U)
 8001b0c:	6823      	ldr	r3, [r4, #0]
 8001b0e:	015a      	lsls	r2, r3, #5
 8001b10:	f53f add8 	bmi.w	80016c4 <HAL_RCC_OscConfig+0x8>
             || (READ_BIT(RCC->CR, RCC_CR_PLLSAI2ON) != 0U)
 8001b14:	6823      	ldr	r3, [r4, #0]
 8001b16:	00db      	lsls	r3, r3, #3
 8001b18:	f53f add4 	bmi.w	80016c4 <HAL_RCC_OscConfig+0x8>
            __HAL_RCC_PLL_DISABLE();
 8001b1c:	6823      	ldr	r3, [r4, #0]
 8001b1e:	f023 7380 	bic.w	r3, r3, #16777216	; 0x1000000
 8001b22:	6023      	str	r3, [r4, #0]
            tickstart = HAL_GetTick();
 8001b24:	f7fe fd86 	bl	8000634 <HAL_GetTick>
 8001b28:	4606      	mov	r6, r0
            while(READ_BIT(RCC->CR, RCC_CR_PLLRDY) != 0U)
 8001b2a:	6823      	ldr	r3, [r4, #0]
 8001b2c:	019f      	lsls	r7, r3, #6
 8001b2e:	d42e      	bmi.n	8001b8e <HAL_RCC_OscConfig+0x4d2>
            __HAL_RCC_PLL_CONFIG(RCC_OscInitStruct->PLL.PLLSource,
 8001b30:	68e2      	ldr	r2, [r4, #12]
 8001b32:	4b38      	ldr	r3, [pc, #224]	; (8001c14 <HAL_RCC_OscConfig+0x558>)
 8001b34:	4013      	ands	r3, r2
 8001b36:	6aea      	ldr	r2, [r5, #44]	; 0x2c
 8001b38:	4313      	orrs	r3, r2
 8001b3a:	6b6a      	ldr	r2, [r5, #52]	; 0x34
 8001b3c:	ea43 2302 	orr.w	r3, r3, r2, lsl #8
 8001b40:	6baa      	ldr	r2, [r5, #56]	; 0x38
 8001b42:	ea43 63c2 	orr.w	r3, r3, r2, lsl #27
 8001b46:	6b2a      	ldr	r2, [r5, #48]	; 0x30
 8001b48:	3a01      	subs	r2, #1
 8001b4a:	ea43 1302 	orr.w	r3, r3, r2, lsl #4
 8001b4e:	6bea      	ldr	r2, [r5, #60]	; 0x3c
 8001b50:	0852      	lsrs	r2, r2, #1
 8001b52:	3a01      	subs	r2, #1
 8001b54:	ea43 5342 	orr.w	r3, r3, r2, lsl #21
 8001b58:	6c2a      	ldr	r2, [r5, #64]	; 0x40
 8001b5a:	0852      	lsrs	r2, r2, #1
 8001b5c:	3a01      	subs	r2, #1
 8001b5e:	ea43 6342 	orr.w	r3, r3, r2, lsl #25
 8001b62:	60e3      	str	r3, [r4, #12]
            __HAL_RCC_PLL_ENABLE();
 8001b64:	6823      	ldr	r3, [r4, #0]
 8001b66:	f043 7380 	orr.w	r3, r3, #16777216	; 0x1000000
 8001b6a:	6023      	str	r3, [r4, #0]
            __HAL_RCC_PLLCLKOUT_ENABLE(RCC_PLL_SYSCLK);
 8001b6c:	68e3      	ldr	r3, [r4, #12]
 8001b6e:	f043 7380 	orr.w	r3, r3, #16777216	; 0x1000000
 8001b72:	60e3      	str	r3, [r4, #12]
            tickstart = HAL_GetTick();
 8001b74:	f7fe fd5e 	bl	8000634 <HAL_GetTick>
 8001b78:	4605      	mov	r5, r0
            while(READ_BIT(RCC->CR, RCC_CR_PLLRDY) == 0U)
 8001b7a:	6823      	ldr	r3, [r4, #0]
 8001b7c:	0198      	lsls	r0, r3, #6
 8001b7e:	f53f ae39 	bmi.w	80017f4 <HAL_RCC_OscConfig+0x138>
              if((HAL_GetTick() - tickstart) > PLL_TIMEOUT_VALUE)
 8001b82:	f7fe fd57 	bl	8000634 <HAL_GetTick>
 8001b86:	1b40      	subs	r0, r0, r5
 8001b88:	2802      	cmp	r0, #2
 8001b8a:	d9f6      	bls.n	8001b7a <HAL_RCC_OscConfig+0x4be>
 8001b8c:	e63a      	b.n	8001804 <HAL_RCC_OscConfig+0x148>
              if((HAL_GetTick() - tickstart) > PLL_TIMEOUT_VALUE)
 8001b8e:	f7fe fd51 	bl	8000634 <HAL_GetTick>
 8001b92:	1b80      	subs	r0, r0, r6
 8001b94:	2802      	cmp	r0, #2
 8001b96:	d9c8      	bls.n	8001b2a <HAL_RCC_OscConfig+0x46e>
 8001b98:	e634      	b.n	8001804 <HAL_RCC_OscConfig+0x148>
        if(READ_BIT(RCC->CR, RCC_CR_PLLRDY) == 0U)
 8001b9a:	6823      	ldr	r3, [r4, #0]
 8001b9c:	0199      	lsls	r1, r3, #6
 8001b9e:	f53f ae29 	bmi.w	80017f4 <HAL_RCC_OscConfig+0x138>
          __HAL_RCC_PLL_ENABLE();
 8001ba2:	6823      	ldr	r3, [r4, #0]
 8001ba4:	f043 7380 	orr.w	r3, r3, #16777216	; 0x1000000
 8001ba8:	6023      	str	r3, [r4, #0]
          __HAL_RCC_PLLCLKOUT_ENABLE(RCC_PLL_SYSCLK);
 8001baa:	68e3      	ldr	r3, [r4, #12]
 8001bac:	f043 7380 	orr.w	r3, r3, #16777216	; 0x1000000
 8001bb0:	60e3      	str	r3, [r4, #12]
          tickstart = HAL_GetTick();
 8001bb2:	f7fe fd3f 	bl	8000634 <HAL_GetTick>
 8001bb6:	4605      	mov	r5, r0
          while(READ_BIT(RCC->CR, RCC_CR_PLLRDY) == 0U)
 8001bb8:	6823      	ldr	r3, [r4, #0]
 8001bba:	019a      	lsls	r2, r3, #6
 8001bbc:	f53f ae1a 	bmi.w	80017f4 <HAL_RCC_OscConfig+0x138>
            if((HAL_GetTick() - tickstart) > PLL_TIMEOUT_VALUE)
 8001bc0:	f7fe fd38 	bl	8000634 <HAL_GetTick>
 8001bc4:	1b40      	subs	r0, r0, r5
 8001bc6:	2802      	cmp	r0, #2
 8001bc8:	d9f6      	bls.n	8001bb8 <HAL_RCC_OscConfig+0x4fc>
 8001bca:	e61b      	b.n	8001804 <HAL_RCC_OscConfig+0x148>
      if(sysclk_source != RCC_CFGR_SWS_PLL)
 8001bcc:	2e0c      	cmp	r6, #12
 8001bce:	f43f ad79 	beq.w	80016c4 <HAL_RCC_OscConfig+0x8>
        __HAL_RCC_PLL_DISABLE();
 8001bd2:	6823      	ldr	r3, [r4, #0]
 8001bd4:	f023 7380 	bic.w	r3, r3, #16777216	; 0x1000000
 8001bd8:	6023      	str	r3, [r4, #0]
        if(READ_BIT(RCC->CR, (RCC_CR_PLLSAI1RDY | RCC_CR_PLLSAI2RDY)) == 0U)
 8001bda:	6823      	ldr	r3, [r4, #0]
 8001bdc:	f013 5f20 	tst.w	r3, #671088640	; 0x28000000
          MODIFY_REG(RCC->PLLCFGR, RCC_PLLCFGR_PLLSRC, RCC_PLLSOURCE_NONE);
 8001be0:	bf02      	ittt	eq
 8001be2:	68e3      	ldreq	r3, [r4, #12]
 8001be4:	f023 0303 	biceq.w	r3, r3, #3
 8001be8:	60e3      	streq	r3, [r4, #12]
        __HAL_RCC_PLLCLKOUT_DISABLE(RCC_PLL_SYSCLK | RCC_PLL_48M1CLK | RCC_PLL_SAI3CLK);
 8001bea:	68e3      	ldr	r3, [r4, #12]
 8001bec:	f023 7388 	bic.w	r3, r3, #17825792	; 0x1100000
 8001bf0:	f423 3380 	bic.w	r3, r3, #65536	; 0x10000
 8001bf4:	60e3      	str	r3, [r4, #12]
        tickstart = HAL_GetTick();
 8001bf6:	f7fe fd1d 	bl	8000634 <HAL_GetTick>
 8001bfa:	4605      	mov	r5, r0
        while(READ_BIT(RCC->CR, RCC_CR_PLLRDY) != 0U)
 8001bfc:	6823      	ldr	r3, [r4, #0]
 8001bfe:	019b      	lsls	r3, r3, #6
 8001c00:	f57f adf8 	bpl.w	80017f4 <HAL_RCC_OscConfig+0x138>
          if((HAL_GetTick() - tickstart) > PLL_TIMEOUT_VALUE)
 8001c04:	f7fe fd16 	bl	8000634 <HAL_GetTick>
 8001c08:	1b40      	subs	r0, r0, r5
 8001c0a:	2802      	cmp	r0, #2
 8001c0c:	d9f6      	bls.n	8001bfc <HAL_RCC_OscConfig+0x540>
 8001c0e:	e5f9      	b.n	8001804 <HAL_RCC_OscConfig+0x148>
 8001c10:	40007000 	.word	0x40007000
 8001c14:	019d808c 	.word	0x019d808c

08001c18 <HAL_RCC_ClockConfig>:
{
 8001c18:	e92d 41f0 	stmdb	sp!, {r4, r5, r6, r7, r8, lr}
 8001c1c:	460e      	mov	r6, r1
  if(RCC_ClkInitStruct == NULL)
 8001c1e:	4604      	mov	r4, r0
 8001c20:	b910      	cbnz	r0, 8001c28 <HAL_RCC_ClockConfig+0x10>
    return HAL_ERROR;
 8001c22:	2001      	movs	r0, #1
 8001c24:	e8bd 81f0 	ldmia.w	sp!, {r4, r5, r6, r7, r8, pc}
  if(FLatency > __HAL_FLASH_GET_LATENCY())
 8001c28:	4a41      	ldr	r2, [pc, #260]	; (8001d30 <HAL_RCC_ClockConfig+0x118>)
 8001c2a:	6813      	ldr	r3, [r2, #0]
 8001c2c:	f003 0307 	and.w	r3, r3, #7
 8001c30:	428b      	cmp	r3, r1
 8001c32:	d32a      	bcc.n	8001c8a <HAL_RCC_ClockConfig+0x72>
  if(((RCC_ClkInitStruct->ClockType) & RCC_CLOCKTYPE_SYSCLK) == RCC_CLOCKTYPE_SYSCLK)
 8001c34:	6823      	ldr	r3, [r4, #0]
 8001c36:	07d9      	lsls	r1, r3, #31
 8001c38:	d432      	bmi.n	8001ca0 <HAL_RCC_ClockConfig+0x88>
  if(((RCC_ClkInitStruct->ClockType) & RCC_CLOCKTYPE_HCLK) == RCC_CLOCKTYPE_HCLK)
 8001c3a:	6821      	ldr	r1, [r4, #0]
 8001c3c:	078a      	lsls	r2, r1, #30
 8001c3e:	d45c      	bmi.n	8001cfa <HAL_RCC_ClockConfig+0xe2>
  if(FLatency < __HAL_FLASH_GET_LATENCY())
 8001c40:	4a3b      	ldr	r2, [pc, #236]	; (8001d30 <HAL_RCC_ClockConfig+0x118>)
 8001c42:	6813      	ldr	r3, [r2, #0]
 8001c44:	f003 0307 	and.w	r3, r3, #7
 8001c48:	429e      	cmp	r6, r3
 8001c4a:	d35e      	bcc.n	8001d0a <HAL_RCC_ClockConfig+0xf2>
  if(((RCC_ClkInitStruct->ClockType) & RCC_CLOCKTYPE_PCLK1) == RCC_CLOCKTYPE_PCLK1)
 8001c4c:	f011 0f04 	tst.w	r1, #4
 8001c50:	4d38      	ldr	r5, [pc, #224]	; (8001d34 <HAL_RCC_ClockConfig+0x11c>)
 8001c52:	d165      	bne.n	8001d20 <HAL_RCC_ClockConfig+0x108>
  if(((RCC_ClkInitStruct->ClockType) & RCC_CLOCKTYPE_PCLK2) == RCC_CLOCKTYPE_PCLK2)
 8001c54:	070b      	lsls	r3, r1, #28
 8001c56:	d506      	bpl.n	8001c66 <HAL_RCC_ClockConfig+0x4e>
    MODIFY_REG(RCC->CFGR, RCC_CFGR_PPRE2, ((RCC_ClkInitStruct->APB2CLKDivider) << 3U));
 8001c58:	68ab      	ldr	r3, [r5, #8]
 8001c5a:	6922      	ldr	r2, [r4, #16]
 8001c5c:	f423 5360 	bic.w	r3, r3, #14336	; 0x3800
 8001c60:	ea43 03c2 	orr.w	r3, r3, r2, lsl #3
 8001c64:	60ab      	str	r3, [r5, #8]
  SystemCoreClock = HAL_RCC_GetSysClockFreq() >> (AHBPrescTable[READ_BIT(RCC->CFGR, RCC_CFGR_HPRE) >> RCC_CFGR_HPRE_Pos] & 0x1FU);
 8001c66:	f7ff fcdb 	bl	8001620 <HAL_RCC_GetSysClockFreq>
 8001c6a:	68ab      	ldr	r3, [r5, #8]
 8001c6c:	4a32      	ldr	r2, [pc, #200]	; (8001d38 <HAL_RCC_ClockConfig+0x120>)
 8001c6e:	f3c3 1303 	ubfx	r3, r3, #4, #4
}
 8001c72:	e8bd 41f0 	ldmia.w	sp!, {r4, r5, r6, r7, r8, lr}
  SystemCoreClock = HAL_RCC_GetSysClockFreq() >> (AHBPrescTable[READ_BIT(RCC->CFGR, RCC_CFGR_HPRE) >> RCC_CFGR_HPRE_Pos] & 0x1FU);
 8001c76:	5cd3      	ldrb	r3, [r2, r3]
 8001c78:	f003 031f 	and.w	r3, r3, #31
 8001c7c:	40d8      	lsrs	r0, r3
 8001c7e:	4b2f      	ldr	r3, [pc, #188]	; (8001d3c <HAL_RCC_ClockConfig+0x124>)
 8001c80:	6018      	str	r0, [r3, #0]
  status = HAL_InitTick(uwTickPrio);
 8001c82:	4b2f      	ldr	r3, [pc, #188]	; (8001d40 <HAL_RCC_ClockConfig+0x128>)
 8001c84:	6818      	ldr	r0, [r3, #0]
 8001c86:	f7fe bc93 	b.w	80005b0 <HAL_InitTick>
    __HAL_FLASH_SET_LATENCY(FLatency);
 8001c8a:	6813      	ldr	r3, [r2, #0]
 8001c8c:	f023 0307 	bic.w	r3, r3, #7
 8001c90:	430b      	orrs	r3, r1
 8001c92:	6013      	str	r3, [r2, #0]
    if(__HAL_FLASH_GET_LATENCY() != FLatency)
 8001c94:	6813      	ldr	r3, [r2, #0]
 8001c96:	f003 0307 	and.w	r3, r3, #7
 8001c9a:	4299      	cmp	r1, r3
 8001c9c:	d1c1      	bne.n	8001c22 <HAL_RCC_ClockConfig+0xa>
 8001c9e:	e7c9      	b.n	8001c34 <HAL_RCC_ClockConfig+0x1c>
    if(RCC_ClkInitStruct->SYSCLKSource == RCC_SYSCLKSOURCE_PLLCLK)
 8001ca0:	6862      	ldr	r2, [r4, #4]
 8001ca2:	4d24      	ldr	r5, [pc, #144]	; (8001d34 <HAL_RCC_ClockConfig+0x11c>)
 8001ca4:	2a03      	cmp	r2, #3
      if(READ_BIT(RCC->CR, RCC_CR_PLLRDY) == 0U)
 8001ca6:	682b      	ldr	r3, [r5, #0]
    if(RCC_ClkInitStruct->SYSCLKSource == RCC_SYSCLKSOURCE_PLLCLK)
 8001ca8:	d11b      	bne.n	8001ce2 <HAL_RCC_ClockConfig+0xca>
      if(READ_BIT(RCC->CR, RCC_CR_PLLRDY) == 0U)
 8001caa:	f013 7f00 	tst.w	r3, #33554432	; 0x2000000
        if(READ_BIT(RCC->CR, RCC_CR_HSIRDY) == 0U)
 8001cae:	d0b8      	beq.n	8001c22 <HAL_RCC_ClockConfig+0xa>
    MODIFY_REG(RCC->CFGR, RCC_CFGR_SW, RCC_ClkInitStruct->SYSCLKSource);
 8001cb0:	68ab      	ldr	r3, [r5, #8]
 8001cb2:	f023 0303 	bic.w	r3, r3, #3
 8001cb6:	4313      	orrs	r3, r2
 8001cb8:	60ab      	str	r3, [r5, #8]
    tickstart = HAL_GetTick();
 8001cba:	f7fe fcbb 	bl	8000634 <HAL_GetTick>
      if((HAL_GetTick() - tickstart) > CLOCKSWITCH_TIMEOUT_VALUE)
 8001cbe:	f241 3888 	movw	r8, #5000	; 0x1388
    tickstart = HAL_GetTick();
 8001cc2:	4607      	mov	r7, r0
    while(__HAL_RCC_GET_SYSCLK_SOURCE() != (RCC_ClkInitStruct->SYSCLKSource << RCC_CFGR_SWS_Pos))
 8001cc4:	68ab      	ldr	r3, [r5, #8]
 8001cc6:	6862      	ldr	r2, [r4, #4]
 8001cc8:	f003 030c 	and.w	r3, r3, #12
 8001ccc:	ebb3 0f82 	cmp.w	r3, r2, lsl #2
 8001cd0:	d0b3      	beq.n	8001c3a <HAL_RCC_ClockConfig+0x22>
      if((HAL_GetTick() - tickstart) > CLOCKSWITCH_TIMEOUT_VALUE)
 8001cd2:	f7fe fcaf 	bl	8000634 <HAL_GetTick>
 8001cd6:	1bc0      	subs	r0, r0, r7
 8001cd8:	4540      	cmp	r0, r8
 8001cda:	d9f3      	bls.n	8001cc4 <HAL_RCC_ClockConfig+0xac>
        return HAL_TIMEOUT;
 8001cdc:	2003      	movs	r0, #3
}
 8001cde:	e8bd 81f0 	ldmia.w	sp!, {r4, r5, r6, r7, r8, pc}
      if(RCC_ClkInitStruct->SYSCLKSource == RCC_SYSCLKSOURCE_HSE)
 8001ce2:	2a02      	cmp	r2, #2
 8001ce4:	d102      	bne.n	8001cec <HAL_RCC_ClockConfig+0xd4>
        if(READ_BIT(RCC->CR, RCC_CR_HSERDY) == 0U)
 8001ce6:	f413 3f00 	tst.w	r3, #131072	; 0x20000
 8001cea:	e7e0      	b.n	8001cae <HAL_RCC_ClockConfig+0x96>
      else if(RCC_ClkInitStruct->SYSCLKSource == RCC_SYSCLKSOURCE_MSI)
 8001cec:	b912      	cbnz	r2, 8001cf4 <HAL_RCC_ClockConfig+0xdc>
        if(READ_BIT(RCC->CR, RCC_CR_MSIRDY) == 0U)
 8001cee:	f013 0f02 	tst.w	r3, #2
 8001cf2:	e7dc      	b.n	8001cae <HAL_RCC_ClockConfig+0x96>
        if(READ_BIT(RCC->CR, RCC_CR_HSIRDY) == 0U)
 8001cf4:	f413 6f80 	tst.w	r3, #1024	; 0x400
 8001cf8:	e7d9      	b.n	8001cae <HAL_RCC_ClockConfig+0x96>
    MODIFY_REG(RCC->CFGR, RCC_CFGR_HPRE, RCC_ClkInitStruct->AHBCLKDivider);
 8001cfa:	4a0e      	ldr	r2, [pc, #56]	; (8001d34 <HAL_RCC_ClockConfig+0x11c>)
 8001cfc:	68a0      	ldr	r0, [r4, #8]
 8001cfe:	6893      	ldr	r3, [r2, #8]
 8001d00:	f023 03f0 	bic.w	r3, r3, #240	; 0xf0
 8001d04:	4303      	orrs	r3, r0
 8001d06:	6093      	str	r3, [r2, #8]
 8001d08:	e79a      	b.n	8001c40 <HAL_RCC_ClockConfig+0x28>
    __HAL_FLASH_SET_LATENCY(FLatency);
 8001d0a:	6813      	ldr	r3, [r2, #0]
 8001d0c:	f023 0307 	bic.w	r3, r3, #7
 8001d10:	4333      	orrs	r3, r6
 8001d12:	6013      	str	r3, [r2, #0]
    if(__HAL_FLASH_GET_LATENCY() != FLatency)
 8001d14:	6813      	ldr	r3, [r2, #0]
 8001d16:	f003 0307 	and.w	r3, r3, #7
 8001d1a:	429e      	cmp	r6, r3
 8001d1c:	d181      	bne.n	8001c22 <HAL_RCC_ClockConfig+0xa>
 8001d1e:	e795      	b.n	8001c4c <HAL_RCC_ClockConfig+0x34>
    MODIFY_REG(RCC->CFGR, RCC_CFGR_PPRE1, RCC_ClkInitStruct->APB1CLKDivider);
 8001d20:	68ab      	ldr	r3, [r5, #8]
 8001d22:	68e2      	ldr	r2, [r4, #12]
 8001d24:	f423 63e0 	bic.w	r3, r3, #1792	; 0x700
 8001d28:	4313      	orrs	r3, r2
 8001d2a:	60ab      	str	r3, [r5, #8]
 8001d2c:	e792      	b.n	8001c54 <HAL_RCC_ClockConfig+0x3c>
 8001d2e:	bf00      	nop
 8001d30:	40022000 	.word	0x40022000
 8001d34:	40021000 	.word	0x40021000
 8001d38:	080041b7 	.word	0x080041b7
 8001d3c:	20000008 	.word	0x20000008
 8001d40:	20000004 	.word	0x20000004

08001d44 <HAL_RCC_GetPCLK1Freq>:
  return (HAL_RCC_GetHCLKFreq() >> (APBPrescTable[READ_BIT(RCC->CFGR, RCC_CFGR_PPRE1) >> RCC_CFGR_PPRE1_Pos] & 0x1FU));
 8001d44:	4b05      	ldr	r3, [pc, #20]	; (8001d5c <HAL_RCC_GetPCLK1Freq+0x18>)
 8001d46:	4a06      	ldr	r2, [pc, #24]	; (8001d60 <HAL_RCC_GetPCLK1Freq+0x1c>)
 8001d48:	689b      	ldr	r3, [r3, #8]
 8001d4a:	f3c3 2302 	ubfx	r3, r3, #8, #3
 8001d4e:	5cd3      	ldrb	r3, [r2, r3]
 8001d50:	4a04      	ldr	r2, [pc, #16]	; (8001d64 <HAL_RCC_GetPCLK1Freq+0x20>)
 8001d52:	6810      	ldr	r0, [r2, #0]
 8001d54:	f003 031f 	and.w	r3, r3, #31
}
 8001d58:	40d8      	lsrs	r0, r3
 8001d5a:	4770      	bx	lr
 8001d5c:	40021000 	.word	0x40021000
 8001d60:	080041c7 	.word	0x080041c7
 8001d64:	20000008 	.word	0x20000008

08001d68 <HAL_RCC_GetPCLK2Freq>:
  return (HAL_RCC_GetHCLKFreq()>> (APBPrescTable[READ_BIT(RCC->CFGR, RCC_CFGR_PPRE2) >> RCC_CFGR_PPRE2_Pos] & 0x1FU));
 8001d68:	4b05      	ldr	r3, [pc, #20]	; (8001d80 <HAL_RCC_GetPCLK2Freq+0x18>)
 8001d6a:	4a06      	ldr	r2, [pc, #24]	; (8001d84 <HAL_RCC_GetPCLK2Freq+0x1c>)
 8001d6c:	689b      	ldr	r3, [r3, #8]
 8001d6e:	f3c3 23c2 	ubfx	r3, r3, #11, #3
 8001d72:	5cd3      	ldrb	r3, [r2, r3]
 8001d74:	4a04      	ldr	r2, [pc, #16]	; (8001d88 <HAL_RCC_GetPCLK2Freq+0x20>)
 8001d76:	6810      	ldr	r0, [r2, #0]
 8001d78:	f003 031f 	and.w	r3, r3, #31
}
 8001d7c:	40d8      	lsrs	r0, r3
 8001d7e:	4770      	bx	lr
 8001d80:	40021000 	.word	0x40021000
 8001d84:	080041c7 	.word	0x080041c7
 8001d88:	20000008 	.word	0x20000008

08001d8c <RCCEx_PLLSAI1_Config>:
  * @note   PLLSAI1 is temporary disable to apply new parameters
  *
  * @retval HAL status
  */
static HAL_StatusTypeDef RCCEx_PLLSAI1_Config(RCC_PLLSAI1InitTypeDef *PllSai1, uint32_t Divider)
{
 8001d8c:	b5f8      	push	{r3, r4, r5, r6, r7, lr}
  assert_param(IS_RCC_PLLSAI1M_VALUE(PllSai1->PLLSAI1M));
  assert_param(IS_RCC_PLLSAI1N_VALUE(PllSai1->PLLSAI1N));
  assert_param(IS_RCC_PLLSAI1CLOCKOUT_VALUE(PllSai1->PLLSAI1ClockOut));

  /* Check that PLLSAI1 clock source and divider M can be applied */
  if(__HAL_RCC_GET_PLL_OSCSOURCE() != RCC_PLLSOURCE_NONE)
 8001d8e:	4b44      	ldr	r3, [pc, #272]	; (8001ea0 <RCCEx_PLLSAI1_Config+0x114>)
 8001d90:	68da      	ldr	r2, [r3, #12]
 8001d92:	f012 0f03 	tst.w	r2, #3
{
 8001d96:	4605      	mov	r5, r0
 8001d98:	460e      	mov	r6, r1
 8001d9a:	461c      	mov	r4, r3
 8001d9c:	6800      	ldr	r0, [r0, #0]
  if(__HAL_RCC_GET_PLL_OSCSOURCE() != RCC_PLLSOURCE_NONE)
 8001d9e:	d039      	beq.n	8001e14 <RCCEx_PLLSAI1_Config+0x88>
  {
    /* PLL clock source and divider M already set, check that no request for change  */
    if((__HAL_RCC_GET_PLL_OSCSOURCE() != PllSai1->PLLSAI1Source)
 8001da0:	68da      	ldr	r2, [r3, #12]
 8001da2:	f002 0203 	and.w	r2, r2, #3
 8001da6:	4282      	cmp	r2, r0
 8001da8:	d14b      	bne.n	8001e42 <RCCEx_PLLSAI1_Config+0xb6>
       ||
 8001daa:	2a00      	cmp	r2, #0
 8001dac:	d049      	beq.n	8001e42 <RCCEx_PLLSAI1_Config+0xb6>
       (PllSai1->PLLSAI1Source == RCC_PLLSOURCE_NONE)
#if !defined(RCC_PLLSAI1M_DIV_1_16_SUPPORT)
       ||
       (((READ_BIT(RCC->PLLCFGR, RCC_PLLCFGR_PLLM) >> RCC_PLLCFGR_PLLM_Pos) + 1U) != PllSai1->PLLSAI1M)
 8001dae:	68db      	ldr	r3, [r3, #12]
       ||
 8001db0:	686a      	ldr	r2, [r5, #4]
       (((READ_BIT(RCC->PLLCFGR, RCC_PLLCFGR_PLLM) >> RCC_PLLCFGR_PLLM_Pos) + 1U) != PllSai1->PLLSAI1M)
 8001db2:	f3c3 1302 	ubfx	r3, r3, #4, #3
 8001db6:	3301      	adds	r3, #1
       ||
 8001db8:	4293      	cmp	r3, r2
 8001dba:	d142      	bne.n	8001e42 <RCCEx_PLLSAI1_Config+0xb6>
  }

  if(status == HAL_OK)
  {
    /* Disable the PLLSAI1 */
    __HAL_RCC_PLLSAI1_DISABLE();
 8001dbc:	6823      	ldr	r3, [r4, #0]
 8001dbe:	f023 6380 	bic.w	r3, r3, #67108864	; 0x4000000
 8001dc2:	6023      	str	r3, [r4, #0]

    /* Get Start Tick*/
    tickstart = HAL_GetTick();
 8001dc4:	f7fe fc36 	bl	8000634 <HAL_GetTick>
 8001dc8:	4607      	mov	r7, r0

    /* Wait till PLLSAI1 is ready to be updated */
    while(READ_BIT(RCC->CR, RCC_CR_PLLSAI1RDY) != 0U)
 8001dca:	6823      	ldr	r3, [r4, #0]
 8001dcc:	011a      	lsls	r2, r3, #4
 8001dce:	d441      	bmi.n	8001e54 <RCCEx_PLLSAI1_Config+0xc8>
 8001dd0:	68af      	ldr	r7, [r5, #8]
      }
    }

    if(status == HAL_OK)
    {
      if(Divider == DIVIDER_P_UPDATE)
 8001dd2:	2e00      	cmp	r6, #0
 8001dd4:	d045      	beq.n	8001e62 <RCCEx_PLLSAI1_Config+0xd6>
                   ((PllSai1->PLLSAI1P >> 4U) << RCC_PLLSAI1CFGR_PLLSAI1P_Pos));
#endif /* RCC_PLLSAI1P_DIV_2_31_SUPPORT */

#endif /* RCC_PLLSAI1M_DIV_1_16_SUPPORT */
      }
      else if(Divider == DIVIDER_Q_UPDATE)
 8001dd6:	2e01      	cmp	r6, #1
 8001dd8:	d14f      	bne.n	8001e7a <RCCEx_PLLSAI1_Config+0xee>
                   (PllSai1->PLLSAI1N << RCC_PLLSAI1CFGR_PLLSAI1N_Pos) |
                   (((PllSai1->PLLSAI1Q >> 1U) - 1U) << RCC_PLLSAI1CFGR_PLLSAI1Q_Pos) |
                   ((PllSai1->PLLSAI1M - 1U) << RCC_PLLSAI1CFGR_PLLSAI1M_Pos));
#else
        /* Configure the PLLSAI1 Division factor Q and Multiplication factor N*/
        MODIFY_REG(RCC->PLLSAI1CFGR,
 8001dda:	6922      	ldr	r2, [r4, #16]
 8001ddc:	6928      	ldr	r0, [r5, #16]
 8001dde:	f422 02c0 	bic.w	r2, r2, #6291456	; 0x600000
 8001de2:	0840      	lsrs	r0, r0, #1
 8001de4:	f422 42fe 	bic.w	r2, r2, #32512	; 0x7f00
 8001de8:	3801      	subs	r0, #1
 8001dea:	ea42 2207 	orr.w	r2, r2, r7, lsl #8
 8001dee:	ea42 5240 	orr.w	r2, r2, r0, lsl #21
 8001df2:	6122      	str	r2, [r4, #16]
                   (((PllSai1->PLLSAI1R >> 1U) - 1U) << RCC_PLLSAI1CFGR_PLLSAI1R_Pos));
#endif /* RCC_PLLSAI1M_DIV_1_16_SUPPORT */
      }

      /* Enable the PLLSAI1 again by setting PLLSAI1ON to 1*/
      __HAL_RCC_PLLSAI1_ENABLE();
 8001df4:	6823      	ldr	r3, [r4, #0]
 8001df6:	f043 6380 	orr.w	r3, r3, #67108864	; 0x4000000
 8001dfa:	6023      	str	r3, [r4, #0]

      /* Get Start Tick*/
      tickstart = HAL_GetTick();
 8001dfc:	f7fe fc1a 	bl	8000634 <HAL_GetTick>
 8001e00:	4606      	mov	r6, r0

      /* Wait till PLLSAI1 is ready */
      while(READ_BIT(RCC->CR, RCC_CR_PLLSAI1RDY) == 0U)
 8001e02:	6823      	ldr	r3, [r4, #0]
 8001e04:	011b      	lsls	r3, r3, #4
 8001e06:	d545      	bpl.n	8001e94 <RCCEx_PLLSAI1_Config+0x108>
      }

      if(status == HAL_OK)
      {
        /* Configure the PLLSAI1 Clock output(s) */
        __HAL_RCC_PLLSAI1CLKOUT_ENABLE(PllSai1->PLLSAI1ClockOut);
 8001e08:	6923      	ldr	r3, [r4, #16]
 8001e0a:	69aa      	ldr	r2, [r5, #24]
 8001e0c:	4313      	orrs	r3, r2
 8001e0e:	6123      	str	r3, [r4, #16]
 8001e10:	2000      	movs	r0, #0
      }
    }
  }

  return status;
}
 8001e12:	bdf8      	pop	{r3, r4, r5, r6, r7, pc}
    switch(PllSai1->PLLSAI1Source)
 8001e14:	2802      	cmp	r0, #2
 8001e16:	d010      	beq.n	8001e3a <RCCEx_PLLSAI1_Config+0xae>
 8001e18:	2803      	cmp	r0, #3
 8001e1a:	d014      	beq.n	8001e46 <RCCEx_PLLSAI1_Config+0xba>
 8001e1c:	2801      	cmp	r0, #1
 8001e1e:	d110      	bne.n	8001e42 <RCCEx_PLLSAI1_Config+0xb6>
      if(HAL_IS_BIT_CLR(RCC->CR, RCC_CR_MSIRDY))
 8001e20:	681b      	ldr	r3, [r3, #0]
 8001e22:	079f      	lsls	r7, r3, #30
 8001e24:	d5f5      	bpl.n	8001e12 <RCCEx_PLLSAI1_Config+0x86>
      MODIFY_REG(RCC->PLLCFGR, RCC_PLLCFGR_PLLSRC | RCC_PLLCFGR_PLLM, PllSai1->PLLSAI1Source | (PllSai1->PLLSAI1M - 1U) << RCC_PLLCFGR_PLLM_Pos);
 8001e26:	68e3      	ldr	r3, [r4, #12]
 8001e28:	686a      	ldr	r2, [r5, #4]
 8001e2a:	f023 0373 	bic.w	r3, r3, #115	; 0x73
 8001e2e:	3a01      	subs	r2, #1
 8001e30:	4318      	orrs	r0, r3
 8001e32:	ea40 1002 	orr.w	r0, r0, r2, lsl #4
 8001e36:	60e0      	str	r0, [r4, #12]
 8001e38:	e7c0      	b.n	8001dbc <RCCEx_PLLSAI1_Config+0x30>
      if(HAL_IS_BIT_CLR(RCC->CR, RCC_CR_HSIRDY))
 8001e3a:	681b      	ldr	r3, [r3, #0]
 8001e3c:	f413 6f80 	tst.w	r3, #1024	; 0x400
        if(HAL_IS_BIT_CLR(RCC->CR, RCC_CR_HSEBYP))
 8001e40:	d1f1      	bne.n	8001e26 <RCCEx_PLLSAI1_Config+0x9a>
 8001e42:	2001      	movs	r0, #1
 8001e44:	bdf8      	pop	{r3, r4, r5, r6, r7, pc}
      if(HAL_IS_BIT_CLR(RCC->CR, RCC_CR_HSERDY))
 8001e46:	681a      	ldr	r2, [r3, #0]
 8001e48:	0391      	lsls	r1, r2, #14
 8001e4a:	d4ec      	bmi.n	8001e26 <RCCEx_PLLSAI1_Config+0x9a>
        if(HAL_IS_BIT_CLR(RCC->CR, RCC_CR_HSEBYP))
 8001e4c:	681b      	ldr	r3, [r3, #0]
 8001e4e:	f413 2f80 	tst.w	r3, #262144	; 0x40000
 8001e52:	e7f5      	b.n	8001e40 <RCCEx_PLLSAI1_Config+0xb4>
      if((HAL_GetTick() - tickstart) > PLLSAI1_TIMEOUT_VALUE)
 8001e54:	f7fe fbee 	bl	8000634 <HAL_GetTick>
 8001e58:	1bc0      	subs	r0, r0, r7
 8001e5a:	2802      	cmp	r0, #2
 8001e5c:	d9b5      	bls.n	8001dca <RCCEx_PLLSAI1_Config+0x3e>
        status = HAL_TIMEOUT;
 8001e5e:	2003      	movs	r0, #3
 8001e60:	bdf8      	pop	{r3, r4, r5, r6, r7, pc}
        MODIFY_REG(RCC->PLLSAI1CFGR,
 8001e62:	6922      	ldr	r2, [r4, #16]
 8001e64:	68e9      	ldr	r1, [r5, #12]
 8001e66:	f022 4278 	bic.w	r2, r2, #4160749568	; 0xf8000000
 8001e6a:	06c9      	lsls	r1, r1, #27
 8001e6c:	ea41 2307 	orr.w	r3, r1, r7, lsl #8
 8001e70:	f422 42fe 	bic.w	r2, r2, #32512	; 0x7f00
 8001e74:	4313      	orrs	r3, r2
        MODIFY_REG(RCC->PLLSAI1CFGR,
 8001e76:	6123      	str	r3, [r4, #16]
 8001e78:	e7bc      	b.n	8001df4 <RCCEx_PLLSAI1_Config+0x68>
 8001e7a:	6923      	ldr	r3, [r4, #16]
 8001e7c:	6968      	ldr	r0, [r5, #20]
 8001e7e:	f023 63c0 	bic.w	r3, r3, #100663296	; 0x6000000
 8001e82:	0840      	lsrs	r0, r0, #1
 8001e84:	f423 43fe 	bic.w	r3, r3, #32512	; 0x7f00
 8001e88:	3801      	subs	r0, #1
 8001e8a:	ea43 2307 	orr.w	r3, r3, r7, lsl #8
 8001e8e:	ea43 6340 	orr.w	r3, r3, r0, lsl #25
 8001e92:	e7f0      	b.n	8001e76 <RCCEx_PLLSAI1_Config+0xea>
        if((HAL_GetTick() - tickstart) > PLLSAI1_TIMEOUT_VALUE)
 8001e94:	f7fe fbce 	bl	8000634 <HAL_GetTick>
 8001e98:	1b80      	subs	r0, r0, r6
 8001e9a:	2802      	cmp	r0, #2
 8001e9c:	d9b1      	bls.n	8001e02 <RCCEx_PLLSAI1_Config+0x76>
 8001e9e:	e7de      	b.n	8001e5e <RCCEx_PLLSAI1_Config+0xd2>
 8001ea0:	40021000 	.word	0x40021000

08001ea4 <RCCEx_PLLSAI2_Config>:
  * @note   PLLSAI2 is temporary disable to apply new parameters
  *
  * @retval HAL status
  */
static HAL_StatusTypeDef RCCEx_PLLSAI2_Config(RCC_PLLSAI2InitTypeDef *PllSai2, uint32_t Divider)
{
 8001ea4:	b5f8      	push	{r3, r4, r5, r6, r7, lr}
  assert_param(IS_RCC_PLLSAI2M_VALUE(PllSai2->PLLSAI2M));
  assert_param(IS_RCC_PLLSAI2N_VALUE(PllSai2->PLLSAI2N));
  assert_param(IS_RCC_PLLSAI2CLOCKOUT_VALUE(PllSai2->PLLSAI2ClockOut));

  /* Check that PLLSAI2 clock source and divider M can be applied */
  if(__HAL_RCC_GET_PLL_OSCSOURCE() != RCC_PLLSOURCE_NONE)
 8001ea6:	4b3c      	ldr	r3, [pc, #240]	; (8001f98 <RCCEx_PLLSAI2_Config+0xf4>)
 8001ea8:	68da      	ldr	r2, [r3, #12]
 8001eaa:	f012 0f03 	tst.w	r2, #3
{
 8001eae:	4605      	mov	r5, r0
 8001eb0:	460e      	mov	r6, r1
 8001eb2:	461c      	mov	r4, r3
 8001eb4:	6800      	ldr	r0, [r0, #0]
  if(__HAL_RCC_GET_PLL_OSCSOURCE() != RCC_PLLSOURCE_NONE)
 8001eb6:	d027      	beq.n	8001f08 <RCCEx_PLLSAI2_Config+0x64>
  {
    /* PLL clock source and divider M already set, check that no request for change  */
    if((__HAL_RCC_GET_PLL_OSCSOURCE() != PllSai2->PLLSAI2Source)
 8001eb8:	68da      	ldr	r2, [r3, #12]
 8001eba:	f002 0203 	and.w	r2, r2, #3
 8001ebe:	4282      	cmp	r2, r0
 8001ec0:	d139      	bne.n	8001f36 <RCCEx_PLLSAI2_Config+0x92>
       ||
 8001ec2:	2a00      	cmp	r2, #0
 8001ec4:	d037      	beq.n	8001f36 <RCCEx_PLLSAI2_Config+0x92>
       (PllSai2->PLLSAI2Source == RCC_PLLSOURCE_NONE)
#if !defined(RCC_PLLSAI2M_DIV_1_16_SUPPORT)
       ||
       (((READ_BIT(RCC->PLLCFGR, RCC_PLLCFGR_PLLM) >> RCC_PLLCFGR_PLLM_Pos) + 1U) != PllSai2->PLLSAI2M)
 8001ec6:	68db      	ldr	r3, [r3, #12]
       ||
 8001ec8:	686a      	ldr	r2, [r5, #4]
       (((READ_BIT(RCC->PLLCFGR, RCC_PLLCFGR_PLLM) >> RCC_PLLCFGR_PLLM_Pos) + 1U) != PllSai2->PLLSAI2M)
 8001eca:	f3c3 1302 	ubfx	r3, r3, #4, #3
 8001ece:	3301      	adds	r3, #1
       ||
 8001ed0:	4293      	cmp	r3, r2
 8001ed2:	d130      	bne.n	8001f36 <RCCEx_PLLSAI2_Config+0x92>
  }

  if(status == HAL_OK)
  {
    /* Disable the PLLSAI2 */
    __HAL_RCC_PLLSAI2_DISABLE();
 8001ed4:	6823      	ldr	r3, [r4, #0]
 8001ed6:	f023 5380 	bic.w	r3, r3, #268435456	; 0x10000000
 8001eda:	6023      	str	r3, [r4, #0]

    /* Get Start Tick*/
    tickstart = HAL_GetTick();
 8001edc:	f7fe fbaa 	bl	8000634 <HAL_GetTick>
 8001ee0:	4607      	mov	r7, r0

    /* Wait till PLLSAI2 is ready to be updated */
    while(READ_BIT(RCC->CR, RCC_CR_PLLSAI2RDY) != 0U)
 8001ee2:	6823      	ldr	r3, [r4, #0]
 8001ee4:	009a      	lsls	r2, r3, #2
 8001ee6:	d42f      	bmi.n	8001f48 <RCCEx_PLLSAI2_Config+0xa4>
 8001ee8:	68a8      	ldr	r0, [r5, #8]
      }
    }

    if(status == HAL_OK)
    {
      if(Divider == DIVIDER_P_UPDATE)
 8001eea:	2e00      	cmp	r6, #0
 8001eec:	d033      	beq.n	8001f56 <RCCEx_PLLSAI2_Config+0xb2>
                   (PllSai2->PLLSAI2N << RCC_PLLSAI2CFGR_PLLSAI2N_Pos) |
                   (((PllSai2->PLLSAI2R >> 1U) - 1U) << RCC_PLLSAI2CFGR_PLLSAI2R_Pos) |
                   ((PllSai2->PLLSAI2M - 1U) << RCC_PLLSAI2CFGR_PLLSAI2M_Pos));
#else
        /* Configure the PLLSAI2 Division factor R and Multiplication factor N*/
        MODIFY_REG(RCC->PLLSAI2CFGR,
 8001eee:	6963      	ldr	r3, [r4, #20]
 8001ef0:	6929      	ldr	r1, [r5, #16]
 8001ef2:	f023 63c0 	bic.w	r3, r3, #100663296	; 0x6000000
 8001ef6:	0849      	lsrs	r1, r1, #1
 8001ef8:	f423 43fe 	bic.w	r3, r3, #32512	; 0x7f00
 8001efc:	3901      	subs	r1, #1
 8001efe:	ea43 2300 	orr.w	r3, r3, r0, lsl #8
 8001f02:	ea43 6341 	orr.w	r3, r3, r1, lsl #25
 8001f06:	e030      	b.n	8001f6a <RCCEx_PLLSAI2_Config+0xc6>
    switch(PllSai2->PLLSAI2Source)
 8001f08:	2802      	cmp	r0, #2
 8001f0a:	d010      	beq.n	8001f2e <RCCEx_PLLSAI2_Config+0x8a>
 8001f0c:	2803      	cmp	r0, #3
 8001f0e:	d014      	beq.n	8001f3a <RCCEx_PLLSAI2_Config+0x96>
 8001f10:	2801      	cmp	r0, #1
 8001f12:	d110      	bne.n	8001f36 <RCCEx_PLLSAI2_Config+0x92>
      if(HAL_IS_BIT_CLR(RCC->CR, RCC_CR_MSIRDY))
 8001f14:	681b      	ldr	r3, [r3, #0]
 8001f16:	079f      	lsls	r7, r3, #30
 8001f18:	d537      	bpl.n	8001f8a <RCCEx_PLLSAI2_Config+0xe6>
      MODIFY_REG(RCC->PLLCFGR, RCC_PLLCFGR_PLLSRC | RCC_PLLCFGR_PLLM, PllSai2->PLLSAI2Source | (PllSai2->PLLSAI2M - 1U) << RCC_PLLCFGR_PLLM_Pos);
 8001f1a:	68e3      	ldr	r3, [r4, #12]
 8001f1c:	686a      	ldr	r2, [r5, #4]
 8001f1e:	f023 0373 	bic.w	r3, r3, #115	; 0x73
 8001f22:	3a01      	subs	r2, #1
 8001f24:	4318      	orrs	r0, r3
 8001f26:	ea40 1002 	orr.w	r0, r0, r2, lsl #4
 8001f2a:	60e0      	str	r0, [r4, #12]
 8001f2c:	e7d2      	b.n	8001ed4 <RCCEx_PLLSAI2_Config+0x30>
      if(HAL_IS_BIT_CLR(RCC->CR, RCC_CR_HSIRDY))
 8001f2e:	681b      	ldr	r3, [r3, #0]
 8001f30:	f413 6f80 	tst.w	r3, #1024	; 0x400
        if(HAL_IS_BIT_CLR(RCC->CR, RCC_CR_HSEBYP))
 8001f34:	d1f1      	bne.n	8001f1a <RCCEx_PLLSAI2_Config+0x76>
 8001f36:	2001      	movs	r0, #1
 8001f38:	bdf8      	pop	{r3, r4, r5, r6, r7, pc}
      if(HAL_IS_BIT_CLR(RCC->CR, RCC_CR_HSERDY))
 8001f3a:	681a      	ldr	r2, [r3, #0]
 8001f3c:	0391      	lsls	r1, r2, #14
 8001f3e:	d4ec      	bmi.n	8001f1a <RCCEx_PLLSAI2_Config+0x76>
        if(HAL_IS_BIT_CLR(RCC->CR, RCC_CR_HSEBYP))
 8001f40:	681b      	ldr	r3, [r3, #0]
 8001f42:	f413 2f80 	tst.w	r3, #262144	; 0x40000
 8001f46:	e7f5      	b.n	8001f34 <RCCEx_PLLSAI2_Config+0x90>
      if((HAL_GetTick() - tickstart) > PLLSAI2_TIMEOUT_VALUE)
 8001f48:	f7fe fb74 	bl	8000634 <HAL_GetTick>
 8001f4c:	1bc0      	subs	r0, r0, r7
 8001f4e:	2802      	cmp	r0, #2
 8001f50:	d9c7      	bls.n	8001ee2 <RCCEx_PLLSAI2_Config+0x3e>
        status = HAL_TIMEOUT;
 8001f52:	2003      	movs	r0, #3
 8001f54:	bdf8      	pop	{r3, r4, r5, r6, r7, pc}
        MODIFY_REG(RCC->PLLSAI2CFGR,
 8001f56:	68ea      	ldr	r2, [r5, #12]
 8001f58:	6961      	ldr	r1, [r4, #20]
 8001f5a:	06d2      	lsls	r2, r2, #27
 8001f5c:	ea42 2300 	orr.w	r3, r2, r0, lsl #8
 8001f60:	f021 4278 	bic.w	r2, r1, #4160749568	; 0xf8000000
 8001f64:	f422 42fe 	bic.w	r2, r2, #32512	; 0x7f00
 8001f68:	4313      	orrs	r3, r2
        MODIFY_REG(RCC->PLLSAI2CFGR,
 8001f6a:	6163      	str	r3, [r4, #20]
                   (((PllSai2->PLLSAI2R >> 1U) - 1U) << RCC_PLLSAI2CFGR_PLLSAI2R_Pos));
#endif /* RCC_PLLSAI2M_DIV_1_16_SUPPORT */
      }

      /* Enable the PLLSAI2 again by setting PLLSAI2ON to 1*/
      __HAL_RCC_PLLSAI2_ENABLE();
 8001f6c:	6823      	ldr	r3, [r4, #0]
 8001f6e:	f043 5380 	orr.w	r3, r3, #268435456	; 0x10000000
 8001f72:	6023      	str	r3, [r4, #0]

      /* Get Start Tick*/
      tickstart = HAL_GetTick();
 8001f74:	f7fe fb5e 	bl	8000634 <HAL_GetTick>
 8001f78:	4606      	mov	r6, r0

      /* Wait till PLLSAI2 is ready */
      while(READ_BIT(RCC->CR, RCC_CR_PLLSAI2RDY) == 0U)
 8001f7a:	6823      	ldr	r3, [r4, #0]
 8001f7c:	009b      	lsls	r3, r3, #2
 8001f7e:	d505      	bpl.n	8001f8c <RCCEx_PLLSAI2_Config+0xe8>
      }

      if(status == HAL_OK)
      {
        /* Configure the PLLSAI2 Clock output(s) */
        __HAL_RCC_PLLSAI2CLKOUT_ENABLE(PllSai2->PLLSAI2ClockOut);
 8001f80:	6963      	ldr	r3, [r4, #20]
 8001f82:	696a      	ldr	r2, [r5, #20]
 8001f84:	4313      	orrs	r3, r2
 8001f86:	6163      	str	r3, [r4, #20]
 8001f88:	2000      	movs	r0, #0
      }
    }
  }

  return status;
}
 8001f8a:	bdf8      	pop	{r3, r4, r5, r6, r7, pc}
        if((HAL_GetTick() - tickstart) > PLLSAI2_TIMEOUT_VALUE)
